:020000040800F2
:10000000406A0020F52400086125000861250008E9
:100010006125000861250008612500080000000036
:100020000000000000000000000000006125000842
:1000300061250008000000006125000875ED00083A
:100040006125000861250008612500086125000878
:100050006125000861250008612500086125000868
:100060006125000861250008612500086125000858
:100070006125000861250008612500086125000848
:100080006125000861250008612500086125000838
:100090006125000861250008612500086125000828
:1000A0006125000861250008612500086125000818
:1000B000612500083DDF0008D547040861250008D8
:1000C00061250008612500086125000861250008F8
:1000D00061250008710800082D070008614F00081D
:1000E00061250008612500086125000861250008D8
:1000F00061250008612500086125000861250008C8
:1001000061250008612500085523000861250008C5
:1001100061250008612500086125000861250008A7
:100120006125000861250008612500086125000897
:100130006125000861250008612500086125000887
:100140006125000861250008612500086125000877
:10015000612500086125000861250008490D000897
:100160006125000861250008612500086125000857
:100170006125000861250008612500086125000847
:10018000612500086125000810B5054C237833B9B6
:10019000044B13B10448AFF300800123237010BD5A
:1001A0008C130020000000001800050808B5034B60
:1001B0001BB103490348AFF3008008BD00000000F5
:1001C000901300201800050880B582B000AF786059
:1001D00001214FF4003004F085FD0121012004F0DD
:1001E00061FD284B0C221A60264B02221A71254B06
:1001F00002225A71234B00229A71224B0122DA719A
:10020000204921480EF050FB072202211E480EF023
:1002100011FC072203211C480EF00CFC1B4A7B68D2
:1002200013601A4B00229A80184B0022DA80174B79
:1002300000221A81154B00229A81144B0C225A81FC
:100240001249134801F046FC012240F225511048A2
:1002500001F02CFD0F4B26221A700E4B00225A7013
:100260000C4B00229A700B4B0122DA70094843F0C4
:10027000A7FB0121064801F0E7FC00BF0837BD4697
:1002800080BD00BF9832002000000240B83200203C
:1002900000440040E436002080B584B000AF03463F
:1002A000FB80FB88FB81064801F0AAFB0548FFF7AD
:1002B0008BFFB7F90E3018461037BD4680BD00BF22
:1002C0000014014040420F0090B585B000AF786047
:1002D00039602F4BFB608021786801F04BFD2C4B7F
:1002E000FB601DE0FB68002B03D0FB68013BFB605B
:1002F00016E043F052FB0021002043F03CFB254A6E
:10030000254B144607CB20606160A2601B88A38147
:10031000204843F01CFB4FF0FF30FFF7BDFF34E0F7
:100320008021786801F00AFD0346002BDAD03B6893
:100330009BB21946786801F0A7FC154BFB601DE0E5
:10034000FB68002B03D0FB68013BFB6016E043F029
:1003500024FB0021002043F00EFB0E4A0E4B1446F6
:1003600007CB20606160A2601B88A381094843F02D
:10037000EEFA4FF0FF30FFF78FFF06E0402178687C
:1003800001F0DCFC0346002BDAD01437BD4690BDEB
:1003900020A10700501D002064D7040880B584B058
:1003A00000AF0346FB710B46BB7113467B71BB79F3
:1003B000FB737B79BB73FA79FB7B1344DAB2BB7BAB
:1003C0001344DBB24233DBB2DB43DAB21C4B1A70AC
:1003D00002211C480EF010FBFF211B48FFF774FFA1
:1003E000FF211948FFF770FFFB7919461648FFF700
:1003F0006BFF06211448FFF767FF03211248FFF740
:1004000063FF1C211048FFF75FFFFB7B19460E4876
:10041000FFF75AFF1D210C48FFF756FFBB7B19461B
:100420000948FFF751FF064B1B7819460648FFF7AE
:100430004BFF0A200EF0B6FC00BF1037BD4680BD52
:10044000941F0020000802400044004080B584B0A2
:1004500000AF03463960FB713B681B12FB733B68BE
:10046000BB73FA79BB7B1344DAB2FB7B1344DBB278
:100470003833DBB2DB43DAB21A4B1A7002211A4866
:100480000EF0BAFAFF211948FFF71EFFFF211748A7
:10049000FFF71AFFFB7919461448FFF715FF0521EE
:1004A0001248FFF711FF03211048FFF70DFF30211D
:1004B0000E48FFF709FFBB7B19460C48FFF704FF06
:1004C000FB7B19460948FFF7FFFE064B1B781946D0
:1004D0000648FFF7F9FE0A200EF064FC00BF103753
:1004E000BD4680BD941F002000080240004400402B
:1004F00080B586B000AFB9607A603B600346FB739D
:10050000BB689B027B617B69364A82FB03125211F6
:10051000DB17D31A7B617B69002B02D07B69013B1F
:100520007B617B691B12FB747B69BB747B681B0A54
:100530007B747B683B74FA7BBB7C1344DAB2FB7C34
:100540001344DAB23B7C1344DAB27B7C1344DBB253
:100550002833DBB2DB43DAB2234B1A700221234883
:100560000EF04AFAFF212248FFF7AEFEFF21204895
:10057000FFF7AAFEFB7B19461D48FFF7A5FE0721E2
:100580001B48FFF7A1FE03211948FFF79DFE1E211E
:100590001748FFF799FEBB7C19461548FFF794FEF4
:1005A000FB7C19461248FFF78FFE3B7C194610482A
:1005B000FFF78AFE7B7C19460D48FFF785FE0A4B44
:1005C0001B7819460A48FFF77FFE38680EF0EAFBF1
:1005D000022106480EF01FFA4FF0FF331846183775
:1005E000BD4680BDB5814E1B941F0020000802400F
:1005F0000044004080B588B000AF0023FB610723B2
:100600007B610023BB615E23FB7440F29F23FB6090
:100610004FF47A73BB6002213F480EF0EDF9FF21E1
:100620003E48FFF751FEFF213C48FFF74DFEFE21FB
:100630003A48FFF749FEFB7C19463848FFF744FE6D
:1006400083213648FFF740FE1E213448FFF73CFE69
:1006500004213248FFF738FE44E0314AFB6952F882
:1006600023301B12FB712E4AFB6952F82330BB71F9
:100670002C4AFB6952F823301B127B71294AFB6913
:1006800052F823303B71FB69DBB20133DBB2194610
:100690002248FFF719FEBB7919462048FFF714FEE0
:1006A000FB7919461D48FFF70FFE3B7919461B4899
:1006B000FFF70AFE7B7919461848FFF705FEFB692C
:1006C0005A1CBB791A44FB791A443B791A447B794A
:1006D0001344BA691344BB61FB69102B06DCFB6948
:1006E0000133FB61FB69112BB7DD00E000BFBB6983
:1006F000DAB2FB7C1344DBB25D3BDBB2DB43DAB244
:10070000094B1A70084B1B7819460448FFF7DCFDAB
:1007100000BF2037BD4680BD0008024000440040B5
:1007200038230020A0380020941F002080B500AF9F
:10073000022117480EF060F940F22771154801F0C8
:100740002AFB0346002B20D0134B1B68134AD35CB3
:100750009BB219460F4801F097FA0F4B1B68013303
:100760000D4A13600E4B1B685A1C0B4B1B689A42B8
:100770000BDC0B4B00221A60074B00221A60002290
:1007800040F22771034801F091FA00BF80BD00BF1D
:100790000008024000440040101C0020702A002085
:1007A000601B002080B582B000AF7860012110206E
:1007B00004F0B8FA0121022004F074FA274BC02299
:1007C0001A60264B02221A71244B02225A71234BC3
:1007D00000229A71214B0122DA71204920480EF043
:1007E00063F8072206211E480EF024F9072207218C
:1007F0001B480EF01FF91B4A7B681360194B00223F
:100800009A80184B0022DA80164B00221A81154B71
:1008100000229A81134B0C225A811249124801F08E
:1008200059F9012240F225510F4801F03FFA0F4BD0
:1008300025221A700D4B00225A700C4B00229A7020
:100840000A4B0122DA70094843F0BAF80121064840
:1008500001F0FAF900BF0837BD4680BD983200208C
:1008600000040240B832002000100140E4360020AD
:1008700080B582B000AF40F225518C4801F08BFA70
:100880000346002B00F0DC81884B9B889BB2FB71F8
:10089000874B1B68013B0D2B00F21A8101A252F815
:1008A00023F000BFDD080008F50800082D09000846
:1008B000450900088D090008A5090008E509000898
:1008C000FD090008150A00082D0A0008450A00085D
:1008D0005D0A0008750A0008B90A0008734B9B8876
:1008E0009BB21A46734B1A60714B1B680133704AF6
:1008F0001360EDE06F4B1B68112B0BD16B4B9B888A
:100900009BB21A466B4B5A60694B1B683F33684A6F
:100910001360DDE0654B9B889BB21A46654B5A60BD
:10092000634B1B680133624A1360D1E05F4B9B88C5
:100930009BB21A465F4B9A605D4B1B6801335C4A61
:100940001360C5E05B4B1B68522B07D0594B1B68EB
:10095000122B03D0574B1B68132B0BD1534B9B8887
:100960009BB21A46534BDA60514B1B680133504A15
:100970001360ADE04D4B9B889BB21A464D4BDA603D
:100980004B4B1B683F334A4A1360A1E0474B9B889F
:100990009BB21A46474B1A61454B1B680133444AC8
:1009A000136095E0434B1B68132B03D0414B1B682E
:1009B000122B0BD13D4B9B889BB21A463D4B5A6183
:1009C0003B4B1B6801333A4A136081E0374B9B88ED
:1009D0009BB21A46374B5A61354B1B683F33344A3A
:1009E000136075E0314B9B889BB21A46314B9A617C
:1009F0002F4B1B6801332E4A136069E02B4B9B88F9
:100A00009BB21A462B4BDA61294B1B680133284AEB
:100A100013605DE0254B9B889BB21A46254B1A62FA
:100A2000234B1B680133224A136051E01F4B9B8804
:100A30009BB21A461F4B5A621D4B1B6801331C4A5E
:100A4000136045E0194B9B889BB21A46194B9A627A
:100A5000174B1B680133164A136039E0134B9B8810
:100A60009BB21A46134BDA62114B1B680133104AD2
:100A700013602DE00F4B1B68122B0BD10B4B9B8887
:100A80009BB21A460B4B1A63094B1B683F33084A4B
:100A900013601DE0054B9B889BB21A46054B1A63F9
:100AA000034B1B680133024A136011E00010014040
:100AB00094160020EC160020634B9B889BB21A46CC
:100AC000624B5A63624B1B683F33614A136000BF3D
:100AD000FA79604B1B689A420CD15F4B1B781A461F
:100AE0005E4B1B689A4205D1594B01221A605C4B40
:100AF00001221A60584AFB791370544B1B68122B61
:100B000057D0122B02D8112B4ED083E0132B16D0C6
:100B1000522B7FD14D4B5B681A024C4B9B681343A1
:100B2000504A1360494BDB681A02484B1B69134358
:100B30004C4A5360454B5B694A4A93606AE0434BB9
:100B40005B681A02414B9B681343464A13603F4B54
:100B5000DB681A023D4B1B691343424A53603B4B0F
:100B60005B691A02394B9B6913433E4A9360374BCA
:100B7000DB691A02354B1B6A13433A4AD360334B85
:100B80005B6A1A02314B9B6A1343364A13612F4B3F
:100B9000DB6A1A022D4B1B6B1343324A53612B4BFA
:100BA0005B6B304A936135E0284B5B682D4A53609C
:100BB00030E0264B5B681A02244B9B681343294A9A
:100BC0005360224BDB681A02204B1B691343254AF2
:100BD00093601E4B5B691A021C4B9B691343214AAD
:100BE000D3601A4BDB691A02184B1B6A13431D4A68
:100BF0001361164B5B6A1A02144B9B6A1343194A22
:100C00005361124BDB6A1A02104B1B6B1343154ADC
:100C1000936100BF134B5A68134B1B689A420FD164
:100C2000104B1A68114B1B689A4209D0104B1A6876
:100C3000104B1B689A4203D10B4B1B680E4A136082
:100C400000BF0837BD4680BD00100140EC160020F3
:100C50009416002074000020141C00207000002056
:100C6000A8170020C01600209C06002018000020B5
:100C7000D0170020A8060020C417002080B582B03D
:100C800000AF78600121202004F04CF801210420FD
:100C900004F008F8274BC0221A60264B02221A7172
:100CA000244B02225A71234B00229A71214B0122BC
:100CB000DA71204920480DF0F7FD082206211E4870
:100CC0000DF0B8FE082207211B480DF0B3FE1B4AA9
:100CD0007B681360194B00229A80184B0022DA803F
:100CE000164B00221A81154B00229A81134B0C22BD
:100CF0005A811249124800F0EDFE012240F22551BE
:100D00000F4800F0D3FF0F4B47221A700D4B002203
:100D10005A700C4B00229A700A4B0122DA70094873
:100D200042F04EFE0121064800F08EFF00BF08375A
:100D3000BD4680BD9832002000080240B832002035
:100D400000140140E436002080B582B000AF40F2CC
:100D500025516F4801F01FF80346002B00F0D380A7
:100D60006B4B9B889BB2FB716A4B1B68013B092B49
:100D700000F2908001A252F823F000BFA50D0008F8
:100D8000BD0D0008D50D0008ED0D0008050E00088A
:100D90001D0E0008350E00084D0E0008650E0008F7
:100DA0007D0E00085A4B9B889BB21A465A4B1A601C
:100DB000584B1B680133574A13606BE0544B9B88B8
:100DC0009BB21A46544B5A60524B1B680133514A2E
:100DD00013605FE04E4B9B889BB21A464E4B9A6065
:100DE0004C4B1B6801334B4A136053E0484B9B88C4
:100DF0009BB21A46484BDA60464B1B680133454AA2
:100E0000136047E0424B9B889BB21A46424B1A61E3
:100E1000404B1B6801333F4A13603BE03C4B9B88CF
:100E20009BB21A463C4B5A613A4B1B680133394A14
:100E300013602FE0364B9B889BB21A46364B9A6163
:100E4000344B1B680133334A136023E0304B9B88DB
:100E50009BB21A46304B5A632E4B1B6801332D4A06
:100E6000136017E02A4B9B889BB21A462B4B1A60E3
:100E7000284B1B680133274A13600BE0244B9B88E7
:100E80009BB21A46254B5A60224B1B683F33214ABE
:100E9000136000BFFA79224B1B689A420CD1214B98
:100EA0001B781A46204B1B689A4205D1194B012228
:100EB0001A601E4B01221A601A4AFB791370164BF6
:100EC0005B681A02144B9B681343194A1360124B58
:100ED000DB681A02104B1B691343154A53600E4B13
:100EE0005B691A020C4B9B691343114A93600A4BCE
:100EF0005B6B0F4A9361094B1B681A02074B5B68D7
:100F000013430C4A136000BF0837BD4680BD00BFC5
:100F10000014014098160020241700208C17002090
:100F200074000020151C002070000020AC17002069
:100F30005C170020881700200EB480B482B000AF88
:100F4000786000BF0837BD465DF8047B03B070478A
:100F500080B584B000AF786039601B4BFB608021A6
:100F60001A4800F007FF184BFB60194B00221A606B
:100F700005E0FB68002B0AD0FB68013BFB60802189
:100F8000124800F0DBFE0346002BF2D000E000BF69
:100F90003B689BB219460D4800F076FE0A4BFB6099
:100FA00005E0FB68002B0AD0FB68013BFB60402199
:100FB000064800F0C3FE0346002BF2D000E000BF5D
:100FC00000BF1037BD4680BD20A1070000100140C2
:100FD000A817002080B500AF0121022003F062FEB7
:100FE00001214FF4001003F07DFE204B4FF44072BE
:100FF0001A601E4B02221A711C4B01229A711B4B64
:1010000002225A71194B0122DA71184918480DF061
:101010004BFC0422082116480DF00CFD0422092186
:1010200013480DF007FD134842F05AF9124B002205
:101030009A80114B114A1A600F4B4BF6FF72DA80FF
:101040000D4B00221A810C4B4FF480625A810A4BDF
:101050004FF480429A810121064842F03DFA064948
:10106000044842F077F900BF80BD00BF98320020ED
:101070000004024000540040202C0020A086010003
:1010800080B584B000AF03460A46FB711346BB71BE
:1010900000237B814FF44053FB6001213E4842F026
:1010A0003BFA4FF44053FB600CE0FB68002B03D08D
:1010B000FB68013BFB6005E04FF0FF3000F074F887
:1010C000034665E03549344842F014FB0346002BE3
:1010D000EBD0FB795B00DBB2002219462E4842F0D0
:1010E0005BFA4FF44053FB600CE0FB68002B03D02D
:1010F000FB68013BFB6005E06FF0010000F054F875
:10110000034645E02649244842F0F4FA0346002B02
:10111000EBD0214B1B8B4FF44053FB600CE0FB6882
:10112000002B03D0FB68013BFB6005E06FF0020081
:1011300000F03AF803462BE01A49174842F0DAFA71
:101140000346002BEBD0BB791946134842F084FAD2
:101150004FF44053FB600CE0FB68002B03D0FB68AE
:10116000013BFB6005E06FF0030000F01DF8034653
:101170000EE00C49084842F0BDFA0346002BEBD0C4
:101180000121054842F0E8F900237B81B7F90A30D4
:1011900018461037BD4680BD0054004001000010C5
:1011A000020000108000001080B584B000AF03463C
:1011B000FB80FB88FB8101210C4842F0CDF9012125
:1011C0000A4842F027FA0021084842F023FA002199
:1011D000064842F01FFA054842F082F8FFF7FAFE8F
:1011E000B7F90E3018461037BD4680BD0054004098
:1011F00080B584B000AF0346FB710B46BB7113464C
:101200007B71FB791B01FB73BB79002B03D0FB7B4C
:1012100043F00103FB737B79002B03D0FB7B43F08E
:101220000403FB73084B1B78002B03D0FB7B43F0BC
:101230000803FB73FB7B19462720FFF721FF00BF44
:101240001037BD4680BD00BF0F62002080B582B060
:1012500000AF03460A46FB711346BB71B979FB79AF
:1012600001221846FFF7C4FF01200DF09BFDB9795C
:10127000FB7900221846FFF7BBFF00BF0837BD46C9
:1012800080BD80B584B000AF03460A46FB711346AB
:10129000BB71FB7903F00F03FB73FB791B09BB7375
:1012A000BA79BB7B11461846FFF7D0FFBA79FB7BB2
:1012B00011461846FFF7CAFF00BF1037BD4680BD74
:1012C00080B582B000AF0346FB71FB790021184660
:1012D000FFF7D7FF00BF0837BD4680BD80B582B09D
:1012E00000AF0346FB71FB7901211846FFF7C9FFE8
:1012F00000BF0837BD4680BD80B582B000AF034651
:10130000FB71FB791846FFF7E9FF07200DF04AFD56
:1013100000BF0837BD4680BD80B483B000AF034630
:10132000FB71064AFB791370054B01221A7000BF4E
:101330000C37BD465DF8047B704700BF0D6200208E
:101340000F62002080B582B000AF0346FB710B46F0
:10135000BB7113467B71324ABB791370314B00224B
:101360001A70BB79012B06D92E4B1B7843F008036A
:10137000DAB22C4B1A707B79002B09D0BB79012B88
:1013800006D1284B1B7843F00403DAB2254B1A70C0
:10139000FFF720FE2720FFF7BFFF002201210020DA
:1013A000FFF726FF4CF250300DF0FCFC002103202B
:1013B000FFF74CFF41F294100DF0F4FC00210320E4
:1013C000FFF744FF41F294100DF0ECFC00210320E4
:1013D000FFF73CFF96200DF0E5FC00210220FFF70F
:1013E00035FF104B1B7843F02003DBB21846FFF7A4
:1013F00067FF0D4B04221A7000F030F800F07AF805
:101400000A4B02221A70094B1B7843F00403DBB22B
:101410001846FFF755FF00BF0837BD4680BD00BF27
:10142000106200200E6200200C6200201162002079
:1014300080B500AF084B1B7823F00203DAB2064BED
:101440001A70054B1B7843F00803DBB21846FFF710
:1014500037FF00BF80BD00BF0C62002080B500AF29
:10146000084B1B7843F00403DAB2064B1A70054BA5
:101470001B7843F00803DBB21846FFF721FF00BFDB
:1014800080BD00BF0C62002090B587B000AF03465E
:101490000A46FB711346BB7106200DF083FC134B0B
:1014A00007F108040FCB84E80F00114B1B78BA79C1
:1014B0009A4203D30E4B1B78013BBB71BB799B0057
:1014C00007F11802134453F8103CDAB2FB791344C5
:1014D000DBB25BB263F07F035BB2DBB21846FFF7AF
:1014E000EFFE00BF1C37BD4690BD00BF74D7040897
:1014F0001062002080B500AF0120FFF7E1FE4FF43D
:1015000096600DF04FFC00BF80BD000080B584B038
:1015100000AF0346FB710B46BB7113467B71002382
:101520007B814FF44053FB600121854841F0F4FF7B
:101530004FF44053FB600BE0FB68002B03D0FB68CB
:10154000013BFB6004E0012000F03CFA0346F3E0BD
:101550007C497B4842F0CEF80346002BECD0FB7967
:101560005B00DBB200221946754842F015F84FF4D3
:101570004053FB600BE0FB68002B03D0FB68013B92
:10158000FB6004E0022000F01DFA0346D4E06E493F
:101590006B4842F0AFF80346002BECD0684B1B8B36
:1015A0004FF44053FB600BE0FB68002B03D0FB685B
:1015B000013BFB6004E0032000F004FA0346BBE0BB
:1015C00062495F4842F096F80346002BECD07B79E5
:1015D0001B12DBB219465A4842F03EF84FF4405312
:1015E000FB600BE0FB68002B03D0FB68013BFB605A
:1015F00004E0052000F0E6F903469DE05349504819
:1016000042F078F80346002BECD051494C4842F0A8
:1016100071F80346002BE5D07B791946484842F023
:101620001BF84FF44053FB600BE0FB68002B03D02A
:10163000FB68013BFB6004E0052000F0C3F90346B2
:101640007AE042493E4842F055F80346002BECD080
:101650003F493B4842F04EF80346002BE5D00121BC
:10166000374841F079FF0121354841F055FF4FF4EB
:101670004053FB600BE0FB68002B03D0FB68013B91
:10168000FB6004E0052000F09DF9034654E0314979
:101690002B4841F0FFFF0346002BECD0FB795B00A9
:1016A0005BB243F001035BB2DBB20122194624486E
:1016B00041F072FF4FF44053FB600BE0FB68002BDE
:1016C00003D0FB68013BFB6004E0012000F07AF9E5
:1016D000034631E020491A4841F0DCFF0346002B65
:1016E000ECD00021164841F075FF0121144841F06B
:1016F00033FF4FF44053FB600BE0FB68002B03D03B
:10170000FB68013BFB6004E0012000F05BF903464D
:1017100012E012490A4841F0BDFF0346002BECD00D
:10172000074841F0A9FF03461A460D4B1A600121F4
:10173000034841F04FFF002318461037BD4680BDD7
:10174000005800400100001002000010800000104E
:101750000400001001000300020003004000030029
:10176000701D002080B582B000AF01220121502001
:10177000FFF7CCFE03467B607D4B1B681B023B6082
:10178000022201215020FFF7C1FE794B1B683A6805
:1017900013433B603B68774A136064200DF028FBDD
:1017A000032201215020FFF7B1FE714B1B681B0281
:1017B0003B60042201215020FFF7A8FE6C4B1B6800
:1017C0003A6813433B603B686B4A136064200DF03A
:1017D0000FFB052201215020FFF798FE644B1B6888
:1017E0001B023B60062201215020FFF78FFE604B59
:1017F0001B683A6813433B603B68604A136064208F
:101800000DF0F6FA0B2201215020FFF77FFE584B16
:101810001B681B023B600C2201215020FFF776FE63
:10182000534B1B683A6813433B603B68544A136050
:1018300064200DF0DDFA0D2201215020FFF766FE35
:101840004B4B1B681B023B600E2201215020FFF70F
:101850005DFE474B1B683A6813433B603B68494A4F
:10186000136064200DF0C4FA0F2201215020FFF70D
:101870004DFE3F4B1B681B023B6010220121502094
:10188000FFF744FE3A4B1B683A6813433B603B68E2
:101890003D4A136064200DF0ABFA0722012150206D
:1018A000FFF734FE324B1B681B023B60082201210C
:1018B0005020FFF72BFE2E4B1B683A6813433B600A
:1018C0003B68324A136064200DF092FA092201212C
:1018D0005020FFF71BFE264B1B681B023B600A22B1
:1018E00001215020FFF712FE214B1B683A68134379
:1018F0003B603B68264A136064200DF079FA1122A0
:1019000001215020FFF702FE194B1B681B023B60B0
:10191000122201215020FFF7F9FD154B1B683A6890
:1019200013433B603B681B4A136064200DF060FA70
:10193000132201215020FFF7E9FD0D4B1B681B020C
:101940003B60142201215020FFF7E0FD084B1B688B
:101950003A6813433B603B680F4A136064200DF004
:1019600047FA7B681BB218460837BD4680BD00BFEA
:10197000701D00205019002044190020401900203B
:101980004C19002048190020541900203C1900204F
:1019900038190020581900205C19002080B500AFCC
:1019A000152201215020FFF7B1FD044B1B68044AAA
:1019B000136064200DF01CFA00BF80BD701D002074
:1019C0009C07002080B584B000AF0346FB80FB88F5
:1019D000FB810121094841F0BFFD0121074841F089
:1019E00019FE0021054841F015FE044841F078FC3D
:1019F000B7F90E3018461037BD4680BD005800407C
:101A000080B582B000AF78607B682C4A934208D1E1
:101A10000121102003F0C6F90021102003F0C2F9C3
:101A200047E07B68264A93420AD101214FF40030F7
:101A300003F098F900214FF4003003F093F938E0F7
:101A40007B68204A93420AD101214FF4802003F0A1
:101A500089F900214FF4802003F084F929E07B68A4
:101A6000194A93420AD101214FF4002003F07AF978
:101A700000214FF4002003F075F91AE07B68134A47
:101A800093420AD101214FF4801003F06BF9002139
:101A90004FF4801003F066F90BE07B680C4A934228
:101AA00007D10121202003F07DF90021202003F03F
:101AB00079F900BF0837BD4680BD00BF0010014066
:101AC0000044004000480040004C004000500040EE
:101AD0000014014080B58AB000AF786039600023FF
:101AE0007B6200233B620023FB610023BB617B68B8
:101AF0001B8A9BB27B627B6A23F440537B623B6808
:101B0000DB881A467B6A13437B627B6A9AB27B68E6
:101B10001A827B689B899BB27B627B6A23F4B053F9
:101B200023F00C037B623B689A883B681B89134354
:101B30009AB23B685B8913439BB21A467B6A134394
:101B40007B627B6A9AB27B689A817B689B8A9BB234
:101B50007B627B6A23F440737B623B689B891A46F5
:101B60007B6A13437B627B6A9AB27B689A8207F135
:101B70000803184602F0EEFF7B68304A934203D018
:101B80007B682F4A934202D17B693B6201E03B694B
:101B90003B627B689B899BB21BB2002B0CDA3A6AD2
:101BA00013469B0013449A001A443B681B685B0071
:101BB000B2FBF3F3FB610BE03A6A13469B0013445C
:101BC0009A001A443B681B689B00B2FBF3F3FB616D
:101BD000FB691C4AA2FB03235B091B017B627B6A36
:101BE0001B09642202FB03F3FA69D31ABB617B6809
:101BF0009B899BB21BB2002B0CDABB69DB00323332
:101C0000104AA2FB03235B0903F007037A6A13431C
:101C10007B620BE0BB691B0132330A4AA2FB032340
:101C20005B0903F00F037A6A13437B627B6A9AB203
:101C30007B681A8100BF2837BD4680BD0010014077
:101C4000001401401F85EB5180B483B000AF786071
:101C50000B46FB70FB78002B08D07B689B899BB2FE
:101C600043F400539AB27B689A8107E07B689B89B2
:101C70009BB223F400539AB27B689A8100BF0C3761
:101C8000BD465DF8047B704780B483B000AF7860D8
:101C90000B467B807B88C3F308039AB27B689A80EB
:101CA00000BF0C37BD465DF8047B704780B487B039
:101CB00000AF78600B467B8013467B7000233B614E
:101CC0000023FB600023BB6000237B617B687B619A
:101CD0007B88DBB25B09DBB23B617B8803F01F03CF
:101CE000FB600122FB6802FA03F3BB603B69012B36
:101CF00003D17B690C337B6109E03B69022B03D183
:101D00007B6910337B6102E07B6914337B617B78F4
:101D1000002B06D07B6919687B69BA680A431A6090
:101D200006E07B691968BB68DA437B690A401A6080
:101D300000BF1C37BD465DF8047B704780B485B09A
:101D400000AF78600B467B800023FB737B681B88A9
:101D50009AB27B8813409BB2002B02D00123FB7305
:101D600001E00023FB73FB7B18461437BD465DF88A
:101D7000047B704780B483B000AF78600B467B80F3
:101D80007B88DB439AB27B681A8000BF0C37BD4664
:101D90005DF8047B704780B487B000AF78600B4675
:101DA0007B800023FB6000237B610023BB6000235A
:101DB000FB747B88DBB25B09DBB2BB607B8803F022
:101DC0001F037B6101227B6902FA03F37B61BB681D
:101DD000012B07D17B689B899BB21A467B69134014
:101DE0007B6111E0BB68022B07D17B681B8A9BB229
:101DF0001A467B6913407B6106E07B689B8A9BB235
:101E00001A467B6913407B617B881B0A9BB2FB608F
:101E10000122FB6802FA03F3FB607B681B889BB21C
:101E20001A46FB681340FB607B69002B05D0FB68FA
:101E3000002B02D00123FB7401E00023FB74FB7C28
:101E400018461C37BD465DF8047B704780B500AF6F
:101E50000121042002F026FF254B10221A60244B9A
:101E600003221A71224B0022DA71214921480CF019
:101E70001BFD01214FF4007002F054FF1E4B0022A5
:101E80001A601D4B00225A601B4B00229A601A4BAD
:101E90000022DA60184807F0AFFD184B4FF00072CF
:101EA0001A60164B00221A71144B01225A71134BFF
:101EB00000229A60114B0022DA60104B00221A6156
:101EC0000E4B01221A750D490D4807F03FFD012107
:101ED0000B4807F0B9FD0121094807F0ABFE0023CC
:101EE00001220E21064807F0CBFD00BF80BD00BFD8
:101EF0009832002000080240143900201C290020DC
:101F00000021014080B500AF2C4807F083FE2B482C
:101F100007F0ACFE294807F0A9FE03461A46284BF5
:101F20001A60274B1B68232B07D9254B1B682A2BCC
:101F300003D8244B01221A803EE0214B1B68292B39
:101F400007D91F4B1B68302B03D81E4B02221A8067
:101F500032E01B4B1B68302B07D9194B1B68372B02
:101F600003D8184B03221A8026E0154B1B68422B1E
:101F700007D9134B1B68492B03D8124B04221A8034
:101F80001AE00F4B1B68572B07D90D4B1B685E2BB4
:101F900003D80C4B05221A800EE0094B1B68782BE6
:101FA00007D9074B1B687F2B03D8064B06221A80E4
:101FB00002E0044B00221A8000BF80BD00210140D6
:101FC000003800200C340020B0B500AF41F0E5FC33
:101FD0000021002041F0CFFC554A564B15461C46C7
:101FE0000FCC28606960AA60EB6023782B7450489E
:101FF00041F0ADFC0121052041F0BDFC4E4B1B889A
:102000001A464E494A4847F0C1F8494841F09FFCFA
:10201000494B1B88013B052B74D801A252F823F0D1
:102020003920000857200008752000089720000874
:10203000BD200008E32000080221002041F09BFCA5
:102040003B4A3F4B144607CB20606160A260384892
:1020500041F07DFC56E00221002041F08CFC344A26
:10206000384B144607CB20606160A260304841F0D5
:102070006EFC47E00221002041F07DFC2C4A324BEF
:1020800003CB1060516019889B78118193722848A6
:1020900041F05DFC36E00221002041F06CFC244A56
:1020A0002A4B15461C460FCC28606960AA60EB607D
:1020B00023782B741E4841F04AFC23E002210020C3
:1020C00041F059FC1A4A224B144607CB206061604C
:1020D000A2601A889B78A281A373154841F037FC4F
:1020E00010E00221002041F046FC114A194B144631
:1020F00007CB20606160A2601B88A3810C4841F07F
:1021000026FC00BF0321022041F035FC084A124B97
:10211000144607CB20606160A2601B7823730448DB
:1021200041F015FC64200CF063FE00BFB0BD00BFA1
:10213000501D002084D704080C34002098D70408D0
:10214000A0D70408ACD70408B8D70408C4D704083B
:10215000D8D70408E8D70408F8D7040880B500AF3A
:1021600000F004F800F022F800BF80BD80B500AF99
:102170000121102002F096FD0A4B20221A60094B23
:1021800000221A71074B00229A71064B03225A71E2
:10219000044B0222DA71034903480CF085FB00BFAF
:1021A00080BD00BF983200200010024080B500AF13
:1021B0000121102002F076FD154B40221A60144BCD
:1021C00000221A71124B00229A71114B03225A718C
:1021D0000F4B0222DA710E490E480CF065FB01210B
:1021E000102002F05FFD0A4B10221A60084B0022FB
:1021F0001A71074B00229A71054B03225A71044B46
:102200000222DA71024903480CF04EFB00BF80BD88
:10221000983200200010024080B483B000AF786094
:1022200000BF0C37BD465DF8047B704780B500AF3A
:102230000121082002F036FD0A4B02221A60094BE8
:1022400001221A71074B00229A71064B03225A7120
:10225000044B0022DA71034903480CF025FB00BF50
:1022600080BD00BF983200200000024080B500AF62
:102270000121102002F016FD0A4B01221A60094BC1
:1022800001221A71074B00229A71064B03225A71E0
:10229000044B0022DA71034903480CF005FB00BF30
:1022A00080BD00BF983200200010024080B500AF12
:1022B0000121012002F0F6FC0A4B20221A60094B92
:1022C00001221A71074B00229A71064B03225A71A0
:1022D000044B0022DA71034903480CF0E5FA00BF11
:1022E00080BD00BF983200200000024080B584B05D
:1022F00000AF0121082002F0F5FC42F2CF03BB80C1
:102300000023FB804FF47A73BB600023BB81002362
:10231000BB733B1D19460E4842F0BCFC01210C4822
:1023200042F044FD00220121094842F0C3FF32235C
:102330003B7000237B700023BB700123FB703B4686
:10234000184641F03DFB00BF1037BD4680BD00BFC1
:10235000000C004080B500AF0121354842F0CEFFAF
:102360000346002B61D0334B1B68002B3BD1324B13
:102370001B88002B04D1022130480CF04CFB50E0AC
:102380002D4B1B88002B4CD02D4B1B88012B07D1CC
:1023900002212A480CF030FB294B02221A800AE065
:1023A000274B1B88022B06D1022124480CF033FB5B
:1023B000234B01221A80204B1B8801339AB21E4BFB
:1023C0001A801D4B1B88B3F57A6F2AD302211B4854
:1023D0000CF021FB184B00221A8000220121144826
:1023E00042F068FF1DE0134B1B68012B19D1124B03
:1023F00000221A80124B1B88012B07D102210F48A3
:102400000CF0FAFA0E4B02221A800AE00C4B1B88E1
:10241000022B06D1022109480CF0FDFA084B0122DB
:102420001A800121024842F093FF00BF80BD00BF27
:10243000000C0040701400207C14002000000240BA
:102440006C000020B0B582B000AF786041F0A5FA12
:102450000021022041F08FFA214A224B03CB106069
:10246000516019889B78118193721D4841F06FFA71
:102470000121042041F07FFA194A1B4B03CB106065
:1024800051601B881381164841F061FA0221002037
:1024900041F071FA124A154B15461C460FCC2860C4
:1024A0006960AA60EB6023782B740D4841F04FFA05
:1024B0000321022041F05FFA094A0D4B144607CB75
:1024C00020606160A2601B782373054841F03FFAE9
:1024D00064200CF08DFC00BF0837BD46B0BD00BFC6
:1024E000501D002008D8040814D8040820D8040877
:1024F00034D8040880B582B000AF134B7B60134B17
:102500003B6007E07A68131D7B603B68191D3960EA
:1025100012681A603B680E4A9342F3D30D480E4985
:102520004FF000028842B8BF40F8042BFADBDFF816
:102530002C00016841F47001016000F0F1FF00BF60
:102540000837BD4680BD00BF200005080000002000
:102550008C1300208C1300203C62002088ED00E0EA
:1025600080B400AFFEE7000080B582B000AF01216B
:10257000042002F0B7FB0121082002F093FB394B45
:102580004FF470421A60374B02221A71354B032206
:102590005A71344B00229A71324B0122DA7131495F
:1025A00031480CF081F902220C212F480CF042FA3C
:1025B00002220D212C480CF03DFA02220E212A485D
:1025C0000CF038FA02220F2127480CF033FA54237A
:1025D000FB80264B44F61F625A60244AFB88138016
:1025E000224B00221A81214B00225A801F49204889
:1025F00042F050FB1F4B60221A801E4B01225A8072
:102600001C4B00229A601B4B00229A8119491848E2
:1026100042F0ECFB0821164842F0D8FD1549144859
:1026200042F05EFC0821124842F0ECFD11491048CE
:1026300042F0DEFC08210E4842F002FE0D490C4833
:1026400042F05CFD08210A4842F016FE01210848CC
:1026500042F08CFB0121064842F0A8FB00BF08377E
:10266000BD4680BD98320020000C0240B81D0020FD
:10267000000800401C2F002080B483B000AF7860B9
:1026800039607B68013B032B1AD801A252F823F072
:10269000A1260008A9260008B1260008B9260008CE
:1026A0000A4A3B6853630BE0084A3B68936307E0C0
:1026B000064A3B68D36303E0044A3B68136400BFE7
:1026C00000BF0C37BD465DF8047B70470008004032
:1026D000B0B582B000AF00237B6000233B6041F0C7
:1026E0005CF90021002041F046F9864A864B1546E8
:1026F0001C460FCC28606960AA60EB6023782B74BD
:10270000804841F024F90121002041F034F97D4A4C
:102710007E4B15461C460FCC28606960AA60EB60B2
:1027200023782B74774841F012F90221002041F000
:1027300022F9744A764B15461C460FCC2860696016
:10274000AA60EB6023782B746E4841F000F90321F6
:10275000002041F010F96B4A6E4B15461C460FCC19
:1027600028606960AA60EB6023782B74654841F0AB
:10277000EEF8202168480CF025F90346012B01D121
:1027800001237B607B68012B40F0B78000233B6016
:102790001CE03A6813469B00134403F51673194670
:1027A0000220FFF769FF3A6813469B079B1A9B00BC
:1027B0009B1A03F5166319460320FFF75DFF4FF4DC
:1027C0007A700CF0EFFA3B6801333B603B68B42B46
:1027D000DFDD00233B601CE03A6813469B00134496
:1027E00003F2DC5319460220FFF746FF3A6813460E
:1027F0009B079B1A9B009B1A03F2DC53194603208C
:10280000FFF73AFF4FF47A700CF0CCFA3B680133D3
:102810003B603B68782BDFDD01213F480CF0ECF892
:102820004FF47A700CF0E4FA00F096F820213A4860
:102830000CF0C8F80346002B04D1384B1B6818462F
:1028400041F0F4FF202134480CF0BCF80346012B82
:1028500000D0EBE700BF4FF4FA700CF0C9FA00F0BB
:1028600084F84FF4FA700CF0C3FA00233B601CE0CC
:102870003A6813469B079B1A9B009B1A03F6340386
:1028800019460220FFF7F8FE3A6813469B001344EE
:1028900003F5617319460320FFF7EEFE4FF4FA606B
:1028A0000CF080FA3B6801333B603B68782BDFDD3E
:1028B00000233B601CE03A6813469B079B1A9B0071
:1028C0009B1A03F2DC5319460220FFF7D5FE3A6843
:1028D00013469B00134403F2DC5319460320FFF711
:1028E000CBFE4FF4FA600CF05DFA3B6801333B60BD
:1028F0003B68B42BDFDD00237B6000BF0837BD469B
:10290000B0BD00BF501D002070D9040884D9040850
:10291000FCD90408ACD9040800100240F4050020DA
:1029200080B500AF40F29E710220FFF7A5FE40F295
:102930001A410320FFF7A0FE00BF80BD80B500AFA5
:102940004FF416710220FFF797FE4FF41661032033
:10295000FFF792FE00BF80BD80B500AF40F2DC51B2
:102960000420FFF789FE00BF80BD80B500AF40F6B0
:1029700002010420FFF780FE00BF80BDB0B586B025
:1029800000AF41F00AF80021002040F0F4FF924A25
:10299000924B15461C460FCC28606960AA60EB601C
:1029A00023782B748C4840F0D2FF0121002040F0A6
:1029B000E2FF894A8A4B15461C460FCC28606960A5
:1029C000AA60EB6023782B74834840F0C0FF02219B
:1029D000002040F0D0FF804A824B15461C460FCCA9
:1029E00028606960AA60EB6023782B747A4840F015
:1029F000AEFF0321002040F0BEFF774A7A4B154618
:102A00001C460FCC28606960AA60EB6023782B74A9
:102A1000714840F09CFF202174480BF0D3FF03461F
:102A2000012B00D0ADE700BF00237B6100237B6159
:102A300062E07A6913469B079B1A9B009B1A03F579
:102A4000166319460220FFF717FE7A6913469B00AA
:102A5000134403F5167319460320FFF70DFE4FF4D8
:102A6000FA600CF09FF930E07A6913469B079B1AD5
:102A70009B009B1A03F51663BB607A6913469B00A3
:102A8000134403F516737B6040F087FF002100209C
:102A900040F071FFBA6856494F4846F077FB4E4800
:102AA00040F055FF0121002040F065FF7A68514950
:102AB000494846F06BFB484840F049FF20214B480D
:102AC0000BF080FF0346012B12D07B691E2BCBD06D
:102AD0007B693C2BC8D07B695A2BC5D07B69782B8E
:102AE000C2D07B69962BBFD07B69B42BBCD000E0F1
:102AF00000BF7B6901337B617B69B42B99DD0023C7
:102B00007B6162E07A6913469B079B1A9B009B1AC4
:102B100003F2DC5319460220FFF7AEFD7A69134633
:102B20009B00134403F2DC5319460320FFF7A4FD76
:102B30004FF4FA600CF036F930E07A6913469B07DF
:102B40009B1A9B009B1A03F2DC533B617A69134684
:102B50009B00134403F2DC53FB6040F01EFF002196
:102B6000002040F008FF3A6921491B4846F00EFB5F
:102B7000194840F0ECFE0121002040F0FCFEFA680C
:102B80001C49154846F002FB134840F0E0FE2021A6
:102B900016480BF017FF0346012B12D07B691E2B42
:102BA000CBD07B693C2BC8D07B695A2BC5D07B69C5
:102BB000782BC2D07B69962BBFD07B69B42BBCD05D
:102BC00000E000BF7B6901337B617B69B42B99DD39
:102BD00000BF1837BD46B0BD501D002070D9040895
:102BE00084D9040810DA0408ACD9040800100240A3
:102BF00024DA040830DA0408B0B586B000AF40F03B
:102C0000CCFE0021002040F0B6FE924A924B1546C1
:102C10001C460FCC28606960AA60EB6023782B7497
:102C20008C4840F094FE0121002040F0A4FE894A27
:102C30008A4B15461C460FCC28606960AA60EB6081
:102C400023782B74834840F082FE0221002040F05C
:102C500092FE804A824B15461C460FCC2860696064
:102C6000AA60EB6023782B747A4840F070FE032151
:102C7000002040F080FE774A7A4B15461C460FCC68
:102C800028606960AA60EB6023782B74714840F07B
:102C90005EFE202174480BF095FE0346012B00D008
:102CA000ADE700BF00237B6100237B6162E07A69AE
:102CB00013469B00134403F5167319460220FFF7D1
:102CC000DBFC7A6913469B079B1A9B009B1A03F552
:102CD000166319460320FFF7CFFC4FF47A700CF00F
:102CE00061F830E07A6913469B00134403F51673CC
:102CF000BB607A6913469B079B1A9B009B1A03F5DE
:102D000016637B6040F049FE0021002040F033FE56
:102D1000BA6856494F4846F039FA4E4840F017FE17
:102D20000121002040F027FE7A685149494846F0C9
:102D30002DFA484840F00BFE20214B480BF042FE94
:102D40000346012B12D07B691E2BCBD07B693C2B19
:102D5000C8D07B695A2BC5D07B69782BC2D07B69E0
:102D6000962BBFD07B69B42BBCD000E000BF7B6941
:102D700001337B617B69B42B99DD00237B6162E0C9
:102D80007A6913469B00134403F2DC531946022070
:102D9000FFF772FC7A6913469B079B1A9B009B1AEC
:102DA00003F2DC5319460320FFF766FC4FF47A70F8
:102DB0000BF0F8FF30E07A6913469B00134403F2EE
:102DC000DC533B617A6913469B079B1A9B009B1A55
:102DD00003F2DC53FB6040F0E0FD0021002040F0F6
:102DE000CAFD3A6921491B4846F0D0F9194840F01C
:102DF000AEFD0121002040F0BEFDFA681C491548D7
:102E000046F0C4F9134840F0A2FD202116480BF00B
:102E1000D9FD0346012B12D07B691E2BCBD07B69D9
:102E20003C2BC8D07B695A2BC5D07B69782BC2D08C
:102E30007B69962BBFD07B69B42BBCD000E000BF70
:102E40007B6901337B617B69B42B99DD00BF183747
:102E5000BD46B0BD501D002070D9040884D90408B7
:102E60003CDA0408ACD904080010024024DA040853
:102E700030DA0408B0B500AF40F08FFD002100202B
:102E800040F079FD7E4A7F4B15461C460FCC2860EA
:102E90006960AA60EB6023782B74794840F057FD95
:102EA0000121002040F067FD754A774B15461C460E
:102EB0000FCC28606960AA60EB6023782B7470489F
:102EC00040F045FD0221002040F055FD6C4A6F4B5B
:102ED00015461C460FCC28606960AA60EB60237819
:102EE0002B74674840F033FD0321002040F043FD80
:102EF000634A674B15461C460FCC28606960AA6080
:102F0000EB6023782B745E4840F021FD202161485E
:102F10000BF058FD0346012B00D0ADE700BF4FF486
:102F200061710420FFF7A8FB40F037FD002100206D
:102F300040F021FD4FF461725749514846F026F99F
:102F40004F4840F004FD202152480BF03BFD034662
:102F5000012B00D0E8E700BF4FF496610420FFF793
:102F60008BFB40F01AFD0021002040F004FD4FF4DF
:102F700096624A49424846F009F9414840F0E7FC68
:102F8000202144480BF01EFD0346012B00D0E8E74A
:102F900000BF40F2DC510420FFF76EFB40F0FDFC67
:102FA0000021002040F0E7FC40F2DC523C4934486C
:102FB00046F0ECF8324840F0CAFC202135480BF0CE
:102FC00001FD0346012B00D0E8E700BF4FF4E161AB
:102FD0000420FFF751FB40F0E0FC0021002040F00E
:102FE000CAFC4FF4E1622F49254846F0CFF8244847
:102FF00040F0ADFC202127480BF0E4FC0346012BF8
:1030000000D0E8E700BF40F634010420FFF734FBAE
:1030100040F0C3FC0021002040F0ADFC40F634023B
:103020002149174846F0B2F8154840F090FC20219D
:1030300018480BF0C7FC0346012B00D0E8E700BF9F
:103040004FF416610420FFF717FB40F0A6FC0021A7
:10305000002040F090FC4FF416621449084846F0F6
:1030600095F8074840F073FC20210A480BF0AAFCB1
:103070000346012B00D0E8E700BF00BFB0BD00BF92
:10308000501D002070D9040884D9040850DA0408BF
:10309000ACD904080010024064DA040870DA0408AD
:1030A0007CDA040888DA040898DA0408A8DA040844
:1030B000B0B500AF40F071FC0021002040F05BFC97
:1030C0007E4A7F4B15461C460FCC28606960AA607B
:1030D000EB6023782B74794840F039FC0121002003
:1030E00040F049FC754A774B15461C460FCC2860CA
:1030F0006960AA60EB6023782B74704840F027FC6D
:103100000221002040F037FC6C4A6F4B15461C46EC
:103110000FCC28606960AA60EB6023782B74674845
:1031200040F015FC0321002040F025FC634A674B6A
:1031300015461C460FCC28606960AA60EB602378B6
:103140002B745E4840F003FC202161480BF03AFCF0
:103150000346012B00D0ADE700BF4FF416610420F9
:10316000FFF78AFA40F019FC0021002040F003FC30
:103170004FF416625749514846F008F84F4840F05E
:10318000E6FB202152480BF01DFC0346012B00D02A
:10319000E8E700BF40F634010420FFF76DFA40F085
:1031A000FCFB0021002040F0E6FB40F634024A49D7
:1031B000424845F0EBFF414840F0C9FB202144481C
:1031C0000BF000FC0346012B00D0E8E700BF4FF4F2
:1031D000E1610420FFF750FA40F0DFFB00210020FE
:1031E00040F0C9FB4FF4E1623C49344845F0CEFF62
:1031F000324840F0ACFB202135480BF0E3FB03469E
:10320000012B00D0E8E700BF40F2DC510420FFF7BB
:1032100033FA40F0C2FB0021002040F0ACFB40F24A
:10322000DC522F49254845F0B1FF244840F08FFB80
:10323000202127480BF0C6FB0346012B00D0E8E70E
:1032400000BF4FF496610420FFF716FA40F0A5FB8B
:103250000021002040F08FFB4FF49662214917486F
:1032600045F094FF154840F072FB202118480BF000
:10327000A9FB0346012B00D0E8E700BF4FF46171C2
:103280000420FFF7F9F940F088FB0021002040F00E
:1032900072FB4FF461721449084845F077FF074804
:1032A00040F055FB20210A480BF08CFB0346012B14
:1032B00000D0E8E700BF00BFB0BD00BF501D002038
:1032C00070D9040884D90408B8DA0408ACD9040811
:1032D00000100240A8DA040898DA040888DA040822
:1032E0007CDA040870DA040864DA040880B582B075
:1032F00000AF00237B6000237B601CE07A681346EC
:103300009B00134403F5167319460220FFF7B4F926
:103310007A6813469B079B1A9B009B1A03F516635A
:1033200019460320FFF7A8F94FF47A700BF03AFD25
:103330007B6801337B607B68B42BDFDD00237B601F
:103340001CE07A6813469B00134403F2DC531946D1
:103350000220FFF791F97A6813469B079B1A9B009E
:103360009B1A03F2DC5319460320FFF785F94FF44B
:103370007A700BF017FD7B6801337B607B68962BBE
:10338000DFDD00BF0837BD4680BD80B582B000AF2D
:1033900000237B6000237B601CE07A6813469B0758
:1033A0009B1A9B009B1A03F6CA0319460220FFF7DB
:1033B00063F97A6813469B00134403F2EE2319461F
:1033C0000320FFF759F940F6C4100BF0EBFC7B68C3
:1033D00001337B607B68782BDFDD00237B601CE0A2
:1033E0007A6813469B079B1A9B009B1A03F2DC53D7
:1033F00019460220FFF740F97A6813469B001344F0
:1034000003F2DC5319460320FFF736F940F6C410E7
:103410000BF0C8FC7B6801337B607B68B42BDFDD7D
:1034200000BF0837BD4680BD80B582B000AF002325
:103430007B6000237B601CE07A6813469B079B1A25
:103440009B009B1A03F6CA0319460220FFF714F9E2
:103450007A6813469B00134403F2EE2319460320B7
:10346000FFF70AF940F6C4100BF09CFC7B680133AF
:103470007B607B685A2BDFDD00BF0837BD4680BD0F
:1034800080B582B000AF00237B6000237B601CE02E
:103490007A6813469B079B1A9B009B1A03F5E1630E
:1034A00019460220FFF7E8F87A6813469B00134498
:1034B00003F5966319460320FFF7DEF840F6C410C3
:1034C0000BF070FC7B6801337B607B683C2BDFDD9D
:1034D00000237B601CE07A6813469B079B1A9B00C5
:1034E0009B1A03F2DC5319460220FFF7C5F87A68ED
:1034F00013469B00134403F2DC5319460320FFF7E5
:10350000BBF840F6C4100BF04DFC7B6801337B60C8
:103510007B68B42BDFDD00BF0837BD4680BD0000EF
:10352000B0B58AB004AF00F0C1FE4FF4FA700BF0F2
:103530005FFC40F032FABD4B1B68DBB21D221C2140
:103540001846FCF72BFFBA4B1B68DBB21D221C216F
:103550001846FCF723FFB74B1B68DBB21D221C216A
:103560001846FCF71BFFB14B1B68DBB23021184635
:10357000FCF76CFFAE4B1B68DBB231211846FCF741
:1035800065FFAC4B1B68DBB230211846FCF75EFFD1
:103590000A200BF02DFCA84B1B68DBB21D221C215E
:1035A0001846FCF7FBFEA54B1B68DBB21D221C2155
:1035B0001846FCF7F3FEA24B1B68DBB21D221C2150
:1035C0001846FCF7EBFE9C4B1B68DBB2302118461B
:1035D000FCF73CFF994B1B68DBB231211846FCF726
:1035E00035FF974B1B68DBB230211846FCF72EFFE6
:1035F0000A200BF0FDFB934B1B68DBB21D221C2144
:103600001846FCF7CBFE904B1B68DBB21D221C2139
:103610001846FCF7C3FE874B1B68DBB21D221C213A
:103620001846FCF7BBFE874B1B68DBB230211846FF
:10363000FCF70CFF844B1B68DBB231211846FCF70A
:1036400005FF824B1B68DBB230211846FCF7FEFEFB
:103650000A200BF0CDFB7E4B1B68DBB21D221C2128
:103660001846FCF79BFE7B4B1B68DBB21D221C211E
:103670001846FCF793FE784B1B68DBB21D221C2119
:103680001846FCF78BFE724B1B68DBB230211846E4
:10369000FCF7DCFE6F4B1B68DBB231211846FCF7F0
:1036A000D5FE6D4B1B68DBB230211846FCF7CEFE11
:1036B0000A200BF09DFB694B1B68DBB21D221C210D
:1036C0001846FCF76BFE664B1B68DBB21D221C2103
:1036D0001846FCF763FE634B1B68DBB220221C21FB
:1036E0001846FCF75BFE5D4B1B68DBB230211846C9
:1036F000FCF7ACFE5A4B1B68DBB231211846FCF7D5
:10370000A5FE584B1B68DBB230211846FCF79EFE25
:103710000A200BF06DFB544B1B68DBB21D221C21F1
:103720001846FCF73BFE514B1B68DBB21D221C21E7
:103730001846FCF733FE4E4B1B68DBB21D221C21E2
:103740001846FCF72BFE484B1B68DBB230211846AD
:10375000FCF77CFE454B1B68DBB231211846FCF7B9
:1037600075FE434B1B68DBB230211846FCF76EFE3A
:103770000A200BF03DFB3F4B1B68DBB220222021CF
:103780001846FCF70BFE3B4B1B68DBB220211846AA
:10379000FCF75CFE0A200BF02BFB374B1B68DBB2FF
:1037A000202220211846FCF7F9FD344B1B68DBB2C0
:1037B000202220211846FCF7F1FD2F4B1B68DBB2BD
:1037C00020211846FCF742FE2C4B1B68DBB220215F
:1037D0001846FCF73BFE0A200BF00AFBF52006F02A
:1037E000A1F80A200BF004FB012125480BF013F986
:1037F000FFF7BBF8FFF7A2F864200BF0F9FA0021FD
:10380000002040F0B8F81F4A1F4B03CB10605160F6
:103810001B8813811B4840F09AF801214FF49670E1
:1038200013F008FE4FF4FA7030E000BFD4D504085E
:10383000D8D50408DCD50408B0D50408B4D50408EC
:10384000B8D50408E0D50408E4D50408E8D5040890
:10385000BCD50408C0D50408C4D50408ECD50408B8
:10386000F0D50408F4D50408C8D50408CCD504085C
:10387000D0D5040800D60408F8D50408FCD50408FF
:1038800000100240501D0020CCDA04080BF0B0FA02
:1038900001233B613B69012B12D1202135480BF0FC
:1038A000ABF8022133480BF0A7F8C8200BF0A0FAC0
:1038B000022130480BF0AFF820212E480BF0ABF876
:1038C00009F046F83B69002B72D100F0C7FD7C205F
:1038D00001F088FA0346002B13D040F05EF8002177
:1038E000002040F048F8244B244A10681860224811
:1038F00040F02DF801F0B0FA4FF47A700BF078FA3E
:1039000056E07B2001F06EFA0346002B17D040F002
:1039100044F80021002040F02EF8174B184A106898
:1039200018609188927999809A71134840F00FF845
:1039300001F092FA4FF47A700BF05AFA38E07A20DC
:1039400001F050FA0346002B1ED040F026F800216B
:10395000002040F010F8084B0A4A1068186006482A
:103960003FF0F5FF01F078FA4FF47A700BF040FA6F
:103970001EE000BF00000240501D0020D8DA0408FD
:10398000DCDA0408E4DA040840F007F8002100203B
:103990003FF0F1FF964A974B03CB106051601B78C4
:1039A000137293483FF0D3FF4FF47A700BF020FA74
:1039B000FDF7F4FFFDF7D6FE0346002B48D03FF09D
:1039C000ECFF002100203FF0D6FF894A8A4B1446C5
:1039D00007CB20606160A2601A889B78A281A373E4
:1039E00083483FF0B4FF854B40F23B121A60844B92
:1039F000AD221A60834B4FF488721A60824BCE223C
:103A00001A60824B81221A60814B4FF4B3721A60A4
:103A1000804BEE221A60804B3B221A607F4B46227D
:103A20001A607F4BF2221A607E4B8D221A607E4B09
:103A3000DD221A607D4B57221A607D4B0B221A60E3
:103A40007C4B4FF4AB721A607B4B4FF49E721A6042
:103A50007A4B1B68002B02DC784B0B221A60674BF9
:103A60001A68674B1B6813445B08754A136001238F
:103A7000FB60FB68012B4BD13FF08FFF0021002042
:103A80003FF079FF5A4A6F4B144607CB20606160C4
:103A9000A2601B78237356483FF059FF6A4BA62259
:103AA0001A606A4B4FF4A7721A60694B56221A606B
:103AB000684B40F21B121A60674BA6221A60674BD4
:103AC0004FF4A7721A60664B56221A60654B40F29B
:103AD0001B121A60644BB3221A60644B4FF4A77236
:103AE0001A60634B5F221A60624B40F21B121A602D
:103AF000614BB1221A60614B4FF4A7721A60604BA0
:103B000062221A605F4B40F21B121A6040F0FEFC0A
:103B10003FF043FF0023BB6000237B607B68012BE9
:103B200040F0FC807B68012B40F0F88001210020F0
:103B30003FF021FF544B1C68534B5D68524B9B6810
:103B4000514AD268504909694F484069039002912F
:103B5000019200932B4622464C49254845F016FB1E
:103B600023483FF0F4FE022100203FF004FF484BC1
:103B70001C68474B5D68464B9B68454AD268444980
:103B800009694348406903900291019200932B46D2
:103B900022463E49164845F0F9FA15483FF0D7FE4F
:103BA000032100203FF0E7FE3A4B1C68394B5D686B
:103BB000384B9B68374AD2683649096935484069AD
:103BC00003900291019200932B4622462F49084808
:103BD00045F0DCFA06483FF0BAFEFEE720212E4809
:103BE0000AF0F0FE0346012B58D101237B619DE0D2
:103BF000501D0020E8DA0408F4DA0408381900201F
:103C00003C190020401900204419002048190020C8
:103C10004C19002050190020541900205819002078
:103C20005C19002060190020641900207019002020
:103C3000681900206C190020741900209C070020CE
:103C40004C28002004DB0408941800209818002059
:103C50009C180020A0180020A4180020B0180020F4
:103C6000BC180020C8180020D4180020E01800203C
:103C7000EC180020F818002004190020101900206A
:103C80001C19002028190020C020002014DB040883
:103C90003036002070220020001002404021994858
:103CA0000AF090FE0346012B11D100BF4021954838
:103CB0000AF088FE0346012BF8D0934B1B68002BBB
:103CC0000CBF01230023DBB21A468F4B1A60102170
:103CD0008C480AF077FE0346012B11D100BF10215A
:103CE00088480AF06FFE0346012BF8D0874B1B680B
:103CF000002B0CBF01230023DBB21A46834B1A6052
:103D0000FEF700F9FEF760F920217E480AF05AFE1E
:103D10000346012B02D101237B6107E02021794872
:103D20000AF050FE0346002B3FF458AF202175489F
:103D30000AF048FE0346012B01D101237B610121DA
:103D400073480AF03FFE0346002B01D101233B607C
:103D50007B69012B46D13FF020FE002105203FF07A
:103D60000AFE6C4A6C4B03CB1060516019889B783B
:103D70001181937267483FF0EAFD012104203FF072
:103D8000FAFD644A654B03CB106051601B881381B8
:103D900060483FF0DCFD022100203FF0ECFD5D4A71
:103DA0005F4B15461C460FCC28606960AA60EB602B
:103DB00023782B7457483FF0CAFD032100203FF0C1
:103DC000DAFD544A574B15461C460FCC28606960F3
:103DD000AA60EB6023782B744E483FF0B8FD642056
:103DE0000BF006F8504B1B88062B00F2408201A214
:103DF00052F823F06F420008113E0008D93E000837
:103E0000413F0008E5410008F94100080D42000863
:103E10003FF0C3FD002100203FF0ADFD3D4A434B84
:103E200015461C460FCC28606960AA60EB602378B9
:103E30002B7438483FF08BFD012100203FF09BFDA3
:103E4000344A3B4B15461C460FCC28606960AA607B
:103E5000EB6023782B742F483FF079FD022100207E
:103E60003FF089FD2B4A334B15461C460FCC28608A
:103E70006960AA60EB6023782B7426483FF067FDE9
:103E8000032100203FF077FD224A2B4B15461C46AC
:103E90000FCC28606960AA60EB6023782B741D4802
:103EA0003FF055FD64200AF0A3FF02F0CDFD012193
:103EB000DC2013F0BFFA012112480AF09DFD4FF4F7
:103EC000FA700AF095FF01210E480AF0A4FD4FF4A4
:103ED000FA700AF08DFFEAE7184B1B68DBB2184650
:103EE00001F032F8104B1B881846FEF7ABFA03F0CE
:103EF0001BFB202106480AF08EFD0121DC2013F077
:103F000099FAF6E700100240EC050020F0050020C9
:103F100000000240501D002024DB040830DB0408B0
:103F20003CDB040850DB04080C34002064DB04088C
:103F300078DB04088CDB0408A0DB04080C150020E7
:103F4000CD4B1B881846FEF77DFA3FF026FD002179
:103F500000203FF010FDC94AC94B15461C460FCC46
:103F600028606960AA60EB6023782B74C3483FF037
:103F7000EEFC012100203FF0FEFCC04AC14B15467B
:103F80001C460FCC28606960AA60EB6023782B7414
:103F9000BA483FF0DCFC022100203FF0ECFCB74ABD
:103FA000B94B15461C460FCC28606960AA60EB60CF
:103FB00023782B74B1483FF0CAFC08F0C9FCB34B1E
:103FC0001B68B34A13603FF0E8FC002100203FF07B
:103FD000D2FCAA4AAA4B15461C460FCC2860696041
:103FE000AA60EB6023782B74A4483FF0B0FC012159
:103FF00000203FF0C0FCA14AA24B15461C460FCC46
:1040000028606960AA60EB6023782B749B483FF0BE
:104010009EFC022100203FF0AEFC984A9D4B1546C5
:104020001C460FCC28606960AA60EB6023782B7473
:1040300092483FF08CFC09F051F9202196480AF093
:10404000C1FC0346012B41D100BF202192480AF058
:10405000B9FC0346012BF8D0C8200AF0C9FE0AF0CB
:10406000AFFA00BF20218C480AF0ACFC0346012BBC
:10407000F8D0C8200AF0BCFE0AF01EFB00BF2021C9
:1040800085480AF09FFC0346012BF8D0C8200AF0AF
:10409000AFFE0AF08DFB00BF20217F480AF092FCA2
:1040A0000346012BF8D0C8200AF0A2FE4FF4967008
:1040B00013F07CF84FF47A700AF09AFE4FF47A709D
:1040C00003F0BEF84FF4967013F070F808F040FC5F
:1040D000102171480AF076FC0346012B3CD100BF49
:1040E00020216D480AF06EFC0346012BF8D0C82051
:1040F0000AF07EFE0AF0F0F800BF202166480AF0C0
:1041000061FC0346012BF8D0C8200AF071FE0AF0CA
:104110005FF900BF202160480AF054FC0346012BE0
:10412000F8D0C8200AF064FE0AF0CEF900BF2021C2
:1041300059480AF047FC0346012BF8D0C8200AF082
:1041400057FE08F019F90121DC2013F073F9534BE5
:104150001B68534A136036E740214F480AF032FC8F
:104160000346012B7FF42FAF00BF20214A480AF0FD
:1041700029FC0346012BF8D0C8200AF039FE09F0CB
:104180003FFF00BF202144480AF01CFC0346012BDE
:10419000F8D0C8200AF02CFE09F0AAFF00BF2021A9
:1041A0003D480AF00FFC0346012BF8D0C8200AF066
:1041B0001FFE0AF015F800BF202137480AF002FC64
:1041C0000346012BF8D0C8200AF012FE642002F04A
:1041D00075FD0121DC2013F02DF9304B1B68304AAE
:1041E0001360F0E6244B1B881846FEF72BF93FF0CE
:1041F000D4FB41F0BFF8FCE71F4B1B881846FEF7C5
:1042000021F93FF0CAFB02F08DFCFCE71A4B1B883A
:104210001846FEF717F93FF0C0FB002101203FF0E0
:10422000AAFB164A1F4B144607CB20606160A260B0
:104230001A889B78A281A37310483FF088FB012164
:1042400001203FF098FB0D4A174B144607CB206026
:104250006160A2601B88A38108483FF078FB64205E
:104260000AF0C6FD3FF099FB01F00AF8FCE70023D5
:1042700018461837BD46B0BD0C340020501D002034
:10428000B4DB0408C8DB0408DCDB0408F8130020F6
:1042900040000020F0DB040800100240F01700206E
:1042A000A822002004DC040814DC040898B500AF40
:1042B0000AF00AFC0AF048FD05F0BCF932200AF0C9
:1042C00097FD3FF036FB3FF06EFB3FF066FB3FF0A3
:1042D00064FB002102203FF04EFB594A594B03CBAF
:1042E0001060516019889B781181937254483FF097
:1042F0002EFB012105203FF03EFB514B524A106836
:1043000018609188927999809A714D483FF01FFB0F
:10431000022101203FF02FFB494A4C4B144607CBAA
:1043200020606160A2601A889B78A281A3734448D0
:104330003FF00DFB032101203FF01DFB404A444BA1
:10434000144607CB20606160A2601A889B78A28126
:10435000A3733B483FF0FBFA4FF4FA700AF048FDB4
:104360003FF090FB40F004FA3A48FCF71BFA39485A
:10437000FCF784FC4FF4E13000F07EFD3548FBF79C
:1043800023FFFDF7EBFEFDF751FFFDF7AFFFFDF754
:104390005DFDFDF7B7FDFDF769FFFDF787FFFEF750
:1043A000E3F808F0D5FA09F097FD05F0AFFC05F049
:1043B00021F93FF0F2FA002102203FF0DCFA204A16
:1043C000204B03CB1060516019889B781181937248
:1043D0001B483FF0BCFA012105203FF0CCFA184BF6
:1043E000194A106818609188927999809A711448D6
:1043F0003FF0ADFA022101203FF0BDFA104A134B05
:10440000144607CB20606160A2601A889B78A28165
:10441000A3730B483FF09BFA032103203FF0ABFA54
:10442000074A0D4B03CB106051601B881381044871
:104430003FF08DFA32200AF0DBFC00BF98BD00BFD0
:10444000501D002024DB040824DC04082CDC0408B4
:104450003CDC040840420F004CDC0408B0B582B0DC
:1044600000AFA84B00221A603FF097FA002102200B
:104470003FF081FAA44AA54B03CB10605160198824
:104480009B7811819372A0483FF061FA01210220CC
:104490003FF071FA9C4A9E4B144607CB2060616046
:1044A000A2601B78237398483FF051FA4FF4FA70DA
:1044B0000AF09EFC3FF071FA002102203FF05BFA07
:1044C000914A924B03CB1060516019889B781181FF
:1044D00093728D483FF03BFA012103203FF04BFAE5
:1044E000894A8C4B03CB1060516019889B781181ED
:1044F000937285483FF02BFA4FF4FA700AF078FC7B
:104500003FF04BFA844B9B68FD2B03D0824B9B689A
:10451000002B0AD17B4B1B68804A012142F82310F3
:10452000784B1B680133774A13607B4B1B6AFD2B6A
:1045300003D0794B1B6A002B0AD1724B1B68774A58
:10454000022142F823106F4B1B6801336D4A136040
:10455000714B5B68FD2B03D06F4B5B68002B0AD15E
:10456000684B1B686D4A032142F82310654B1B689A
:104570000133644A1360684B1B68FD2B03D0664B04
:104580001B68002B0AD15F4B1B68644A042142F868
:1045900023105C4B1B6801335A4A13605E4B1B6946
:1045A000FD2B03D05C4B1B69002B0AD1554B1B68BC
:1045B0005A4A052142F82310524B1B680133514AD5
:1045C0001360554BDB68FD2B03D0534BDB68002B8E
:1045D0000AD14C4B1B68514A062142F82310494B23
:1045E0001B680133474A13604B4BDB69FD2B03D03B
:1045F000494BDB69002B0AD1424B1B68474A072114
:1046000042F823103F4B1B6801333E4A1360424B74
:104610009B69FD2B03D0404B9B69002B0AD1394B82
:104620001B683E4A082142F82310364B1B680133B1
:10463000344A1360334B1B68002B40F3098200237C
:104640007B60FFE1354A7B6852F82330082B00F28B
:10465000F68101A252F823F0CB4900087D460008FC
:10466000DD4600086F470008CF47000833480008C0
:104670009B48000803490008694900083FF08DF98C
:10468000002100203FF077F91F4A254B144607CB45
:1046900020606160A2601C483FF059F90DE00121E3
:1046A00000203FF068F9184A1E4B03CB10605160A0
:1046B0001B88138114483FF04AF920211A480AF058
:1046C00081F90346002B40F09481134B9B68002B2B
:1046D000E5D0114B9B68FD2BE1D08AE13FF05DF9FD
:1046E000002100203FF047F9074A104B03CB106030
:1046F000516019889B781181937203483FF027F924
:1047000024E000BF04150020501D002024DB040815
:1047100058DC040868DC0408A0140020E41400201D
:1047200074DC040880DC0408001002408CDC0408FF
:10473000012100203FF01FF9B54AB64B03CB1060B2
:1047400051601B881381B2483FF001F92021B24823
:104750000AF038F90346002B40F04D81AF4B1B6A3D
:10476000002BE5D0AD4B1B6AFD2BE1D043E13FF0C0
:1047700014F9002100203FF0FEF8A54AA84B14468A
:1047800007CB20606160A260A1483FF0E0F80DE037
:10479000012100203FF0EFF89D4A9E4B03CB1060B3
:1047A00051601B8813819A483FF0D1F820219A4824
:1047B0000AF008F90346002B40F01F81974B5B6815
:1047C000002BE5D0954B5B68FD2BE1D015E13FF068
:1047D000E4F8002100203FF0CEF88D4A914B03CB46
:1047E0001060516019889B781181937288483FF05E
:1047F000AEF80DE0012100203FF0BDF8844A854B62
:1048000003CB106051601B88138181483FF09FF8F3
:10481000202181480AF0D6F80346002B40F0EF80B3
:104820007E4B1B68002BE5D07C4B1B68FD2BE1D039
:10483000E5E03FF0B2F8002100203FF09CF8744A18
:10484000794B15461C460FCC28606960AA60EB6066
:1048500023882B826E483FF07AF80DE0012100207A
:104860003FF089F86A4A6B4B03CB106051601B889C
:10487000138167483FF06BF8202167480AF0A2F8DF
:104880000346002B40F0BD80644B1B69002BE5D034
:10489000624B1B69FD2BE1D0B3E03FF07EF80021B5
:1048A00000203FF068F85A4A604B15461C460FCC72
:1048B00028606960AA60EB6023782B7454483FF04D
:1048C00046F80DE0012100203FF055F8504A514BC9
:1048D00003CB106051601B8813814D483FF037F8BF
:1048E00020214D480AF06EF80346002B40F08B80E3
:1048F0004A4BDB68002BE5D0484BDB68FD2BE1D051
:1049000081E03FF04AF8002100203FF034F8404AAF
:10491000474B15461C460FCC28606960AA60EB60C7
:1049200023782B743A483FF012F80DE00121002063
:104930003FF021F8364A374B03CB106051601B889B
:10494000138133483FF003F8202133480AF03AF846
:104950000346002B59D1314BDB69002BE6D02F4B9E
:10496000DB69FD2BE2D050E03FF017F8002100207A
:104970003FF001F8264A2F4B14461D460FCD20600C
:104980006160A260E36022483EF0E1FF0DE001219A
:1049900000203EF0F0FF1E4A1E4B03CB106051601A
:1049A0001B8813811A483EF0D2FF20211A480AF0D2
:1049B00009F80346002B41D1184B9B69002BE6D028
:1049C000164B9B69FD2BE2D038E03EF0E6FF00215C
:1049D00006203EF0D0FF0E4B174A1068186012797F
:1049E0001A710B483EF0B3FF4FF47A700AF000FAE8
:1049F00025E000BF23E000BF21E000BF1FE000BFB3
:104A00001DE000BF1BE000BF19E000BF17E000BFC2
:104A1000501D002080DC040800100240A01400207B
:104A200098DC0408A4DC0408B0DC0408C4DC040836
:104A3000D8DC0408ECDC0408FCDC040800BF7B685C
:104A400001337B603A4B1B687A689A42FFF6FAADF5
:104A50003EF0A3FF002100203EF08DFF354A364B8B
:104A600003CB1060516019889B7811819372314893
:104A70003EF06DFF012100203EF07DFF2D4A2F4BBF
:104A8000144607CB20606160A2602A483EF05FFFB9
:104A90002B4B1B68012B16D13EF07FFF002100201D
:104AA0003EF069FF234A274B144607CB2060616024
:104AB000A2601B88A3811F483EF049FF4FF47A7023
:104AC0000AF096F929E03EF068FF002100203EF050
:104AD00052FF184A1C4B144607CB20606160A2604D
:104AE00014483EF034FF0DE0012100203EF043FF6A
:104AF000104A164B03CB106051601B8813810D4880
:104B00003EF025FF2021124809F05CFF0346002BF0
:104B100003D10B4B1B68002BE6D03FF01FFA4FF47C
:104B20007A700AF065F900BF0837BD46B0BD00BF16
:104B300004150020501D002024DB040804DD0408B7
:104B40000815002010DD040820DD040880DC0408BE
:104B50000010024080B489B000AF78600023BB61D0
:104B600000237B610023FB6102233B610023FB6088
:104B70000223BB60474B9B6803F00C03BB61BB691E
:104B8000042B07D0082B09D0002B3DD17B68424A6B
:104B90001A603DE07B68414A1A6039E03D4B5B6832
:104BA0009B0D03F00103FB603A4B5B6803F03F038E
:104BB000BB60FB68002B0CD0384ABB68B2FBF3F338
:104BC000344A52689209C2F3080202FB03F3FB6104
:104BD0000BE0314ABB68B2FBF3F32E4A52689209EC
:104BE000C2F3080202FB03F3FB612A4B5B681B0C58
:104BF00003F0030301335B003B61FA693B69B2FBDD
:104C0000F3F27B681A6003E07B68234A1A6000BFF6
:104C1000204B9B6803F0F003BB61BB691B09BB61C0
:104C20001F4ABB6913441B78DBB27B617B681A683F
:104C30007B69DA407B685A60164B9B6803F4E0534B
:104C4000BB61BB699B0ABB61154ABB6913441B78F6
:104C5000DBB27B617B685A687B69DA407B689A606B
:104C60000C4B9B6803F46043BB61BB695B0BBB618E
:104C70000B4ABB6913441B78DBB27B617B685A68C3
:104C80007B69DA407B68DA6000BF2437BD465DF897
:104C9000047B7047003802400024F40000127A00C0
:104CA000AC09002080B483B000AF78600B46FB7085
:104CB000FB78002B06D00A4B1A6B09497B6813431B
:104CC0000B6306E0064B1A6B7B68DB430449134019
:104CD0000B6300BF0C37BD465DF8047B704700BF17
:104CE0000038024080B483B000AF78600B46FB70A0
:104CF000FB78002B06D00A4B1A6C09497B681343DA
:104D00000B6406E0064B1A6C7B68DB4304491340D6
:104D10000B6400BF0C37BD465DF8047B704700BFD5
:104D20000038024080B483B000AF78600B46FB705F
:104D3000FB78002B06D00A4B5A6C09497B68134359
:104D40004B6406E0064B5A6C7B68DB430449134016
:104D50004B6400BF0C37BD465DF8047B704700BF55
:104D60000038024080B483B000AF78600B46FB701F
:104D7000FB78002B06D00A4B1A6A09497B6813435B
:104D80000B6206E0064B1A6A7B68DB43044913405A
:104D90000B6200BF0C37BD465DF8047B704700BF57
:104DA0000038024080B483B000AF78600B46FB70DF
:104DB000FB78002B06D00A4B5A6A09497B681343DB
:104DC0004B6206E0064B5A6A7B68DB43044913409A
:104DD0004B6200BF0C37BD465DF8047B704700BFD7
:104DE0000038024080B487B000AF0346FB71002357
:104DF000FB6000237B610023FB74FB795B09DBB262
:104E0000FB60FB68012B03D1124B1B687B6109E03F
:104E1000FB68022B03D10F4B1B6F7B6102E00D4B34
:104E20005B6F7B61FB7903F01F03FB607A69FB68B2
:104E300022FA03F303F00103002B02D00123FB74D9
:104E400001E00023FB74FB7C18461C37BD465DF86F
:104E5000047B70470038024080B400AF054B5B6FA5
:104E6000044A43F08073536700BFBD465DF8047B7E
:104E7000704700BF0038024080B582B000AF786054
:104E800001214FF48020FFF72DFF01210820FFF7BB
:104E900009FF284B4FF440721A60264B02221A7108
:104EA000244B02225A71234B00229A71214B01227A
:104EB000DA712049204809F0F7FC072208211E4832
:104EC00009F0B8FD072209211B4809F0B3FD1B4A70
:104ED0007B681360194B00229A80184B0022DA80FD
:104EE000164B00221A81154B00229A81134B0C227B
:104EF0005A8112491248FCF7EDFD012240F225517A
:104F00000F48FCF7D3FE0F4B27221A700D4B0022DF
:104F10005A700C4B02229A700A4B0122DA7009482F
:104F20003EF04EFD01210648FCF78EFE00BF08371B
:104F3000BD4680BD98320020000C0240B8320020EF
:104F400000480040E436002080B483B000AF034640
:104F5000FB7100BF0C37BD465DF8047B7047000055
:104F600080B582B000AF40F225516248FCF713FFD4
:104F70000346002B00F0BA805E4B9B889BB2FB710E
:104F80005D4B1B68013B0A2B00F29E8001A252F888
:104F900023F000BFC14F0008D94F0008F14F0008AF
:104FA00009500008215000083950000851500008ED
:104FB000695000088150000899500008B15000085D
:104FC0004C4B9B889BB21A464C4B9A604A4B1B68D1
:104FD0000133494A136077E0464B9B889BB21A46DF
:104FE000464B1A62444B1B680133434A13606BE023
:104FF000404B9B889BB21A46404B1A613E4B1B6844
:1050000001333D4A13605FE03A4B9B889BB21A46DE
:105010003A4BDA60384B1B680133374A136053E070
:10502000344B9B889BB21A46344BDA61324B1B6877
:105030000133314A136047E02E4B9B889BB21A46DE
:105040002E4B9A612C4B1B6801332B4A13603BE0BB
:10505000284B9B889BB21A46284B5A60264B1B68EC
:105060000133254A13602FE0224B9B889BB21A46DE
:10507000224B1A60204B1B6801331F4A136023E048
:105080001C4B9B889BB21A461D4B1A601A4B1B681F
:105090000133194A136017E0164B9B889BB21A46DE
:1050A000184B9A61144B1B680133134A13600BE0D1
:1050B000104B9B889BB21A46124BDA600E4B1B6852
:1050C0003F330D4A136000BFFA790F4B1B689A42B9
:1050D00009D10E4B1B781A460D4B1B689A4202D120
:1050E000054B01221A60094AFB79137000BF08378B
:1050F000BD4680BD00480040C8140020A014002018
:10510000E01400208436002074000020241C0020BD
:1051100070000020B0B500AF3EF03FFC0021002041
:105120003EF029FC484A494B15461C460FCC2860E6
:105130006960AA60EB6023782B7443483EF007FC5B
:10514000012100203EF017FC414B9B681A46414963
:105150003D4844F01BF83C483EF0F9FB022100209A
:105160003EF009FC3A4B1B691A463B49364844F06D
:105170000DF835483EF0EBFB032100203EF0FBFB31
:10518000334BDB681A4635492F4843F0FFFF2E4862
:105190003EF0DDFB012106203EF0EDFB2C4B1B6AAF
:1051A0001A462F49284843F0F1FF27483EF0CFFB2D
:1051B000022106203EF0DFFB254B9B691A46294958
:1051C000214843F0E3FF20483EF0C1FB03210620C5
:1051D0003EF0D1FB1E4BDB691A4623491A4843F0C7
:1051E000D5FF19483EF0B3FB01210B203EF0C3FB75
:1051F0001E4B1B681A461E49134843F0C7FF12484E
:105200003EF0A5FB02210B203EF0B5FB194B9B693C
:105210001A4619490C4843F0B9FF0B483EF097FB7A
:1052200003210B203EF0A7FB124BDB681A46134903
:10523000054843F0ABFF04483EF089FB322009F0FB
:10524000D7FD00BFB0BD00BF501D00202CDD0408FD
:10525000A014002040DD040848DD040850DD0408E7
:1052600058DD040860DD040868DD0408E01400204F
:1052700070DD04088436002078DD040880DD040831
:1052800090B583B000AF17E19D4B1B687B60202178
:105290009C4809F097FB0346012B00F01681402142
:1052A000984809F08FFB0346012B0CD100BF402129
:1052B000944809F087FB0346012BF8D0904B1B68FC
:1052C000013B8F4A136010218E4809F07BFB034697
:1052D000012B0CD100BF10218A4809F073FB034653
:1052E000012BF8D0864B1B680133854A13602021BF
:1052F000844809F067FB0346012B00F0E880804BEF
:105300001B68012B42D0022B7DD0002B40F0B880CF
:10531000002102203EF02FFB7B4A7C4B03CB106028
:10532000516019889B781181937277483EF00FFB8A
:10533000012104203EF01FFB734A754B03CB106024
:1053400051601B88138170483EF001FB022105204B
:105350003EF011FB6C4B6F4A10681860918892798F
:1053600099809A7168483EF0F2FA032102203EF0DB
:1053700002FB654A684B144607CB20606160A2605F
:105380001B78237360483EF0E2FA79E000210220A6
:105390003EF0F1FA5C4A5D4B03CB10605160198816
:1053A0009B781181937258483EF0D1FA0121042074
:1053B0003EF0E1FA544A564B03CB106051601B8813
:1053C000138151483EF0C3FA022103203EF0D3FA84
:1053D0004D4A524B03CB106051601B8813814A48E1
:1053E0003EF0B5FA032102203EF0C5FA464A4A4B88
:1053F000144607CB20606160A2601B78237342488B
:105400003EF0A5FA3CE0002102203EF0B4FA3E4A0C
:105410003E4B03CB1060516019889B7811819372C9
:1054200039483EF094FA012104203EF0A4FA364AAD
:10543000374B03CB106051601B88138132483EF01C
:1054400086FA022104203EF096FA2F4A344B03CB11
:10545000106051601B7813722B483EF078FA0321DC
:1054600002203EF088FA284A2B4B144607CB2060D6
:105470006160A2601B78237323483EF068FA00BF86
:105480001F4B1B687A689A4201D03EF086FA1C4B8B
:105490001B68022B02DD1A4B00221A60184B1B6896
:1054A000002B02DA164B02221A602021154809F05F
:1054B00089FA0346012B0CD02021124809F082FA08
:1054C0000346002B3FF4E0AE04E000BF02E000BF63
:1054D00000E000BF642009F08BFC094B1B68012B26
:1054E00006D0022B07D0002BF7D100F01BF805E007
:1054F00000F0CCFC02E001F00FF900BFEDE700BFC7
:10550000181C002000100240501D0020C0DD0408BF
:10551000CCDD0408D8DD0408E0DD0408F0DD040873
:10552000FCDD0408B0B582B000AFAD4B00221A60BC
:105530008EE301214FF4967011F07CFFA84B1B689D
:105540007B602021A74809F03DFA0346012B00F0BB
:1055500088834021A34809F035FA0346012B0CD17A
:1055600000BF40219F4809F02DFA0346012BF8D0D7
:105570009B4B1B68013B9A4A13601021994809F024
:1055800021FA0346012B0CD100BF1021954809F0E8
:1055900019FA0346012BF8D0914B1B680133904A4E
:1055A000136020218F4809F00DFA0346012B00F00B
:1055B0005A838B4B1B680B2B00F22E8301A252F8EF
:1055C00023F000BFF555000873560008ED5600089B
:1055D000675700080958000887580008055900084F
:1055E0007F590008F95900087B5A00081D5B000824
:1055F000975B0008002102203EF0BDF97A4A7B4B00
:1056000003CB1060516019889B78118193727648A2
:105610003EF09DF9012104203EF0ADF9724A744B31
:1056200003CB106051601B8813816F483EF08FF9E7
:10563000022100203EF09FF96B4A6E4B144607CBC7
:1056400020606160A2601B78237367483EF07FF999
:10565000032102203EF08FF9634A674B144607CBC3
:1056600020606160A2601B7823735F483EF06FF991
:10567000D2E2002102203EF07EF95B4A5B4B03CB75
:105680001060516019889B781181937256483EF0E2
:105690005EF9012104203EF06EF9534A544B03CBCE
:1056A000106051601B8813814F483EF050F9022171
:1056B00000203EF060F94C4A504B144607CB206066
:1056C0006160A26048483EF042F9032102203EF0AA
:1056D00052F9454A484B144607CB20606160A260EE
:1056E0001B78237340483EF032F995E200210220F6
:1056F0003EF041F93C4A3D4B03CB106051601988A4
:105700009B781181937238483EF021F901210420E1
:105710003EF031F9344A364B03CB106051601B88A0
:10572000138131483EF013F9022100203EF023F9A5
:105730002D4A334B144607CB20606160A2602A4893
:105740003EF005F9032102203EF015F9264A2A4BC6
:10575000144607CB20606160A2601B782373224847
:105760003EF0F5F858E2002102203EF004F91E4A0E
:105770001E4B03CB1060516019889B781181937286
:1057800019483EF0E4F8012104203EF0F4F8164AEE
:10579000174B03CB106051601B88138112483EF0F9
:1057A000D6F8022100203EF0E6F80F4A154B1446C9
:1057B00007CB20606160A2600B483EF0C8F803216F
:1057C00002203EF0D8F8084A0B4B144607CB206065
:1057D0006160A2601B78237303483EF0B8F81BE2B7
:1057E000181C002000100240501D0020C0DD0408DD
:1057F000CCDD040808DE0408E0DD040818DE040837
:1058000024DE040830DE0408002102203EF0B3F854
:10581000B84AB94B03CB1060516019889B7811814D
:105820009372B4483EF093F8012104203EF0A3F8AF
:10583000B04AB24B03CB106051601B881381AD4856
:105840003EF085F8022100203EF095F8A94AAC4BC5
:1058500003CB1060516019889B7811819372A54821
:105860003EF075F8032102203EF085F8A14AA54BD1
:10587000144607CB20606160A2601B7823739D48AB
:105880003EF065F8C8E1002102203EF074F8994A24
:10589000994B03CB1060516019889B7811819372EA
:1058A00094483EF054F8012104203EF064F8914AF7
:1058B000924B03CB106051601B8813818D483EF0E2
:1058C00046F8022100203EF056F88A4A8E4B1446D4
:1058D00007CB20606160A2601B78237385483EF08F
:1058E00036F8032102203EF046F8824A854B1446E2
:1058F00007CB20606160A2601B7823737D483EF077
:1059000026F889E1002102203EF035F8794A7A4BE9
:1059100003CB1060516019889B7811819372754890
:105920003EF015F8012104203EF025F8714A734B32
:1059300003CB106051601B8813816E483EF007F85E
:10594000022100203EF017F86A4A704B144607CB3C
:1059500020606160A26067483DF0F9FF03210220EA
:105960003EF009F8634A674B144607CB206061603C
:10597000A2601B7823735F483DF0E9FF4CE10021F2
:1059800002203DF0F8FF5B4A5B4B03CB1060516097
:1059900019889B781181937256483DF0D8FF0121F8
:1059A00004203DF0E8FF534A544B03CB1060516094
:1059B0001B8813814F483DF0CAFF022100203DF0B3
:1059C000DAFF4C4A524B03CB106051601B881381A5
:1059D00048483DF0BCFF032102203DF0CCFF454A82
:1059E000484B144607CB20606160A2601B7823738C
:1059F00040483DF0ACFF0FE1002102203DF0BBFF2D
:105A00003C4A3D4B03CB1060516019889B78118153
:105A1000937238483DF09BFF012104203DF0ABFF1D
:105A2000344A364B03CB106051601B8813813148D8
:105A30003DF08DFF022100203DF09DFF2D4A354BAA
:105A400015461C460FCC28606960AA60EB6023787D
:105A50002B7428483DF07BFF032102203DF08BFF93
:105A6000244A284B144607CB20606160A2601B7853
:105A7000237320483DF06BFFCEE0002102203DF073
:105A80007AFF1C4A1C4B03CB1060516019889B782D
:105A90001181937217483DF05AFF012104203DF017
:105AA0006AFF144A154B03CB106051601B881381A9
:105AB00010483DF04CFF022100203DF05CFF0D4AF4
:105AC000154B03CB106051601B88138109483DF0D2
:105AD0003EFF032102203DF04EFF064A094B1446CB
