:020000040800F2
:10000000D8050020D50B0008350C0008350C000879
:10001000350C0008350C0008350C00080000000005
:10002000000000000000000000000000350C000887
:10003000350C000800000000350C0008A501000880
:10004000350C0008350C0008350C0008350C00088C
:10005000350C0008350C0008350C0008350C00087C
:10006000350C0008350C0008350C0008350C00086C
:10007000350C0008350C0008350C0008350C00085C
:10008000350C0008350C0008350C0008350C00084C
:10009000350C0008350C0008350C0008350C00083C
:1000A000350C0008350C0008350C0008350C00082C
:1000B000350C0008350C000831230008350C000809
:1000C000350C0008350C0008350C0008350C00080C
:1000D000350C0008F527000845250008350C0008F8
:1000E000350C0008350C0008350C00080000000035
:1000F0000000000000000000000000000000000000
:1001000000000000000000005FF808F180B483B038
:1001100000AF03463960FB7197F90730002B0BDA0B
:100120003B68DAB20C49FB7903F00F03043B120180
:10013000D2B20B441A7609E03B68DAB2074997F964
:1001400007301201D2B20B4483F8002300BF0C37F2
:10015000BD4680BC704700BF00ED00E000E100E05C
:1001600080B582B000AF78607B68B3F1807F01D347
:10017000012311E07B6823F07F43094A013B536070
:100180000F214FF0FF30FFF7C1FF054B00229A60AF
:10019000034B07221A60002318460837BD4680BD6E
:1001A00010E000E080B400AF064B1B68002B04D0C9
:1001B000044B1B68013B034A136000BFBD4680BC73
:1001C000704700BFF400002080B500AF00F072F966
:1001D000054B1B68054AA2FB03239B0C1846FFF73F
:1001E000BFFF00BF80BD00BF0000002083DE1B43B7
:1001F00080B483B000AF7860064A7B68136000BFAC
:10020000044B1B68002BFBD100BF0C37BD4680BCE4
:10021000704700BFF400002080B582B000AF786066
:1002200003E04FF47A70FFF7E3FF7B685A1E7A60B1
:10023000002BF6D100BF0837BD4680BD80B485B025
:1002400000AF786039600023FB817B681B88FB81ED
:100250007B682E4A934213D07B682D4A93420FD07D
:100260007B68B3F1804F0BD07B682A4A934207D05A
:100270007B68294A934203D07B68284A934208D17D
:10028000FB8923F07003FB813B685A88FB89134389
:10029000FB817B68224A93420CD07B68214A9342BF
:1002A00008D0FB8923F44073FB813B68DA88FB8923
:1002B0001343FB817B68FA891A803B689A887B68C4
:1002C0009A853B681A887B681A857B680F4A934237
:1002D0000FD07B680E4A93420BD07B68124A934240
:1002E00007D07B68114A934203D07B68104A93423F
:1002F00004D13B681B7A9AB27B681A867B6801221C
:100300009A8200BF1437BD4680BC7047002C014064
:10031000003401400004004000080040000C004090
:100320000010004000140040004001400044014023
:100330000048014080B483B000AF78600B46FB708A
:10034000FB78002B08D07B681B889BB243F001032D
:100350009AB27B681A8007E07B681B889BB223F007
:1003600001039AB27B681A8000BF0C37BD4680BC7F
:10037000704780B483B000AF78600B467B80134633
:100380007B707B78002B08D07B689B899AB27B8836
:1003900013439AB27B689A8109E07B689B899AB281
:1003A0007B88DB439BB213409AB27B689A8100BF83
:1003B0000C37BD4680BC704780B485B000AF786014
:1003C0000B467B800023FB730023BB8100237B81D2
:1003D0007B681B8A9AB27B881340BB817B689B89B0
:1003E0009AB27B8813407B81BB89002B05D07B8927
:1003F000002B02D00123FB7301E00023FB73FB7B86
:1004000018461437BD4680BC704780B483B000AF37
:1004100078600B467B807B88DB439AB27B681A82CC
:1004200000BF0C37BD4680BC7047000080B400AFF1
:100430001C4B1C4A1B6813601A4B1B68194A43F07B
:1004400001031360184B1B68174A43F48033136091
:1004500000BF154B1B6803F40033002BF9D0124B7F
:100460005B68114A43F4E81343F4806353600E4B16
:100470001B680D4A43F08073136000BF0A4B1B6872
:1004800003F00073002BF9D0074B5B68064A43F07A
:1004900002035360054B064A1A6000BFBD4680BC8C
:1004A000704700BF00200240001002400000002002
:1004B00000A24A0480B485B000AF0023FB60002393
:1004C000BB6000237B602C4B5B6803F00C03FB607C
:1004D000FB68042B07D0082B09D0002B33D1274B06
:1004E000274A1A6033E0254B254A1A602FE0224B39
:1004F0005B6803F47013BB601F4B5B6803F48033CD
:100500007B60BB689B0C0233BB607B68002B06D111
:10051000BB681C4A02FB03F3184A136017E0164B32
:100520005B6803F40033002B06D0BB68154A02FB5E
:1005300003F3124A13600AE0BB68114A02FB03F39B
:100540000E4A136003E00D4B0D4A1A6000BF0A4BC0
:100550005B681B0903F00F030B4AD35CDBB2FB6043
:10056000064B1A68FB6822FA03F3044A136000BFC3
:100570001437BD4680BC70470010024000000020C8
:1005800000127A0000093D000400002080B584B00C
:1005900000AF78600B46FB70FB78FB730121786835
:1005A00003F02CFE0121786803F09FFE002178689B
:1005B00003F09BFE0021786803F097FE786803F053
:1005C000F9FC786801F038FFFB7B18461037BD4610
:1005D00080BD000080B584B000AF78600B46FB7032
:1005E0001346BB70484BFB600121786803F0E7FDC0
:1005F000454BFB600CE0FB68002B03D0FB68013B24
:10060000FB6005E001217868FFF7C0FF034677E053
:100610003E49786803F08AFE0346002BEBD00022A7
:100620005221786803F044FE374BFB600CE0FB6816
:10063000002B03D0FB68013BFB6005E002217868DA
:10064000FFF7A4FF03465BE03149786803F06EFED4
:100650000346002BEBD07B681B8B2B4BFB600CE025
:10066000FB68002B03D0FB68013BFB6005E0032126
:100670007868FFF78BFF034642E02649786803F06D
:1006800055FE0346002BEBD0FB781946786803F043
:10069000F3FD1D4BFB600CE0FB68002B03D0FB68F7
:1006A000013BFB6005E004217868FFF76FFF03461C
:1006B00026E01849786803F039FE0346002BEBD09A
:1006C000BB781946786803F0D7FD0F4BFB600CE050
:1006D000FB68002B03D0FB68013BFB6005E00521B4
:1006E0007868FFF753FF03460AE00A49786803F089
:1006F0001DFE0346002BEBD00121786803F07EFD40
:1007000018461037BD4680BD80380100010000103A
:10071000020000108000001080B584B000AF786047
:100720000B46FB706C4BFB600121786803F047FDC2
:10073000694BFB600CE0FB68002B03D0FB68013BBE
:10074000FB6005E001217868FFF720FF0346BEE06B
:100750006249786803F0EAFD0346002BEBD00121E3
:10076000786803F06AFD00225221786803F0A0FD4A
:10077000594BFB600CE0FB68002B03D0FB68013B8E
:10078000FB6005E002217868FFF700FF03469EE06A
:100790005349786803F0CAFD0346002BEBD07B6811
:1007A0001B8B4D4BFB600CE0FB68002B03D0FB6800
:1007B000013BFB6005E003214A48FFF7E7FE0346E3
:1007C00085E04949786803F0B1FD0346002BEBD082
:1007D000FB781946786803F04FFD3F4BFB600CE057
:1007E000FB68002B03D0FB68013BFB6005E00421A4
:1007F0007868FFF7CBFE034669E03B49786803F071
:1008000095FD0346002BEBD00121786803F0D7FC5F
:10081000314BFB600CE0FB68002B03D0FB68013B15
:10082000FB6005E005217868FFF7B0FE03464EE067
:100830002A49786803F07AFD0346002BEBD00122A9
:100840005221786803F034FD234BFB600CE0FB6819
:10085000002B03D0FB68013BFB6005E006217868B4
:10086000FFF794FE034632E01D49786803F05EFD11
:100870000346002BEBD07B681B8B0CE0FB68002B46
:1008800003D0FB68013BFB6005E008217868FFF7B7
:100890007DFE03461BE01549786803F047FD0346DB
:1008A000002BEBD00121786803F0A8FC786803F0F6
:1008B000F2FC03461A460E4B1A700021786803F0CA
:1008C000BCFC0B4B1A780B4B1A700A4B1B78184662
:1008D0001037BD4680BD00BF803801000100001008
:1008E0000200001000540040800000104000001082
:1008F000600000206C00002080B584B000AF7860FC
:1009000094211E48FFF708FF0346FB811C4B1A7811
:100910001C4B5A7095211948FFF7FEFE0346FB81D8
:10092000174B1A78174B1A70164B1B781B021AB20A
:10093000144B5B781BB213431BB29AB2124B1A8052
:10094000114B1B88B3F5167F03D3104B02221A609C
:1009500010E00D4B1B88B3F5917F08D90A4B1B881B
:10096000B3F5167F03D2094B01221A6002E0074B50
:1009700000221A6000BF1037BD4680BD00580040FD
:10098000600000201001002058000020CC00002052
:1009900080B582B000AF786096214F48FFF7BCFE6B
:1009A00003469AB24D4B1A804D4B1A784D4B5A70F4
:1009B00097214948FFF7B0FE03469AB2474B1A8089
:1009C000474B1A78474B1A7098214348FFF7A4FE0B
:1009D00003469AB2414B1A80414B1A78424B5A70E7
:1009E00099213D48FFF798FE03469AB23B4B1A8087
:1009F0003B4B1A783C4B1A709A213748FFF78CFE14
:100A000003469AB2354B1A80354B1A78374B5A70D9
:100A10009B213148FFF780FE03469AB22F4B1A8084
:100A20002F4B1A78314B1A702E4B1B781B021AB2BF
:100A30002C4B5B781BB213431BB29AB22C4BDA805F
:100A4000294B1B781B021AB2274B5B781BB213434E
:100A50001BB29AB2264B9A80244B1B781B021AB207
:100A6000224B5B781BB213431BB29AB2204B5A80C5
:100A70001F4B9B889D2B07D91D4B5B889D2B03D952
:100A80001C4B02221A6022E0194B9B889D2B0FD829
:100A9000174B9B88712B0BD9154B5B889D2B07D867
:100AA000134B5B88712B03D9124B01221A600EE0A5
:100AB0000F4B9B88712B07D80D4B5B88712B03D88C
:100AC0000C4B00221A6002E00A4B00221A6000BFA1
:100AD0000837BD4680BD00BF0058004062000020BE
:100AE000600000201C010020EC000020000100201C
:100AF0002C010020CC00002080B500AF00228F2107
:100B00001148FFF767FD03461A46104B1A7005207F
:100B1000FFF782FBFF2281210B48FFF75BFD0346B5
:100B20001A460B4B1A700520FFF776FB0322802133
:100B30000548FFF74FFD03461A46064B1A7005207D
:100B4000FFF76AFB00BF80BD005800406400002032
:100B5000650000206600002080B400AF0F4B1B68CA
:100B6000022B03D10D4B0222DA6012E00B4B1B6803
:100B7000012B03D1094B0122DA600AE0074B1B6805
:100B8000002B03D1054B0022DA6002E0034B002268
:100B9000DA6000BFBD4680BC704700BFCC000020BB
:100BA00080B582B000AF78607B68002B02D0012B4B
:100BB00006D00BE00020FFF79FFEFFF7CDFF05E01A
:100BC0000020FFF7E5FEFFF7C7FF00BF00BF0837B3
:100BD000BD4680BD80B582B000AF114B7B60114B2C
:100BE0003B6007E07A68131D7B603B68191D396024
:100BF00012681A603B680C4A9342F3D30B480C49C5
:100C00004FF000028842B8BF40F8042BFADBFFF730
:100C10000DFC00F07DFC00BF0837BD4680BD00BF65
:100C2000FC4B000800000020580000205800002065
:100C3000D401002080B400AFFEE780B489B000AFDB
:100C4000786039600023FB6100233B610023BB61B6
:100C50000023FB6000237B610023BB603B68DB78E3
:100C600003F00F03FB613B68DB7803F01003002BFC
:100C700005D03B689B781A46FB691343FB613B68D0
:100C80001B88DBB2002B44D07B681B687B61002390
:100C9000BB6138E00122BB6902FA03F3FB603B68E9
:100CA0001B881A46FB6813403B613A69FB689A420D
:100CB00026D1BB699B00FB600F22FB6802FA03F39D
:100CC000BB60BB68DB437A6913407B61FA69FB68F0
:100CD00002FA03F37A6913437B613B68DB78282BC4
:100CE00005D10122BB699A407B685A6108E03B68E4
:100CF000DB78482B04D10122BB699A407B681A61DA
:100D0000BB690133BB61BB69072BC3D97B687A69B7
:100D10001A603B681B88FF2B46D97B685B687B6148
:100D20000023BB613AE0BB690833012202FA03F3F6
:100D3000FB603B681B881A46FB6813403B613A69BD
:100D4000FB689A4227D1BB699B00FB600F22FB68BE
:100D500002FA03F3BB60BB68DB437A6913407B6133
:100D6000FA69FB6802FA03F37A6913437B613B6813
:100D7000DB78282B05D1BB69083301229A407B68B8
:100D80005A613B68DB78482B05D1BB6908330122E7
:100D90009A407B681A61BB690133BB61BB69072B51
:100DA000C1D97B687A695A6000BF2437BD4680BCD0
:100DB0007047000080B483B000AF0023FB713C4B50
:100DC0009B8A9BB203F48043002B0BD0FB7943F04A
:100DD0002003FB71364B9B8A9BB2354A23F4804338
:100DE0009BB29382324B9B8A9BB203F48053002BBD
:100DF0000BD0FB7943F01003FB712D4B9B8A9BB208
:100E00002B4A23F480539BB29382294B9B8A9BB23B
:100E100003F40063002B0BD0FB7943F00803FB7154
:100E2000234B9B8A9BB2224A23F400639BB293829A
:100E30001F4B9B8A9BB203F48063002B0BD0FB7982
:100E400043F00403FB711A4B9B8A9BB2184A23F4AC
:100E500080639BB29382164B9B8A9BB203F4007310
:100E6000002B0BD0FB7943F00203FB71104B9B8AE4
:100E70009BB20F4A23F400739BB293820C4B9B8A64
:100E80009BB203F48073002B0BD0FB7943F001037A
:100E9000FB71074B9B8A9BB2054A23F480739BB27C
:100EA0009382FB7918460C37BD4680BC704700BF63
:100EB0000054004080B400AF1F4B9B691E4A43F0B2
:100EC000090393611C4BDB691B4A43F40013D36194
:100ED0001A4B5B68194A23F0FF035360174B5B689A
:100EE000164A43F0FF035360154B5B68144A43F006
:100EF00002035360104B1B690F4A43F40013136144
:100F00000D4B1B690C4A23F4001313610D4B242273
:100F10009A800C4BB4229A830A4B25221A84094BDF
:100F20001B889BB2074A43F001039BB2138000BFAA
:100F3000BD4680BC704700BF00100240000C01405D
:100F4000000001400054004080B584B000AF03466B
:100F50003960FB711346BB710023FB739B4B1B88ED
:100F60009BB29A4A43F480739BB21380984B1B68E0
:100F7000BB6011E0FFF71EFF0346FB73944B1A683A
:100F8000BB68D31A0A2B03D9FB7B43F04003FB73E6
:100F9000FB7B002B40F0C7818C4B9B8A9BB203F0FC
:100FA0000103002BE6D0FB795B001BB243F0010389
:100FB0001AB2864B92B21A82854B1B68BB6011E055
:100FC000FFF7F8FE0346FB73814B1A68BB68D31A20
:100FD0000A2B03D9FB7B43F04003FB73FB7B002B05
:100FE00040F0A381794B9B8A9BB203F00203002B54
:100FF000E6D0BB79012B5ED1744B1B889BB2734A40
:1010000023F480639BB2138072B6704B9B8A6F4B44
:101010001B8B6E4B1B889BB26C4A43F400739BB2D4
:10102000138062B66A4B1B68BB6011E0FFF7C2FE1B
:101030000346FB73664B1A68BB68D31A0A2B03D9A5
:10104000FB7B43F04003FB73FB7B002B40F06F8185
:101050005E4B9B8A9BB203F04003002BE6D05B4BB8
:101060001B8A9BB2DAB23B681A70594B1B68BB6093
:1010700011E0FFF79FFE0346FB73554B1A68BB68F0
:10108000D31A0A2B03D9FB7B43F04003FB73FB7B92
:10109000002B40F04E814D4B1B889BB203F4007334
:1010A000002BE6D1494B1B889BB2484A43F480632E
:1010B0009BB2138035E1BB79022B79D1434B1B885E
:1010C0009BB2424A43F400639BB2138072B63F4B1B
:1010D0009B8A3E4B1B8B3D4B1B889BB23B4A23F4A8
:1010E00080639BB2138062B6394B1B68BB6011E012
:1010F000FFF760FE0346FB73354B1A68BB68D31AD3
:101100000A2B03D9FB7B43F04003FB73FB7B002BD3
:1011100040F011812D4B9B8A9BB203F00403002BFE
:10112000E6D072B6294B1B889BB2284A43F4007361
:101130009BB21380254B1B8A9BB2DAB23B681A70B4
:1011400062B63B6801333B60204B1B8A9BB2DAB22C
:101150003B681A701E4B1B68BB6011E0FFF72AFE4C
:101160000346FB731A4B1A68BB68D31A0A2B03D9C0
:10117000FB7B43F04003FB73FB7B002B40F0DD80E7
:10118000124B1B889BB203F40073002BE6D10F4B6C
:101190001B889BB20D4A23F400639BB213800B4B58
:1011A0001B889BB2094A43F480639BB21380B8E06A
:1011B000BB79022B40F2B580044B9B8A034B1B8BFF
:1011C0002DE0034B1B68BB6016E000BF00540040DD
:1011D000F4000020FFF7EEFD0346FB73704B1A6826
:1011E000BB68D31A0A2B03D9FB7B43F04003FB7384
:1011F000FB7B002B40F0A3806A4B9B8A9BB203F0E1
:101200000403002BE6D0674B1B8A9BB2DAB23B6823
:101210001A703B6801333B60BB79013BBB71BB7902
:10122000022BCED85E4B1B68BB6010E0FFF7C2FDFF
:101230000346FB735A4B1A68BB68D31A0A2B03D9AF
:10124000FB7B43F04003FB73FB7B002B79D1554BB9
:101250009B8A9BB203F00403002BE7D0514B1B8801
:101260009BB2504A23F480639BB2138072B64D4BFD
:101270001B889BB24B4A43F400739BB21380494BCB
:101280001B8A9BB2DAB23B681A703B6801333B6041
:1012900062B6434B1B68BB6010E0FFF78BFD034653
:1012A000FB733F4B1A68BB68D31A0A2B03D9FB7B2D
:1012B00043F04003FB73FB7B002B44D1394B9B8AEB
:1012C0009BB203F04003002BE7D0364B1B8A9BB246
:1012D000DAB23B681A70324B1B68BB6010E0FFF754
:1012E00069FD0346FB732E4B1A68BB68D31A0A2BA1
:1012F00003D9FB7B43F04003FB73FB7B002B07D13F
:10130000284B1B889BB203F40073002BE7D100E04D
:1013100000BF244B1B889BB2224A43F480639BB2DC
:101320001380002337E000BF0EE000BF0CE000BFD9
:101330000AE000BF08E000BF06E000BF04E000BF15
:1013400002E000BF00E000BF164B1B889BB2154AAD
:1013500043F400739BB21380114B1B68BB6010E019
:10136000FFF728FD0346FB730D4B1A68BB68D31AC1
:101370000A2B03D9FB7B43F04003FB73FB7B002B61
:1013800007D1084B1B889BB203F40073002BE7D1F5
:1013900000E000BFFB7B18461037BD4680BD00BF94
:1013A000F40000200054004080B584B000AF034634
:1013B0003960FB711346BB710023FB73524B1B88D2
:1013C0009BB2514A43F480739BB213804F4B1B680E
:1013D000BB6010E0FFF7EEFC0346FB734B4B1A6853
:1013E000BB68D31A0A2B03D9FB7B43F04003FB7382
:1013F000FB7B002B58D1444B9B8A9BB203F001032B
:10140000002BE7D0FB799BB23F4A5B009BB2138273
:101410003E4B1B68BB6010E0FFF7CCFC0346FB7340
:101420003A4B1A68BB68D31A0A2B03D9FB7B43F0EB
:101430004003FB73FB7B002B38D1334B9B8A9BB261
:1014400003F00203002BE7D02F4B9B8A2E4B1B8B04
:1014500026E03B681A782C4B92B21A822B4B1B6801
:10146000BB6010E0FFF7A6FC0346FB73274B1A682E
:10147000BB68D31A0A2B03D9FB7B43F04003FB73F1
:10148000FB7B002B14D1204B9B8A9BB203F00403FF
:10149000002BE7D03B6801333B60BB79013BBB715C
:1014A000BB79002BD5D104E000BF02E000BF00E013
:1014B00000BF154B1B889BB2134A43F400739BB2C9
:1014C0001380124B1B68BB6010E0FFF773FC0346F0
:1014D000FB730E4B1A68BB68D31A0A2B03D9FB7B2C
:1014E00043F04003FB73FB7B002B07D1064B1B88AB
:1014F0009BB203F40073002BE7D100E000BFFB7B3D
:1015000018461037BD4680BD00540040F40000204E
:1015100080B500AF00F09BFE564800F021FF02F0BE
:1015200087FC554800F088FFFEF74EFEFFF7E4FA0F
:1015300000F0C6FEFFF7BEFC0121504801F0B2FAF0
:101540004F494E4801F05CFE122200214B4801F049
:101550008BFF0E220121494801F086FF4949474887
:1015600001F082FE0021454802F019F9434802F0DB
:1015700065F903461A46444B1A800A20FEF74CFED2
:10158000414B1B881B0A9BB21A46404B1A603E4BCC
:101590001B88DBB23E4A13603E4BDB881B0A9BB2C2
:1015A0001A463D4B1A603B4BDB88DBB23B4A13606B
:1015B000384B9B881B0A9BB21A46394B1A60354B35
:1015C0009B88DBB2374A1360324B5B881B0A9BB2A5
:1015D0001A46354B1A602F4B5B88DBB2334A1360D7
:1015E000334B1B681946334800F006FF324B1B682B
:1015F0001946304800F000FF304B1B6819462D4853
:1016000000F0FAFE244B1B6819462A4800F0F4FE4D
:10161000224B1B681946274800F0EEFE204B1B6842
:101620001946244800F0E8FE1E4B1B681946214865
:1016300000F0E2FE1C4B1B6819461E4800F0DCFE61
:101640001A4B1B6819461B4800F0D6FE1C4BDB6882
:101650001946184800F0D0FE0C4B1B681946154877
:1016600000F0CAFE0A4B1B681946124800F0C4FE7F
:101670007CE700BF40420F000058004014000020EB
:10168000CDCCCC3D400D030040010020880000205F
:101690008C0000202C01002070000020740000202D
:1016A000780000207C0000208000002084000020C2
:1016B000400000200038014044000020F84B0008A2
:1016C000CC00002080B400AF134B1B68124A43F0DB
:1016D00001031360104B5A680F49104B13404B60C5
:1016E0000D4B1B680C4A23F0847323F48033136082
:1016F000094B1B68084A23F480231360064B5B6880
:10170000054A23F4FE035360034B4FF41F029A6013
:1017100000BFBD4680BC7047001002400000FFF8CB
:1017200080B483B000AF7860134B1B68124A23F477
:1017300080331360104B1B680F4A23F4802313601F
:101740007B68B3F5803F03D0B3F5802F07D00DE061
:10175000094B1B68084A43F48033136006E0064BCC
:101760001B68054A43F4A023136000BF00BF0C3779
:10177000BD4680BC704700BF0010024080B582B0FB
:1017800000AF00233B600023FB710023BB713120BD
:1017900000F00CFA0346BB713B6801333B603B68C9
:1017A000B3F5A06F02D0BB79002BF0D0312000F050
:1017B000FDF90346002B02D00123FB7101E0002359
:1017C000FB71FB7918460837BD4680BD80B485B0F3
:1017D00000AF786039600023FB600A4B5B68FB60F8
:1017E000FB6823F47C13FB607A683B681343FA6858
:1017F0001343FB60034AFB68536000BF1437BD46C8
:1018000080BC70470010024080B483B000AF034634
:10181000FB71044AFB79136000BF0C37BD4680BCE6
:10182000704700BF6000424280B485B000AF78606E
:101830000023FB60094B5B68FB60FB6823F003033C
:10184000FB60FA687B681343FB60044AFB685360E3
:1018500000BF1437BD4680BC704700BF0010024077
:1018600080B400AF044B5B68DBB203F00C03DBB267
:101870001846BD4680BC70470010024080B485B059
:1018800000AF78600023FB60094B5B68FB60FB687E
:1018900023F0F003FB60FA687B681343FB60044AA3
:1018A000FB68536000BF1437BD4680BC704700BF63
:1018B0000010024080B485B000AF78600023FB6068
:1018C000094B5B68FB60FB6823F4E063FB60FA682C
:1018D0007B681343FB60044AFB68536000BF143706
:1018E000BD4680BC704700BF0010024080B485B088
:1018F00000AF78600023FB60094B5B68FB60FB680E
:1019000023F46053FB607B68DB00FA681343FB60E1
:10191000034AFB68536000BF1437BD4680BC704764
:101920000010024080B485B000AF78600023FB60F7
:10193000094B5B68FB60FB6823F44043FB60FA687B
:101940007B681343FB60044AFB68536000BF143795
:10195000BD4680BC704700BF0010024080B487B015
:1019600000AF786000237B6100233B610023FB60B4
:101970000023BB604C4B5B6803F00C037B617B690D
:10198000042B07D0082B09D0002B33D17B68474AA2
:101990001A6033E07B68454A1A602FE0424B5B686F
:1019A00003F470133B61404B5B6803F48033FB60CE
:1019B0003B699B0C02333B61FB68002B06D13B6902
:1019C0003B4A02FB03F27B681A6017E0364B5B6808
:1019D00003F40033002B06D03B69354A02FB03F2C7
:1019E0007B681A600AE03B69304A02FB03F27B68BD
:1019F0001A6003E07B682D4A1A6000BF2A4B5B68BF
:101A000003F0F0037B617B691B097B61294A7B69D9
:101A100013441B78DBB2BB607B681A68BB68DA4092
:101A20007B685A60204B5B6803F4E0637B617B69F1
:101A30001B0A7B611F4A7B6913441B78DBB2BB60C6
:101A40007B685A68BB68DA407B689A60164B5B68B3
:101A500003F460537B617B69DB0A7B61154A7B6918
:101A600013441B78DBB2BB607B685A68BB68DA4002
:101A70007B68DA600C4B5B6803F440437B617B69F5
:101A80009B0B7B610C4A7B6913441B78DBB2BB6008
:101A90007B68DA68BB68B2FBF3F27B681A6100BF4F
:101AA0001C37BD4680BC70470010024000127A000F
:101AB00000093D002C0000203C00002080B483B0D1
:101AC00000AF78600B46FB70FB78002B06D0094B0B
:101AD0005A6908497B6813434B6106E0054B5A6914
:101AE0007B68DB43034913404B6100BF0C37BD46A5
:101AF00080BC70470010024080B483B000AF7860B3
:101B00000B46FB70FB78002B06D0094B9A690849FD
:101B10007B6813438B6106E0054B9A697B68DB4366
:101B2000034913408B6100BF0C37BD4680BC704732
:101B30000010024080B483B000AF78600B46FB70A9
:101B4000FB78002B06D0094BDA6908497B68134300
:101B5000CB6106E0054BDA697B68DB430349134040
:101B6000CB6100BF0C37BD4680BC704700100240FF
:101B700080B483B000AF78600B46FB70FB78002B1D
:101B800006D0094B1A6908497B6813430B6106E0CC
:101B9000054B1A697B68DB43034913400B6100BFA7
:101BA0000C37BD4680BC70470010024080B487B03F
:101BB00000AF0346FB710023FB6000237B61002321
:101BC000FB74FB795B09DBB2FB60FB68012B03D183
:101BD000124B1B687B6109E0FB68022B03D10F4BA2
:101BE0001B6A7B6102E00D4B5B6A7B61FB7903F052
:101BF0001F03FB607A69FB6822FA03F303F0010319
:101C0000002B02D00123FB7401E00023FB74FB7C5A
:101C100018461C37BD4680BC704700BF001002400C
:101C200080B485B000AF786039600023FB6000238A
:101C3000FB727B685B68FB60FB6823F4702323F412
:101C40008073FB603B681A683B681B791B02134377
:101C5000FA681343FB607B68FA685A607B689B688C
:101C6000FB60FA68164B1340FB603B68DA683B6820
:101C70009B681A433B685B795B001343FA68134324
:101C8000FB607B68FA689A607B68DB6AFB60FB68D4
:101C900023F47003FB603B681B7C013BDAB2FB7AE8
:101CA0001343FB72FB7A1B05FA681343FB607B68E6
:101CB000FA68DA6200BF1437BD4680BC704700BFC7
:101CC000FDF7F1FF80B483B000AF78600B46FB7086
:101CD000FB78002B06D07B689B6843F001027B6891
:101CE0009A6005E07B689B6823F001027B689A603C
:101CF00000BF0C37BD4680BC704780B483B000AFD6
:101D000078600B46FB70FB78002B06D07B689B68E5
:101D100043F480727B689A6005E07B689B6823F4DB
:101D200080727B689A6000BF0C37BD4680BC7047EC
:101D300080B483B000AF78607B689B6843F0080292
:101D40007B689A6000BF0C37BD4680BC704780B48A
:101D500085B000AF78600023FB737B689B6803F05D
:101D60000803002B02D00123FB7301E00023FB7367
:101D7000FB7B18461437BD4680BC704780B483B0E7
:101D800000AF78607B689B6843F004027B689A60D0
:101D900000BF0C37BD4680BC704780B485B000AF33
:101DA00078600023FB737B689B6803F00403002BBF
:101DB00002D00123FB7301E00023FB73FB7B184679
:101DC0001437BD4680BC704780B483B000AF7860E4
:101DD0000B46FB70FB78002B06D07B689B6843F4B6
:101DE000A0027B689A6005E07B689B6823F4A002F0
:101DF0007B689A6000BF0C37BD4680BC704780B4DA
:101E000085B000AF7860084611461A460346FB705D
:101E10000B46BB7013467B700023FB600023BB6046
:101E2000FB78092B23D97B68DB68FB60FB78A3F187
:101E30000A0213465B001344072202FA03F3BB6055
:101E4000BB68DB43FA681340FB607978FB78A3F149
:101E50000A0213465B00134401FA03F3BB60FA68FD
:101E6000BB681343FB607B68FA68DA601EE07B683E
:101E70001B69FB60FA7813465B001344072202FAE1
:101E800003F3BB60BB68DB43FA681340FB607978FF
:101E9000FA7813465B00134401FA03F3BB60FA6857
:101EA000BB681343FB607B68FA681A61BB78062B3A
:101EB00021D87B685B6BFB60BB785A1E13469B0086
:101EC00013441F2202FA03F3BB60BB68DB43FA68CA
:101ED0001340FB60F978BB785A1E13469B001344ED
:101EE00001FA03F3BB60FA68BB681343FB607B68CD
:101EF000FA685A6347E0BB780C2B21D87B681B6BD0
:101F0000FB60BB78DA1F13469B0013441F2202FAC2
:101F100003F3BB60BB68DB43FA681340FB60F978EE
:101F2000BB78DA1F13469B00134401FA03F3BB602E
:101F3000FA68BB681343FB607B68FA681A6322E0A7
:101F40007B68DB6AFB60BB78A3F10D0213469B0044
:101F500013441F2202FA03F3BB60BB68DB43FA6839
:101F60001340FB60F978BB78A3F10D0213469B0088
:101F7000134401FA03F3BB60FA68BB681343FB60C8
:101F80007B68FA68DA6200BF1437BD4680BC7047D0
:101F900080B58CB000AF786039600023FB6200230D
:101FA000BB6200237B6200233B620023FB617B68F2
:101FB000FB617B681B8A9BB2FB62FA6A4CF6FF737B
:101FC0001340FB623B68DB881A46FB6A1343FB62E3
:101FD000FB6A9AB27B681A827B689B899BB2FB6220
:101FE000FA6A4EF6F3131340FB623B689A883B682B
:101FF0001B8913439AB23B685B8913439BB21A4611
:10200000FB6A1343FB62FB6A9AB27B689A817B6826
:102010009B8A9BB2FB62FA6A4FF6FF431340FB6256
:102020003B689B891A46FB6A1343FB62FB6A9AB2C0
:102030007B689A8207F108031846FFF78FFCFB695B
:102040002E4A934202D17B69BB6201E03B69BB62CD
:102050007B689B899BB21BB2002B0CDABA6A1346D1
:102060009B0013449A001A443B681B685B00B2FB58
:10207000F3F37B620BE0BA6A13469B0013449A00A9
:102080001A443B681B689B00B2FBF3F37B627B6ADC
:102090001B4AA2FB03235B091B01FB62FB6A1B09B2
:1020A000642202FB03F37A6AD31A3B627B689B8942
:1020B0009BB21BB2002B0CDA3B6ADB003233104AB6
:1020C000A2FB03235B0903F00703FA6A1343FB62D5
:1020D0000BE03B6A1B013233094AA2FB03235B0975
:1020E00003F00F03FA6A1343FB62FB6A9AB27B6840
:1020F0001A8100BF3037BD4680BD00BF00380140A7
:102100001F85EB5180B483B000AF78600B46FB7045
:10211000FB78002B08D07B689B899BB243F400536B
:102120009AB27B689A8107E07B689B899BB223F413
:1021300000539AB27B689A8100BF0C37BD4680BCC1
:10214000704780B483B000AF78600B467B807B889B
:10215000C3F308039AB27B689A8000BF0C37BD4670
:1021600080BC704780B485B000AF78600B467B8040
:102170000023FB737B681B889AB27B8813409BB259
:10218000002B02D00123FB7301E00023FB73FB7BD8
:1021900018461437BD4680BC704780B487B000AF86
:1021A00078600B467B800023FB6000237B6100236B
:1021B000BB600023FB747B88DBB25B09DBB2BB60D6
:1021C0007B8803F01F037B6101227B6902FA03F322
:1021D0007B61BB68012B07D17B689B899BB21A4648
:1021E0007B6913407B6111E0BB68022B07D17B68E0
:1021F0001B8A9BB21A467B6913407B6106E07B68B1
:102200009B8A9BB21A467B6913407B617B881B0AC1
:102210009BB2FB600122FB6802FA03F3FB607B6860
:102220001B889BB21A46FB681340FB607B69002B3E
:1022300005D0FB68002B02D00123FB7401E00023D2
:10224000FB74FB7C18461C37BD4680BC704780B5CC
:1022500082B000AFFFF736FA4FF48030FFF760FA34
:10226000FFF78CFA0346FB71FB79012B23D1002089
:10227000FFF704FB0020FFF739FB4FF48060FFF706
:1022800019FB4FF4E0114FF48030FFF79FFA012063
:10229000FFF7BAFA00BF3920FFF788FC0346002B8E
:1022A000F9D00220FFF7C0FA00BFFFF7D9FA0346C2
:1022B000082BFAD100E0FEE70837BD4680BD0000DC
:1022C00080B500AF01210420FFF734FC154B4FF41B
:1022D00027629A80134B4FF400721A80114B002230
:1022E000DA80104B00225A800E490F48FDF7A6FFF6
:1022F000012201210C48FEF73CF801210A48FEF7B3
:1023000019F80A4B1E221A70084B00225A70074B0C
:1023100000229A70054B0122DA70044801F0E8FDB2
:1023200000BF80BD8801002000080040CC010020D3
:1023300080B500AF01210948FEF73EF80346002BA7
:1023400009D001210548FEF760F80020FEF728FCBF
:102350000120FEF725FC00BF80BD00BF0008004043
:1023600080B582B000AF786001214FF48040FFF764
:10237000C3FB01210520FFF7BFFB1B4B4FF400728D
:102380001A80194B03229A70174B1822DA701649DB
:102390001648FEF752FC144B4FF480621A80124B21
:1023A0000422DA7010491148FEF747FC7B68104A96
:1023B00013600F4B00229A800D4B0022DA800C4BE9
:1023C00000221A810A4B00229A81094B0C225A8161
:1023D00007490848FFF7DCFD01210648FFF792FE98
:1023E00000BF0837BD4680BDB8010020000801408D
:1023F000BC0100200038014080B582B000AF786099
:10240000396000BF80217868FFF7ACFE0346002BDF
:10241000F8D03B689BB219467868FFF792FE00BF80
:1024200040217868FFF79EFE0346002BF8D000BFDE
:102430000837BD4680BD000080B582B000AF78602F
:102440007B683B4A934235D101214FF40010FFF7DE
:1024500071FB01210820FFF74FFB364B4FF4407210
:102460001A80344B03229A70324B1C22DA703149A5
:102470003148FEF7E2FB314B00229A802F4B4BF69E
:10248000FF72DA802D4B00221A812C4B4FF48062B0
:102490005A812A4B4FF480429A81284B4CF2503299
:1024A0001A600121224801F06BFE2449204801F006
:1024B000A5FD38E07B68224A934234D101214FF4D4
:1024C0008000FFF737FB01210820FFF715FB194BB0
:1024D0004FF440621A80174B03229A70154B1C224E
:1024E000DA7014491448FEF7A8FB144B00229A80B6
:1024F000124B4BF6FF72DA80104B38221A810F4BC9
:102500004FF480625A810D4B4FF480429A810B4BFD
:102510004CF250321A600121094801F031FE07499E
:10252000074801F06BFD00BF0837BD4680BD00BF06
:1025300000540040B8010020000C0140A801002018
:102540000058004080B590B000AF40F225519C4843
:10255000FFF723FE0346002B00F02E81984B9B884B
:102560009BB2DAB2974B1A70964B1B785E2B07D151
:10257000944B1A78934B5A70924B9A78914B1A70ED
:10258000904B1B78532B00F0A580532B02DC422B81
:1025900006D011E1582B00F0B580702B3AD00BE13A
:1025A000894B1B881B0A9BB2FB60874B1B88DBB2E5
:1025B000BB60854B9B881B0A9BB27B60824B9B88D0
:1025C000DBB23B60814B1B6819467D48FFF714FF67
:1025D0007F4B1B6819467A48FFF70EFF52231946B6
:1025E0007748FFF709FFF9687548FFF705FFB968F5
:1025F0007348FFF701FF79687148FFF7FDFE3968FE
:102600006F48FFF7F9FE734BDB6819466C48FFF71C
:10261000F3FED1E0704BDB881B0A9BB21A466F4B6E
:102620001A606D4BDB88DBB26D4A13606A4B9B8886
:102630001B0A9BB21A466B4B1A60674B9B88DBB236
:10264000694A1360644B5B881B0A9BB21A46674B4E
:102650001A60614B5B88DBB2654A13605B4B1B6899
:1026600019465748FFF7C8FE594B1B68194654488E
:10267000FFF7C2FE132319465148FFF7BDFE574B23
:102680001B6819464E48FFF7B7FE554B1B681946A5
:102690004B48FFF7B1FE534B1B6819464848FFF7FC
:1026A000ABFE514B1B6819464548FFF7A5FE4F4B43
:1026B0001B6819464248FFF79FFE4D4B1B681946A1
:1026C0003F48FFF799FE434BDB6819463C48FFF74C
:1026D00093FE71E03D4B1B6819463948FFF78CFEAD
:1026E0003B4B1B6819463648FFF786FE11231946F7
:1026F0003348FFF781FE374BDB6819463048FFF758
:102700007BFE59E00223FB635823BB6301237B63F9
:1027100022233B630023FB629E23BB6200237B6278
:1027200071233B620023FB619E23BB6100237B611D
:1027300062233B61254B1B6819462148FFF75CFE6D
:10274000234B1B6819461E48FFF756FE12231946F5
:102750001B48FFF751FEF96B1948FFF74DFEB96BA7
:102760001748FFF749FE796B1548FFF745FE396BAF
:102770001348FFF741FEF96A1148FFF73DFEB96AB9
:102780000F48FFF739FE796A0D48FFF735FE396AC1
:102790000B48FFF731FEF9690948FFF72DFEB969CB
:1027A0000748FFF729FE79690548FFF725FE3969D3
:1027B0000348FFF721FE00BF00BF4037BD4680BD84
:1027C00000440040A80000205800002040000020E5
:1027D00044000020CC0000202C01002070000020CC
:1027E00074000020780000207C0000208000002081
:1027F0008400002080B590B000AF40F225519C4885
:10280000FFF7CBFC0346002B00F02E81984B9B88F2
:102810009BB2DAB2974B1A70964B1B785E2B07D19E
:10282000944B1A78934B5A70924B9A78914B1A703A
:10283000904B1B78532B00F0A580532B02DC422BCE
:1028400006D011E1582B00F0B580702B3AD00BE187
:10285000894B1B881B0A9BB2FB60874B1B88DBB232
:10286000BB60854B9B881B0A9BB27B60824B9B881D
:10287000DBB23B60814B1B6819467D48FFF7BCFD0E
:102880007F4B1B6819467A48FFF7B6FD522319465D
:102890007748FFF7B1FDF9687548FFF7ADFDB968F6
:1028A0007348FFF7A9FD79687148FFF7A5FD3968FE
:1028B0006F48FFF7A1FD734BDB6819466C48FFF7C3
:1028C0009BFDD1E0704BDB881B0A9BB21A466F4B15
:1028D0001A606D4BDB88DBB26D4A13606A4B9B88D4
:1028E0001B0A9BB21A466B4B1A60674B9B88DBB284
:1028F000694A1360644B5B881B0A9BB21A46674B9C
:102900001A60614B5B88DBB2654A13605B4B1B68E6
:1029100019465748FFF770FD594B1B681946544834
:10292000FFF76AFD132319465148FFF765FD574B22
:102930001B6819464E48FFF75FFD554B1B6819464B
:102940004B48FFF759FD534B1B6819464848FFF7A2
:1029500053FD514B1B6819464548FFF74DFD4F4B42
:102960001B6819464248FFF747FD4D4B1B68194647
:102970003F48FFF741FD434BDB6819463C48FFF7F2
:102980003BFD71E03D4B1B6819463948FFF734FDAC
:102990003B4B1B6819463648FFF72EFD112319469D
:1029A0003348FFF729FD374BDB6819463048FFF7FE
:1029B00023FD59E00223FB635823BB6301237B63A0
:1029C00022233B630023FB629E23BB6200237B62C6
:1029D00071233B620023FB619E23BB6100237B616B
:1029E00062233B61254B1B6819462148FFF704FD14
:1029F000234B1B6819461E48FFF7FEFC122319469D
:102A00001B48FFF7F9FCF96B1948FFF7F5FCB96BA8
:102A10001748FFF7F1FC796B1548FFF7EDFC396BB0
:102A20001348FFF7E9FCF96A1148FFF7E5FCB96ABA
:102A30000F48FFF7E1FC796A0D48FFF7DDFC396AC2
:102A40000B48FFF7D9FCF9690948FFF7D5FCB969CC
:102A50000748FFF7D1FC79690548FFF7CDFC3969D4
:102A60000348FFF7C9FC00BF00BF4037BD4680BD2B
:102A700000380140A800002058000020400000203D
:102A800044000020CC0000202C0100207000002019
:102A900074000020780000207C00002080000020CE
:102AA0008400002080B586B000AF78607B685B78DA
:102AB000002B0CD08921786800F018FB034643F006
:102AC0000103DBB21A468921786800F0A9FA0022D6
:102AD0008821786800F0A4FA01228021786800F04B
:102AE0009FFA0122FF21786800F09AFA0022002163
:102AF000786800F095FA9121786800F0F7FA0346BB
:102B00001A467B681A7401220021786800F088FA5E
:102B10000022FF21786800F083FA00228021786883
:102B200000F07EFA6021786800F0E0FA034643F096
:102B30001203DBB21A466021786800F071FA4FF098
:102B40007A51786800F05CFBFF220121786800F080
:102B500067FA07F1130207F114031946786800F0C9
:102B60009AFE034683F00103DBB2002B01D0002361
:102B700052E207F10C020623B021786800F01CFB3A
:102B80000122FF21786800F04BFA00224F2178687B
:102B900000F046FA2C224E21786800F041FA00221B
:102BA000FF21786800F03CFAB422B621786800F082
:102BB00037FAFB7C002B01D00C2300E000237B754F
:102BC0000023FB750023BB753CE0BA7D7B7D9A42F8
:102BD00003D33B7DFA7D9A421CD1BB7DDB08D8B282
:102BE000034607F11802134413F80C3C5AB2BB7D9C
:102BF00003F00703012101FA03F35BB2DB435BB28D
:102C000013405AB20346D2B207F118010B4403F83D
:102C10000C2C14E0BB7DDB08DBB207F11802134477
:102C200013F80C3C1A46BB7D03F0070342FA03F38A
:102C300003F00103002B02D0FB7D0133FB75BB7D4C
:102C40000133BB75BB7D2F2BBFD907F10C020623C7
:102C5000B021786800F08FFA0122FF21786800F037
:102C6000DFF900220021786800F0DAF90022FF2164
:102C7000786800F0D5F900220921786800F0D0F9D1
:102C800000221021786800F0CBF900221121786829
:102C900000F0C6F901222421786800F0C1F9FF2272
:102CA0002521786800F0BCF900227521786800F0D1
:102CB000B7F90122FF21786800F0B2F92C224E21E9
:102CC000786800F0ADF900224821786800F0A8F992
:102CD00020223021786800F0A3F90022FF217868D3
:102CE00000F09EF909223021786800F099F900225D
:102CF0005421786800F094F904223121786800F0BA
:102D00008FF903223221786800F08AF9832240216A
:102D1000786800F085F925224621786800F080F96E
:102D200000226021786800F07BF900222721786872
:102D300000F076F906225021786800F071F900223F
:102D40005121786800F06CF996225221786800F0E1
:102D500067F908225621786800F062F9302257217D
:102D6000786800F05DF900226121786800F058F978
:102D700000226221786800F053F90022642178680B
:102D800000F04EF900226521786800F049F9A02290
:102D90006621786800F044F90122FF21786800F08C
:102DA0003FF932222221786800F03AF914224721B3
:102DB000786800F035F9FF224921786800F030F991
:102DC00000224A21786800F02BF90022FF21786860
:102DD00000F026F90A227A21786800F021F9002211
:102DE0007B21786800F01CF921227821786800F0B6
:102DF00017F90122FF21786800F012F9342223210B
:102E0000786800F00DF900224221786800F008F996
:102E1000FF224421786800F003F9262245217868D2
:102E200000F0FEF805224621786800F0F9F840220B
:102E30004021786800F0F4F806220E21786800F04E
:102E4000EFF81A222021786800F0EAF840224321A6
:102E5000786800F0E5F80022FF21786800F0E0F8DB
:102E600003223421786800F0DBF8442235217868A9
:102E700000F0D6F80122FF21786800F0D1F8042292
:102E80003121786800F0CCF809224B21786800F0F5
:102E9000C7F805224C21786800F0C2F804224D21C1
:102EA000786800F0BDF80022FF21786800F0B8F8DB
:102EB00000224421786800F0B3F820224521786888
:102EC00000F0AEF808224721786800F0A9F828221F
:102ED0004821786800F0A4F800226721786800F0A3
:102EE0009FF804227021786800F09AF8012271217D
:102EF000786800F095F8FE227221786800F090F86A
:102F000000227621786800F08BF80022772178681B
:102F100000F086F80122FF21786800F081F8012294
:102F20000D21786800F07CF80022FF21786800F01D
:102F300077F801228021786800F072F8F8220121E8
:102F4000786800F06DF80122FF21786800F068F8D9
:102F500001228E21786800F063F801220021786850
:102F600000F05EF80022FF21786800F059F8002296
:102F70008021786800F054F804220A21786800F073
:102F80004FF88421786800F0B1F8034623F010036D
:102F9000DBB21A468421786800F042F801220B2146
:102FA000786800F03DF8786800F0F7F902467B6831
:102FB0005A61E8220121786800F032F87B685B6989
:102FC0001946786800F050F901220121786800F074
:102FD00027F84021786800F041FE034683F00103A2
:102FE000DBB2002B01D0002316E002220121786819
:102FF00000F016F80021786800F030FE034683F0F8
:103000000103DBB2002B01D0002305E0E8220121FF
:10301000786800F005F8012318461837BD4680BDD2
:1030200080B584B000AF78600B46FB701346BB7070
:10303000FB783B73BB787B737B689B7807F10C0153
:1030400002221846FEF7B0F903461A467B681A704A
:1030500000BF1037BD4680BD80B584B000AF78603A
:103060000B46FB7013463B80FB783B733B881B0A87
:103070009BB2DBB27B733B88DBB2BB737B689B7814
:1030800007F10C0103221846FEF78EF903461A4693
:103090007B681A7000BF1037BD4680BD80B586B012
:1030A00000AFF8600B467A60FB72FB7A3B747B687A
:1030B0001B0EDBB27B747B681B0CDBB2BB747B68C2
:1030C0001B0ADBB2FB747B68DBB23B75FB689B7849
:1030D00007F1100105221846FEF766F903461A4665
:1030E000FB681A7000BF1837BD4680BD80B584B03C
:1030F00000AF78600B46FB707B689B78F91C01225F
:103100001846FEF751F97B689B7807F10F01012201
:103110001846FDF719FF03461A467B681A70FB7BB9
:1031200018461037BD4680BD80B584B000AF7860CA
:103130000B46FB707B689B78F91C01221846FEF752
:1031400033F97B689B7807F10C0102221846FDF7E2
:10315000FBFE03461A467B681A703B7B9BB21B0240
:10316000FB817B7B9AB2FB891343FB81FB89184669
:103170001037BD4680BD80B584B000AFF8607A607E
:103180001A460B46FB721346BB72FB689B7807F12D
:103190000B0101221846FEF707F9FB689B78BA7A03
:1031A00079681846FEF700F903461A46FB681A705C
:1031B00000BF1037BD4680BD80B584B000AFF86059
:1031C0007A601A460B46FB721346BB72FB689B780B
:1031D00007F10B0101221846FEF7E6F8FB689B7821
:1031E000BA7A79681846FDF7AFFE03461A46FB68BF
:1031F0001A7000BF1037BD4680BD000000000000FF
:1032000080B582B000AF786039604FF00001386857
:1032100001F0A0FC0346002B0AD1386801F01CFA2B
:103220000FA3D3E9002301F0EDFA0346002B01D0F0
:10323000002310E04FF08641386801F0EDFA0346B4
:10324000184601F0AFFC03469BB21A464421786849
:10325000FFF702FF012318460837BD4680BD00BFB7
:10326000A4703D0AD7FF7F4080B592B000AF786070
:1032700039604FF4A563A7F840304FF47073FB87B3
:103280004FF42573BB8740F24E237B8740F2B22375
:103290003B874FF42573FB8640F22623BB8644F61A
:1032A00020633B633A683B6B9A4201D2002370E093
:1032B000B7F84020FB8F13447B6407F124031946C1
:1032C000786800F088FB07F10C0207F12403194627
:1032D000786800F0CBFB97F82430002B05D0BA6952
:1032E0007B8F13447A6C13447B6497F82630002B51
:1032F00007D0BA693B8F13445B007A6C13447B643C
:1033000009E097F82530002B05D0BA69BB8F13442C
:103310007A6C13447B6497F82730002B05D0FA6948
:10332000FB8E13447A6C13447B6497F82830002B8F
:103330002ED0BB8E7A6C13447B647A6C3B689A42C5
:1033400001D9002325E03A687B6CD31AFB62FB8924
:10335000DBB21946F86A00F05BFC0346A7F842307E
:1033600097F82730002B05D07A8AB7F842301344FB
:10337000A7F84230B7F84230184600F0F6FB034693
:103380001A4671217868FFF767FE7B683A685A61D0
:10339000012318464837BD4680BD80B58EB000AFCA
:1033A000786040F276737B864FF470733B864FF4FF
:1033B0002573FB8540F24E23BB8540F2B2237B850B
:1033C0004FF425733B8540F22623FB847A8E3B8E97
:1033D00013447B6307F120031946786800F0FBFA79
:1033E00007F1080207F120031946786800F03EFB58
:1033F00097F82030002B05D07A69BB8D13447A6B87
:1034000013447B6397F82230002B07D07A697B8DB9
:1034100013445B007A6B13447B6309E097F8213017
:10342000002B05D07A69FB8D13447A6B13447B63C0
:1034300097F82330002B05D0BA693B8D13447A6B83
:1034400013447B6397F82430002B05D0FA69FB8C7A
:1034500013447A6B13447B637B687A6B5A617B6B92
:1034600018463837BD4680BD80B58CB000AF786057
:103470000B46FB701346BB70BB785B08DBB2013BAD
:1034800087F82D3007F120031946786800F0A3FA79
:1034900007F1080207F120031946786800F0E6FA00
:1034A000FB78002B64D1BB780C3B062B28D801A2FB
:1034B00052F823F0D134000801350008DD3400084B
:1034C00001350008E934000801350008F53400082A
:1034D000182257217868FFF7A3FD13E03022572107
:1034E0007868FFF79DFD0DE0402257217868FFF7CF
:1034F00097FD07E0502257217868FFF791FD01E022
:10350000002323E1082256217868FFF789FD97F808
:103510002D301A4650217868FFF782FDBB69BA78D2
:103520001146184600F074FB03467B857B8D1846D8
:1035300000F01BFB03461A4651217868FFF78CFD0B
:103540007B69BA781146184600F062FB03463B855A
:103550003B8DB3F5807F04D83B8DDBB2013BDBB202
:1035600000E0FF231A4646217868FFF759FDCFE0B7
:10357000FB78012B40F0CA80BB78083B062B00F299
:10358000A18001A252F823F0A5350008C536000835
:10359000ED350008C536000835360008C536000888
:1035A0007D360008102248217868FFF739FD08228F
:1035B00047217868FFF734FD022232217868FFF74F
:1035C0002FFD0C2230217868FFF72AFD0122FF2110
:1035D0007868FFF725FD302230217868FFF720FD5D
:1035E0000022FF217868FFF71BFD6DE028224821AB
:1035F0007868FFF715FD082247217868FFF710FD6E
:10360000032232217868FFF70BFD09223021786808
:10361000FFF706FD0122FF217868FFF701FD202258
:1036200030217868FFF7FCFC0022FF217868FFF763
:10363000F7FC49E0382248217868FFF7F1FC0822BE
:1036400047217868FFF7ECFC032232217868FFF706
:10365000E7FC082230217868FFF7E2FC0122FF2115
:103660007868FFF7DDFC202230217868FFF7D8FC6E
:103670000022FF217868FFF7D3FC25E0482248218B
:103680007868FFF7CDFC082247217868FFF7C8FC6F
:10369000032232217868FFF7C3FC072230217868C3
:1036A000FFF7BEFC0122FF217868FFF7B9FC20225A
:1036B00030217868FFF7B4FC0022FF217868FFF71B
:1036C000AFFC01E0002341E097F82D301A4670214D
:1036D0007868FFF7A5FCFB69BA781146184600F038
:1036E00097FA0346FB8597F82330002B03D0FA891D
:1036F000FB8D1344FB85FB8D184600F036FA03461C
:103700001A4671217868FFF7A7FC01E000231DE04D
:103710007B685B6919467868FFF7A6FD0121786828
:10372000FFF7E4FC034687F827300222012178687E
:10373000FFF776FC0021786800F090FA97F82730C0
:103740001A4601217868FFF76BFC012318463037D1
:10375000BD4680BD80B582B000AF78600B46FB707F
:10376000FB78002B09D150217868FFF7BFFC034696
:103770000133DBB25B00DBB20DE0FB78012B09D13A
:1037800070217868FFF7B2FC03460133DBB25B00BF
:10379000DBB200E0FF2318460837BD4680BD80B588
:1037A00084B000AF78603960012280217868FFF72B
:1037B00037FC0122FF217868FFF732FC002200214C
:1037C0007868FFF72DFC7B681B7C1A46912178688E
:1037D000FFF726FC012200217868FFF721FC002278
:1037E000FF217868FFF71CFC002280217868FFF732
:1037F00017FC3B68002B18D0F8217868FFF794FC81
:103800000346FB81FB89002B04D0FA893B6802FB4D
:1038100003F33B603A6804217868FFF73FFC042219
:1038200000217868FFF7FCFB04E0022200217868A1
:10383000FFF7F6FB00BF1037BD4680BD80B584B0F2
:1038400000AF7860786800F03DFA0BE0786800F02F
:1038500049FA0346002B05D07B6801221A724FF605
:10386000FF7314E013217868FFF740FC034603F070
:103870000703002BEAD01E217868FFF755FC0346AA
:10388000FB8101220B217868FFF7CAFBFB891846F0
:103890001037BD4680BD80B586B000AFF860B96016
:1038A0007A6001228021F868FFF7BAFB0122FF212C
:1038B000F868FFF7B5FB00220021F868FFF7B0FBBE
:1038C0000622FF21F868FFF7ABFB8321F868FFF7BA
:1038D0000DFC034643F00403DBB21A468321F8686B
:1038E000FFF79EFB0722FF21F868FFF799FB0122F3
:1038F0008121F868FFF794FB01228021F868FFF727
:103900008FFB6B229421F868FFF78AFB002283214A
:10391000F868FFF785FBF86800F0D4F907E0F8686D
:1039200000F0E0F90346002B01D000234FE0832193
:10393000F868FFF7DBFB0346002BF0D00122832160
:10394000F868FFF76DFB9221F868FFF7CFFB03469D
:10395000FB75FB7D03F07F03DAB2BB681A70FB7D59
:10396000DB09DBB203F00103002B14BF01230023AA
:10397000DAB27B681A7000228121F868FFF750FBE9
:103980000622FF21F868FFF74BFB8321F868FFF759
:10399000ADFB034623F00403DBB21A468321F8682B
:1039A000FFF73EFB0122FF21F868FFF739FB0122F8
:1039B0000021F868FFF734FB0022FF21F868FFF7C9
:1039C0002FFB00228021F868FFF72AFB012318460D
:1039D0001837BD4680BD80B584B000AF78603960CF
:1039E00001217868FFF782FB0346FB73FB7B1B0911
:1039F000DBB203F00103002B14BF01230023DAB272
:103A00003B681A70FB7BDB08DBB203F00103002B81
:103A100014BF01230023DAB23B689A70FB7B9B083A
:103A2000DBB203F00103002B14BF01230023DAB241
:103A30003B685A70FB7B9B09DBB203F00103002B50
:103A400014BF01230023DAB23B68DA70FB7BDB0989
:103A5000DBB203F00103002B14BF01230023DAB211
:103A60003B681A7100BF1037BD4680BD80B584B079
:103A700000AFF860B9607A600021F868FFF76AFE6D
:103A800003469AB27B681A804621F868FFF72EFB3E
:103A900003469BB201339AB27B689A807B689A880E
:103AA0007B681B88DBB21946104600F089F8024695
:103AB0007B68DA605121F868FFF736FB0346184649
:103AC00000F040F803461A467B68DA807B68DA88A3
:103AD0007B681B88DBB21946104600F071F802467D
:103AE0007B681A610121F868FFF734FE03469AB239
:103AF0007B685A807121F868FFF716FB0346184669
:103B000000F020F803461A467B681A81BB68DB7810
:103B1000002B07D07B681A897B68DB88D31A9AB29E
:103B20007B681A817B681A897B685B88DBB21946DF
:103B3000104600F045F802467B685A6100BF103716
:103B4000BD4680BD80B483B000AF0346FB80FB88D8
:103B5000DBB2FA88120A92B293409BB201339BB255
:103B600018460C37BD4680BC704780B485B000AFA6
:103B70000346FB800023FB6000237B81FB88002B36
:103B800018D0FB88013BFB6005E0FB685B08FB602D
:103B90007B8901337B81FB6823F0FF03002BF4D189
:103BA0007B891B029AB2FB689BB2DBB29BB21343C8
:103BB0009BB200E0002318461437BD4680BC704716
:103BC00080B485B000AF03460A46FB8013467B7184
:103BD0007B790D4A02FB03F303F5FA730B4AA2FB50
:103BE00003239B09FB60FB88FA6802FB03F2FB6876
:103BF0005B081344054AA2FB03239B0918461437AC
:103C0000BD4680BC704700BF002F3A00D34D621004
:103C100080B485B000AF78600B46FB70FB780D4A2E
:103C200002FB03F303F5FA730B4AA2FB03239B0980
:103C3000FB607B684FF47A7202FB03F2FB685B085F
:103C40001A44FB68B2FBF3F318461437BD4680BC38
:103C5000704700BF002F3A00D34D621080B582B08C
:103C600000AF78600B46FB70FB7843F00103DBB2DA
:103C70001A4600217868FFF7D3F9786800F022F837
:103C800007E0786800F02EF80346002B01D00023EF
:103C900013E013217868FFF729FA034603F00703BE
:103CA000002BEED001220B217868FFF7B9F9002232
:103CB00000217868FFF7B4F9012318460837BD469C
:103CC00080BD000080B483B000AF7860044B1A68F8
:103CD0007B68DA6000BF0C37BD4680BC704700BF10
:103CE000F400002080B483B000AF78607B685B682C
:103CF000002B0AD0094B1A687B68DB68D21A7B68F4
:103D00005B689A4201D9012300E0002303F001031C
:103D1000DBB218460C37BD4680BC7047F40000206B
:103D200080B592B000AF4FF40040FDF7FBFD0121DC
:103D300040F20D20FDF7E0FE01210120FDF7BEFE5F
:103D400001233B610023FB600023FB62334BBB601C
:103D50004FF480633B628023BB6120237B62304B46
:103D60007B604FF48073FB6100237B614FF4005351
:103D7000BB623B1D19462B4800F060F80121294821
:103D800000F09AF82023A7F84430002387F8473042
:103D900007F1440319462448FCF74FFF012387F835
:103DA00035300023FB634FF46023BB6300233B6388
:103DB000012387F84030012387F8343007F13003BE
:103DC00019461A48FDF72CFF032301220521174845
:103DD000FEF715F801211548FDF774FF012113487E
:103DE000FDF78BFF1148FDF7A3FF00BF0F48FDF75C
:103DF000AEFF0346002BF9D10C48FDF7BFFF00BF13
:103E00000A48FDF7CAFF0346002BF9D101210748F4
:103E1000FDF7DAFF00BF4837BD4680BD4C000020EB
:103E20004C240140080002400008014000240140E9
:103E300080B500AFFFF774FF00BF80BD80B485B0D0
:103E400000AF786039600023FB607B681B68FB6013
:103E5000FB6823F4FF4323F07003FB603B689A6820
:103E60003B681B6A1A433B681B691A433B685B69E2
:103E70001A433B689B691A433B68DB691A433B68FA
:103E80005B6A1A433B689B6A1343FA681343FB60FF
:103E90007B68FA681A603B68DA687B685A603B683E
:103EA0001A687B689A603B685A687B68DA6000BF72
:103EB0001437BD4680BC704780B483B000AF7860D3
:103EC0000B46FB70FB78002B06D07B681B6843F029
:103ED00001027B681A6006E07B681A684FF6FE7381
:103EE00013407A68136000BF0C37BD4680BC704732
:103EF00080B487B000AF786000237B6100233B6112
:103F00000F23FB607B68DB78002B3AD0274BDB6804
:103F1000DB431B0A03F007037B617B69C3F10403E6
:103F20003B61FA687B6922FA03F3FB607B685B788C
:103F30001A463B6902FA03F37B617B689B781A4659
:103F4000FB6813407A6913437B617B691B017B61CA
:103F5000174A7B681B787969C9B213440A4683F80B
:103F600000237B681B7803F01F0311497A681278DD
:103F70005209D2B21046012202FA03F341F820306E
:103F80000FE07B681B7803F01F0309497A681278F9
:103F90005209D2B2104601229A4000F1200341F8A2
:103FA000232000BF1C37BD4680BC704700ED00E0F9
:103FB00000E100E080B582B000AF78607B680E4A17
:103FC00093420AD101214FF40010FDF7D1FD0021E9
:103FD0004FF40010FDF7CCFD09E001214FF4800003
:103FE000FDF7C6FD00214FF48000FDF7C1FD00BFC5
:103FF0000837BD4680BD00BF0054004080B58AB080
:1040000000AF786039600023FB8400237B840423A5
:10401000BB84574BFB617B689B88FB84FB8C23F044
:104020003F03FB8407F108031846FDF797FC3B6943
:10403000FB61FB694F4AA2FB03239B0C7B84FA8C38
:104040007B8C1343FB847B68FA8C9A807B681B888B
:104050009BB223F001039AB27B681A800023FB8491
:104060003B681B68444A934215D83B681B685B0059
:10407000FA69B2FBF3F3BB84BB8C032B01D8042396
:10408000BB84FA8CBB8C1343FB847B8C01339AB2C8
:104090007B681A8440E03B68DB884BF6FF729342F2
:1040A00009D13B681A6813465B001344FA69B2FBF6
:1040B000F3F3BB840EE03B681A6813469B0013447D
:1040C0009A001344FA69B2FBF3F3BB84BB8C43F44C
:1040D0008043BB84BB8CC3F30B03002B03D1BB8C8D
:1040E00043F00103BB84BA8CFB8C13439BB26FEA91
:1040F00043436FEA5343FB847B8C4FF4967202FB7D
:1041000003F31E4A82FB03129211DB17D31A9BB2F0
:1041100001339AB27B681A847B68FA8C9A837B6835
:104120001B889BB243F001039AB27B681A807B68BC
:104130001B88FB84FB8C23F4816323F00203FB8444
:104140003B689A883B685B8913439AB2FB8C1343A4
:10415000FB847B68FA8C1A803B689A893B681B89D0
:1041600013439AB27B681A8100BF2837BD4680BDD1
:1041700000127A0083DE1B43A0860100D34D62103B
:1041800080B483B000AF78600B46FB70FB78002BE7
:1041900008D07B681B889BB243F001039AB27B680E
:1041A0001A8007E07B681B889BB223F001039AB258
:1041B0007B681A8000BF0C37BD4680BC704780B456
:1041C00083B000AF78600B46FB70FB78002B08D003
:1041D0007B681B889BB243F480739AB27B681A8019
:1041E00007E07B681B889BB223F480739AB27B68DC
:1041F0001A8000BF0C37BD4680BC704780B483B0C6
:1042000000AF78600B46FB70FB78002B08D07B6812
:104210001B889BB243F400739AB27B681A8007E054
:104220007B681B889BB223F400739AB27B681A8068
:1042300000BF0C37BD4680BC704780B483B000AF70
:1042400078600B46FB70FB78002B08D07B681B88DE
:104250009BB243F480639AB27B681A8007E07B6864
:104260001B889BB223F480639AB27B681A8000BFDC
:104270000C37BD4680BC704780B483B000AF786017
:104280000B46FB70FB789AB27B681A8200BF0C3732
:10429000BD4680BC704780B483B000AF78607B6857
:1042A0001B8A9BB2DBB218460C37BD4680BC7047F8
:1042B00080B483B000AF78600B46FB701346BB70D0
:1042C000BB78002B04D0FB7843F00103FB7003E0C4
:1042D000FB7823F00103FB70FB789AB27B681A82AB
:1042E00000BF0C37BD4680BC704780B483B000AFC0
:1042F00078600B46FB70FB78002B0AD07B681B882C
:104300009BB26FEA43436FEA53439AB27B681A80C9
:1043100007E07B681B889BB2C3F30E039AB27B68ED
:104320001A8000BF0C37BD4680BC704780B487B090
:1043300000AF786039600023FB7500233B610023E8
:10434000FB607B68FB603B681B0F3B613B6823F0B5
:104350007F433B603B69002B03D0FB681433FB6059
:1043600005E03B681B0C3B60FB681833FB60FB6897
:104370001A683B681340002B02D00123FB7501E053
:104380000023FB75FB7D18461C37BD4680BC70477B
:1043900081F0004102E000BF83F0004330B54FEAF6
:1043A00041044FEA430594EA050F08BF90EA020F63
:1043B0001FBF54EA000C55EA020C7FEA645C7FEAF6
:1043C000655C00F0E2804FEA5454D4EB5555B8BF19
:1043D0006D420CDD2C4480EA020281EA030382EA8A
:1043E000000083EA010180EA020281EA0303362D1C
:1043F00088BF30BD11F0004F4FEA01314FF4801CEF
:104400004CEA113102D0404261EB410113F0004F00
:104410004FEA03334CEA133302D0524263EB4303B7
:1044200094EA050F00F0A780A4F10104D5F1200E55
:104430000DDB02FA0EFC22FA05F2801841F10001B0
:1044400003FA0EF2801843FA05F359410EE0A5F184
:1044500020050EF1200E012A03FA0EFC28BF4CF0B5
:10446000020C43FA05F3C01851EBE37101F000456B
:1044700007D54FF0000EDCF1000C7EEB00006EEB78
:104480000101B1F5801F1BD3B1F5001F0CD3490802
:104490005FEA30004FEA3C0C04F101044FEA445259
:1044A00012F5800F80F09A80BCF1004F08BF5FEAE0
:1044B000500C50F1000041EB045141EA050130BDC0
:1044C0005FEA4C0C404141EB010111F4801FA4F163
:1044D0000104E9D191F0000F04BF01460020B1FAB8
:1044E00081F308BF2033A3F10B03B3F120020CDAF0
:1044F0000C3208DD02F1140CC2F10C0201FA0CF0CE
:1045000021FA02F10CE002F11402D8BFC2F1200C32
:1045100001FA02F120FA0CFCDCBF41EA0C019040E8
:10452000E41AA2BF01EB0451294330BD6FEA040431
:104530001F3C1CDA0C340EDC04F11404C4F120021C
:1045400020FA04F001FA02F340EA030021FA04F32E
:1045500045EA030130BDC4F10C04C4F1200220FA85
:1045600002F001FA04F340EA0300294630BD21FAC3
:1045700004F0294630BD94F0000F83F4801306BF89
:1045800081F480110134013D4EE77FEA645C18BF7D
:104590007FEA655C29D094EA050F08BF90EA020F14
:1045A00005D054EA000C04BF1946104630BD91EA0C
:1045B000030F1EBF0021002030BD5FEA545C05D10F
:1045C0004000494128BF41F0004130BD14F580044E
:1045D0003CBF01F5801130BD01F0004545F0FE41C2
:1045E00041F470014FF0000030BD7FEA645C1ABFF7
:1045F000194610467FEA655C1CBF0B46024650EA2E
:10460000013406BF52EA033591EA030F41F4002159
:1046100030BD00BF90F0000F04BF0021704730B5DF
:104620004FF4806404F132044FF000054FF00001B4
:1046300050E700BF90F0000F04BF0021704730B575
:104640004FF4806404F1320410F0004548BF40424A
:104650004FF000013EE700BF42004FEAE2014FEA9F
:1046600031014FEA02701FBF12F07F4393F07F4F7A
:1046700081F06051704732F07F4208BF704793F07D
:104680007F4F04BF41F40021704730B54FF4607490
:1046900001F0004521F000411CE700BF50EA010293
:1046A00008BF704730B54FF000050AE050EA01023C
:1046B00008BF704730B511F0004502D5404261EBAC
:1046C00041014FF4806404F132045FEA915C3FF4ED
:1046D000D8AE4FF003025FEADC0C18BF03325FEA8A
:1046E000DC0C18BF033202EBDC02C2F1200300FA3B
:1046F00003FC20FA02F001FA03FE40EA0E0021FA60
:1047000002F11444BDE600BF4FF0FF3C06E000BFDD
:104710004FF0010C02E000BF4FF0010C4DF804CD4A
:104720004FEA410C7FEA6C5C4FEA430C18BF7FEA0A
:104730006C5C1BD001B050EA410C0CBF52EA430C38
:1047400091EA030F02BF90EA020F0020704710F1B8
:10475000000F91EA030F58BF994208BF90422CBF47
:10476000D8176FEAE37040F0010070474FEA410C40
:104770007FEA6C5C02D150EA013C07D14FEA430C5E
:104780007FEA6C5CD6D152EA033CD3D05DF8040BCF
:10479000704700BF8446104662468C461946634601
:1047A00000E000BF01B5FFF7B7FF002848BF10F1D8
:1047B000000F01BD4DF808EDFFF7F4FF0CBF01201D
:1047C00000205DF808FB00BF4DF808EDFFF7EAFF99
:1047D00034BF012000205DF808FB00BF4DF808ED54
:1047E000FFF7E0FF94BF012000205DF808FB00BF49
:1047F0004DF808EDFFF7CEFF94BF012000205DF8D3
:1048000008FB00BF4DF808EDFFF7C4FF34BF0120DF
:1048100000205DF808FB00BF4FF0FF0C1CEAD052EF
:104820001EBF1CEAD15392EA0C0F93EA0C0F6FD013
:104830001A4480EA010C400218BF5FEA41211ED0F1
:104840004FF0006343EA501043EA5111A0FB0131DD
:104850000CF00040B1F5000F3EBF490041EAD371B2
:104860005B0040EA010062F17F02FD2A1DD8B3F12E
:10487000004F40EBC25008BF20F00100704790F09D
:10488000000F0CF0004C08BF49024CEA502040EAEF
:1048900051207F3AC2BFD2F1FF0340EAC2507047B5
:1048A00040F400004FF00003013A5DDC12F1190FF3
:1048B000DCBF00F000407047C2F10002410021FA65
:1048C00002F1C2F1200200FA02FC5FEA310040F17D
:1048D000000053EA4C0308BF20EADC70704792F0F6
:1048E000000F00F0004C02BF400010F4000F013A2E
:1048F000F9D040EA0C0093F0000F01F0004C02BF29
:10490000490011F4000F013BF9D041EA0C018FE797
:104910000CEAD15392EA0C0F18BF93EA0C0F0AD09D
:1049200030F0004C18BF31F0004CD8D180EA0100C3
:1049300000F00040704790F0000F17BF90F0004F5C
:10494000084691F0000F91F0004F14D092EA0C0F3E
:1049500001D142020FD193EA0C0F03D14B0218BFD1
:10496000084608D180EA010000F0004040F0FE4017
:1049700040F40000704740F0FE4040F440007047B3
:104980004FF0FF0C1CEAD0521EBF1CEAD15392EA32
:104990000C0F93EA0C0F69D0A2EB030280EA010C22
:1049A00049024FEA402037D04FF0805343EA1111BB
:1049B00043EA10130CF000408B4238BF5B0042F119
:1049C0007D024FF4000C8B4224BF5B1A40EA0C00BE
:1049D000B3EB510F24BFA3EB510340EA5C00B3EBF0
:1049E000910F24BFA3EB910340EA9C00B3EBD10FDE
:1049F00024BFA3EBD10340EADC001B0118BF5FEA30
:104A00001C1CE0D1FD2A3FF650AF8B4240EBC25058
:104A100008BF20F0010070470CF0004C4CEA502019
:104A20007F32C2BFD2F1FF0340EAC250704740F468
:104A300000004FF00003013A37E792F0000F00F05A
:104A4000004C02BF400010F4000F013AF9D040EAD8
:104A50000C0093F0000F01F0004C02BF490011F46C
:104A6000000F013BF9D041EA0C0195E70CEAD15364
:104A700092EA0C0F08D142027FF47DAF93EA0C0F4B
:104A80007FF470AF084676E793EA0C0F04D14B022F
:104A90003FF44CAF08466EE730F0004C18BF31F0E1
:104AA000004CCAD130F000427FF45CAF31F00043DB
:104AB0007FF43CAF5FE700BF4FF0FF3C06E000BF74
:104AC0004FF0010C02E000BF4FF0010C4DF804CD97
:104AD0004FEA40024FEA41037FEA226C18BF7FEAA7
:104AE000236C11D001B052EA530C18BF90EA010FA9
:104AF00058BFB2EB030088BFC81738BF6FEAE17038
:104B000018BF40F0010070477FEA226C02D15FEAD3
:104B1000402C05D17FEA236CE4D15FEA412CE1D03F
:104B20005DF8040B704700BF844608466146FFE706
:104B30000FB5FFF7C9FF002848BF10F1000F0FBDE8
:104B40004DF808EDFFF7F4FF0CBF012000205DF8E1
:104B500008FB00BF4DF808EDFFF7EAFF34BF012066
:104B600000205DF808FB00BF4DF808EDFFF7E0FFFF
:104B700094BF012000205DF808FB00BF4DF808ED50
:104B8000FFF7D2FF94BF012000205DF808FB00BFB3
:104B90004DF808EDFFF7C8FF34BF012000205DF895
:104BA00008FB00BF42000ED2B2F1FE4F0BD34FF014
:104BB0009E03B3EB126209D44FEA002343F0004393
:104BC00023FA02F070474FF00000704712F1610FB6
:104BD00001D1420202D14FF0FF3070474FF0000088
:104BE000704700BF5200000052000000100000009B
:0C4BF00011000000120000001300000083
:104BFC0000A24A04000000000000000001020304AF
:104C0C000607080900012900F4010000000000005B
:104C1C000000000000000000000000000000000088
:104C2C000102030401020304060708090204060832
:104C3C003C0000003E0000007C000000AAAAAAAACA
:084C4C00AAAAAAAAAAAAAAAA10
:0400000508000000EF
:00000001FF
