:020000040800F2
:10000000C00400205D100008BD100008BD100008ED
:10001000BD100008BD100008BD1000080000000061
:10002000000000000000000000000000BD100008FB
:10003000BD10000800000000BD100008A501000868
:10004000BD100008BD100008BD100008BD1000085C
:10005000BD100008BD100008BD100008BD1000084C
:10006000BD100008BD100008BD100008BD1000083C
:10007000BD100008BD100008BD100008BD1000082C
:10008000BD100008BD100008BD100008BD1000081C
:10009000BD100008BD100008BD100008BD1000080C
:1000A000BD100008BD100008BD100008BD100008FC
:1000B000BD100008BD100008F9040008BD100008BC
:1000C000BD100008BD100008BD100008BD100008DC
:1000D000BD10000805060008BD100008BD1000088E
:1000E000BD100008BD100008BD1000080000000091
:1000F0000000000000000000000000000000000000
:1001000000000000000000005FF808F180B483B038
:1001100000AF03463960FB7197F90730002B0BDA0B
:100120003B68DAB20C49FB7903F00F03043B120180
:10013000D2B20B441A7609E03B68DAB2074997F964
:1001400007301201D2B20B4483F8002300BF0C37F2
:10015000BD4680BC704700BF00ED00E000E100E05C
:1001600080B582B000AF78607B68B3F1807F01D347
:10017000012311E07B6823F07F43094A013B536070
:100180000F214FF0FF30FFF7C1FF054B00229A60AF
:10019000034B07221A60002318460837BD4680BD6E
:1001A00010E000E080B400AF064B1B68002B04D0C9
:1001B000044B1B68013B034A136000BFBD4680BC73
:1001C000704700BF3C00002080B500AF00F054FE37
:1001D000054B1B68054AA2FB03239B0C1846FFF73F
:1001E000BFFF00BF80BD00BF0000002083DE1B43B7
:1001F00080B483B000AF7860064A7B68136000BFAC
:10020000044B1B68002BFBD100BF0C37BD4680BCE4
:10021000704700BF3C00002080B582B000AF78601E
:1002200003E04FF47A70FFF7E3FF7B685A1E7A60B1
:10023000002BF6D100BF0837BD4680BD80B485B025
:1002400000AF786039600023FB817B681B88FB81ED
:100250007B682E4A934213D07B682D4A93420FD07D
:100260007B68B3F1804F0BD07B682A4A934207D05A
:100270007B68294A934203D07B68284A934208D17D
:10028000FB8923F07003FB813B685A88FB89134389
:10029000FB817B68224A93420CD07B68214A9342BF
:1002A00008D0FB8923F44073FB813B68DA88FB8923
:1002B0001343FB817B68FA891A803B689A887B68C4
:1002C0009A853B681A887B681A857B680F4A934237
:1002D0000FD07B680E4A93420BD07B68124A934240
:1002E00007D07B68114A934203D07B68104A93423F
:1002F00004D13B681B7A9AB27B681A867B6801221C
:100300009A8200BF1437BD4680BC7047002C014064
:10031000003401400004004000080040000C004090
:100320000010004000140040004001400044014023
:100330000048014080B483B000AF78600B46FB708A
:10034000FB78002B08D07B681B889BB243F001032D
:100350009AB27B681A8007E07B681B889BB223F007
:1003600001039AB27B681A8000BF0C37BD4680BC7F
:100370007047000080B582B000AF7860012108208E
:1003800001F08AFA7B689AB2074B1A80064B10225A
:10039000DA70054B02229A700349044800F091FE7E
:1003A00000BF0837BD4680BD78000020000C01402A
:1003B00080B582B000AF78600121082001F06CFAAE
:1003C0007B689AB2074B1A80064B0422DA70054B01
:1003D00002229A700349044800F073FE00BF0837F8
:1003E000BD4680BD78000020000C014080B500AF04
:1003F0000121042001F06EFA094B47221A80084BB4
:100400004FF6FE729A80064B0022DA80044B0022DF
:100410005A8003490348FFF711FF00BF80BD00BFAA
:100420006C0000200008004080B582B000AF78600A
:100430007B68002B0DD0012B00D015E001210C486A
:10044000FFF778FF0B4B00221A60094800F048F8CC
:100450000AE000210648FFF76DFF054B9B8C9BB21D
:100460001A46044B1A6000BF00BF0837BD4680BD66
:10047000000800406800002080B582B000AF7860BE
:100480007B689BB21946154800F0FEFE0220FFF77C
:10049000AFFE7B689BB21946104800F0E7FE7B6810
:1004A000B3F5004F06D07B68B3F5804F02D07B6870
:1004B000402B03D10720FFF79BFE02E00720FFF748
:1004C00097FE7B689BB21946044800F0DDFE0520CC
:1004D000FFF78EFE00BF0837BD4680BD000C01400F
:1004E00080B483B000AF78607B6800229A8400BF3C
:1004F0000C37BD4680BC704780B400AF00BFBD461E
:1005000080BC704780B582B000AF7860012144F2B2
:10051000050001F0C1F9264B4FF400721A80244BFC
:1005200003229A70224B1822DA702149214800F0E8
:10053000C8FD1F4B4FF480621A801D4B0422DA70F5
:100540001B491C4800F0BDFD7B681B4A13601A4B19
:1005500000229A80184B0022DA80174B00221A8161
:10056000154B00229A81144B0C225A8112491348D0
:1005700001F0C0FB0121114801F076FC012240F29C
:1005800025510E4801F08FFC0D4B25221A700C4BA3
:1005900000225A700A4B01229A70094B0122DA702C
:1005A000074802F083F800BF0837BD4680BD00BF92
:1005B00078000020000801407C0000200038014045
:1005C0009000002080B582B000AF7860396000BF35
:1005D0008021786801F0CEFC0346002BF8D03B6800
:1005E0009BB21946786801F0A5FC00BF40217868ED
:1005F00001F0C0FC0346002BF8D000BF0837BD4611
:1006000080BD000080B500AF40F22551094801F0DF
:10061000CCFC0346002B0BD040F22551054801F0DD
:100620001EFD044801F097FC0346DAB2024B1A7033
:1006300000BF80BD003801405100002080B500AFF0
:1006400001210448FFF776FE0248FFF749FF00BF8B
:1006500080BD00BF0008004080B582B000AF786068
:100660000B4B9B8C9BB21A467B68934207DC094B71
:1006700001221A6000210648FFF75CFE02E0054BEC
:1006800000221A60034B1B6818460837BD4680BD20
:10069000000800409400002090B585B000AF78605D
:1006A0000023FB607B68092B00F2558301A252F8FE
:1006B00023F000BFDD0600087B07000819080008CA
:1006C000C3080008610900080B0A0008B30A000803
:1006D0005D0B0008B10C0008070C00080220FFF7B2
:1006E00049FE0220FFF7C8FE0220FFF761FEFFF778
:1006F000A5FF06E04CF25030FFF7AEFF0346012B9A
:1007000007D00221C74800F098FD0346012BF1D025
:1007100000E000BFFFF792FF06E04CF25030FFF719
:100720009BFF0346012B07D00221BE4800F085FD48
:100730000346002BF1D000E000BF0120FFF774FE5C
:1007400010E04CF25030FFF787FF0346012B09D130
:100750000021B548FFF7EEFDB348FFF7C1FE0123C6
:10076000FB6006E00221AF4800F067FD0346012B65
:10077000E7D00020FFF758FEEDE20820FFF7FAFD72
:100780000820FFF779FE0820FFF712FEFFF756FF5B
:1007900006E04CF25030FFF75FFF0346012B07D015
:1007A0000821A04800F049FD0346012BF1D000E0EC
:1007B00000BFFFF743FF06E04CF25030FFF74CFF5D
:1007C0000346012B07D00821964800F036FD03466A
:1007D000002BF1D000E000BF0120FFF725FE10E064
:1007E0004CF25030FFF738FF0346012B09D10021AE
:1007F0008D48FFF79FFD8C48FFF772FE0123FB60D9
:1008000006E00821874800F018FD0346012BE7D0D9
:100810000020FFF709FE9EE24FF48050FFF7AAFD8B
:100820004FF48050FFF728FE4FF48050FFF7C0FDD3
:10083000FFF704FF06E04CF25030FFF70DFF0346D0
:10084000012B08D04FF48051764800F0F6FC0346A7
:10085000012BF0D000E000BFFFF7F0FE06E04CF205
:100860005030FFF7F9FE0346012B08D04FF48051BA
:100870006C4800F0E2FC0346002BF0D000E000BF23
:100880000120FFF7D1FD10E04CF25030FFF7E4FEFD
:100890000346012B09D100216348FFF74BFD624855
:1008A000FFF71EFE0123FB6007E04FF480515D4817
:1008B00000F0C3FC0346012BE6D00020FFF7B4FD97
:1008C00049E21020FFF756FD1020FFF7D5FD10205C
:1008D000FFF76EFDFFF7B2FE06E04CF25030FFF777
:1008E000BBFE0346012B07D010214E4800F0A5FCAB
:1008F0000346012BF1D000E000BFFFF79FFE06E0AA
:100900004CF25030FFF7A8FE0346012B07D0102110
:10091000444800F092FC0346002BF1D000E000BFF9
:100920000120FFF781FD10E04CF25030FFF794FEFC
:100930000346012B09D100213B48FFF7FBFC3A4855
:10094000FFF7CEFD0123FB6006E01021354800F0E3
:1009500074FC0346012BE7D00020FFF765FDFAE1A8
:100960004FF40050FFF706FD4FF40050FFF784FDF1
:100970004FF40050FFF71CFDFFF760FE06E04CF25D
:100980005030FFF769FE0346012B08D04FF40051A9
:10099000244800F052FC0346012BF0D000E000BFD9
:1009A000FFF74CFE06E04CF25030FFF755FE0346D1
:1009B000012B08D04FF400511A4800F03EFC0346CA
:1009C000002BF0D000E000BF0120FFF72DFD10E06C
:1009D0004CF25030FFF740FE0346012B09D10021B5
:1009E0001148FFF7A7FC1048FFF77AFD0123FB60D1
:1009F00007E04FF400510B4800F01FFC0346012BA9
:100A0000E6D00020FFF710FDA5E12020FFF7B2FCA3
:100A10002020FFF731FD2020FFF7CAFCFFF70EFE74
:100A20000BE000BF000C0140000800404CF25030C9
:100A3000FFF712FE0346012B07D02021BE4800F02D
:100A4000FCFB0346012BF1D000E000BFFFF7F6FDF1
:100A500006E04CF25030FFF7FFFD0346012B07D0B4
:100A60002021B54800F0E9FB0346002BF1D000E05F
:100A700000BF0120FFF7D8FC10E04CF25030FFF728
:100A8000EBFD0346012B09D10021AC48FFF752FCD6
:100A9000AA48FFF725FD0123FB6006E02021A648B8
:100AA00000F0CBFB0346012BE7D00020FFF7BCFC96
:100AB00051E14FF40040FFF75DFC4FF40040FFF7B9
:100AC000DBFC4FF40040FFF773FCFFF7B7FD06E0D7
:100AD0004CF25030FFF7C0FD0346012B08D04FF415
:100AE0000041954800F0A9FB0346012BF0D000E03F
:100AF00000BFFFF7A3FD06E04CF25030FFF7ACFD5E
:100B00000346012B08D04FF400418B4800F095FBC1
:100B10000346002BF0D000E000BF0120FFF784FC6B
:100B200010E04CF25030FFF797FD0346012B09D13E
:100B300000218248FFF7FEFB8048FFF7D1FC01232C
:100B4000FB6007E04FF400417B4800F076FB034672
:100B5000012BE6D00020FFF767FCFCE04FF40070AB
:100B6000FFF708FC4FF40070FFF786FC4FF40070AD
:100B7000FFF71EFCFFF762FD06E04CF25030FFF776
:100B80006BFD0346012B08D04FF400716A4800F05A
:100B900054FB0346012BF0D000E000BFFFF74EFDF1
:100BA00006E04CF25030FFF757FD0346012B08D00A
:100BB0004FF40071604800F040FB0346002BF0D07A
:100BC00000E000BF0120FFF72FFC10E04CF2503096
:100BD000FFF742FD0346012B09D100215748FFF7DB
:100BE000A9FB5648FFF77CFC0123FB6007E04FF4AC
:100BF0000071514800F021FB0346012BE6D0002094
:100C0000FFF712FCA7E04FF48040FFF7B3FB4FF46F
:100C10008040FFF731FC4FF48040FFF7C9FBFFF73E
:100C20000DFD06E04CF25030FFF716FD0346012B98
:100C300008D04FF48041404800F0FFFA0346012BF2
:100C4000F0D000E000BFFFF7F9FC06E04CF25030B6
:100C5000FFF702FD0346012B08D04FF480413648D0
:100C600000F0EBFA0346002BF0D000E000BF0120BB
:100C7000FFF7DAFB10E04CF25030FFF7EDFC0346D3
:100C8000012B09D100212D48FFF754FB2B48FFF71A
:100C900027FC0123FB6007E04FF48041264800F069
:100CA000CCFA0346012BE6D00020FFF7BDFB52E053
:100CB0004020FFF75FFB4020FFF7DEFB4020FFF7FF
:100CC00077FBFFF7BBFC06E04CF25030FFF7C4FCAB
:100CD0000346012B07D04021174800F0AEFA034627
:100CE000012BF1D000E000BFFFF7A8FC06E04CF2BA
:100CF0005030FFF7B1FC0346012B07D040210E48CE
:100D000000F09BFA0346002BF1D000E000BF012069
:100D1000FFF78AFB14E04CF25030FFF79DFC0346CE
:100D2000012B0DD100210548FFF704FB0348FFF715
:100D3000D7FB0123FB600AE0000C014000080040E3
:100D400040212F4800F079FA0346012BE3D0002020
:100D5000FFF76AFB00BFFB68002B42D17B68062BC4
:100D600005D07B68082B02D07B68092B0CD1254B62
:100D70001B68254AA2FB03235B09D9B2234A7B687F
:100D800013440A461A7031E01E4B1B68184601F0E6
:100D900031FE19A3D3E9002301F0A6FE03460C4659
:100DA000184621464FF000024FF0804301F0C6FF85
:100DB00003460C461846214602F0A8F80346D9B26D
:100DC000124A7B6813440A461A70104A7B6813441F
:100DD0001B78C72B0AD90D4A7B681344C8221A70A6
:100DE00004E00A4A7B681344FD221A7000BF1437DE
:100DF000BD4690BDAFF300809CC420B07268A13F97
:100E0000000C01406800002009CB3D8D400000200F
:100E100080B500AF154B1B68144A43F00103136003
:100E2000124B5A681149124B13404B600F4B1B6811
:100E30000E4A23F0847323F4803313600B4B1B683A
:100E40000A4A23F480231360084B5B68074A23F4A3
:100E5000FE035360054B4FF41F029A6000F078F8D0
:100E6000044B4FF000629A6000BF80BD001002404A
:100E70000000FFF800ED00E080B485B000AF002373
:100E8000FB600023BB6000237B602C4B5B6803F09E
:100E90000C03FB60FB68042B07D0082B09D0002B48
:100EA00033D1274B274A1A6033E0254B254A1A6075
:100EB0002FE0224B5B6803F47013BB601F4B5B6831
:100EC00003F480337B60BB689B0C0233BB607B68A0
:100ED000002B06D1BB681C4A02FB03F3184A1360BF
:100EE00017E0164B5B6803F40033002B06D0BB6899
:100EF000154A02FB03F3124A13600AE0BB68114A69
:100F000002FB03F30E4A136003E00D4B0D4A1A6017
:100F100000BF0A4B5B681B0903F00F030B4AD35C4D
:100F2000DBB2FB60064B1A68FB6822FA03F3044A43
:100F3000136000BF1437BD4680BC704700100240EC
:100F40000000002000127A0000093D00040000208B
:100F500080B500AF00F002F800BF80BD80B483B060
:100F600000AF00237B6000233B603A4B1B68394A8B
:100F700043F480331360374B1B6803F400333B604A
:100F80007B6801337B603B68002B03D17B68B3F542
:100F9000A06FF0D12F4B1B6803F40033002B02D05D
:100FA00001233B6001E000233B603B68012B4BD1F8
:100FB000294B1B68284A43F010031360264B1B681B
:100FC000254A23F003031360234B1B68224A43F096
:100FD000020313601F4B1F4A5B6853601D4B1D4A81
:100FE0005B6853601B4B5B681A4A43F48063536031
:100FF000184B5B68174A23F47C135360154B5B68EE
:10100000144A43F4E8135360124B1B68114A43F02F
:101010008073136000BF0F4B1B6803F00073002B3D
:10102000F9D00C4B5B680B4A23F003035360094B68
:101030005B68084A43F00203536000BF054B5B68DE
:1010400003F00C03082BF9D100BF0C37BD4680BC60
:10105000704700BF001002400020024080B582B0FF
:1010600000AF114B7B60114B3B6007E07A68131DAA
:101070007B603B68191D396012681A603B680C4A36
:101080009342F3D30B480C494FF000028842B8BF9B
:1010900040F8042BFADBFFF7BBFE00F03BF900BF82
:1010A0000837BD4680BD00BFE834000800000020BE
:1010B0003C0000203C000020BC00002080B400AFB9
:1010C000FEE780B489B000AF786039600023FB612F
:1010D00000233B610023BB610023FB6000237B6195
:1010E0000023BB603B68DB7803F00F03FB613B68C8
:1010F000DB7803F01003002B05D03B689B781A4681
:10110000FB691343FB613B681B88DBB2002B44D0B7
:101110007B681B687B610023BB6138E00122BB69EF
:1011200002FA03F3FB603B681B881A46FB68134016
:101130003B613A69FB689A4226D1BB699B00FB6020
:101140000F22FB6802FA03F3BB60BB68DB437A69DA
:1011500013407B61FA69FB6802FA03F37A6913436F
:101160007B613B68DB78282B05D10122BB699A4063
:101170007B685A6108E03B68DB78482B04D1012288
:10118000BB699A407B681A61BB690133BB61BB696B
:10119000072BC3D97B687A691A603B681B88FF2BD1
:1011A00046D97B685B687B610023BB613AE0BB6921
:1011B0000833012202FA03F3FB603B681B881A46DE
:1011C000FB6813403B613A69FB689A4227D1BB69CF
:1011D0009B00FB600F22FB6802FA03F3BB60BB6855
:1011E000DB437A6913407B61FA69FB6802FA03F317
:1011F0007A6913437B613B68DB78282B05D1BB6997
:10120000083301229A407B685A613B68DB78482B9F
:1012100005D1BB69083301229A407B681A61BB691A
:101220000133BB61BB69072BC1D97B687A695A60FE
:1012300000BF2437BD4680BC704780B485B000AF86
:1012400078600B467B800023FB737B689A687B8801
:101250001340002B02D00123FB7301E00023FB733A
:10126000FB7B18461437BD4680BC704780B483B002
:1012700000AF78600B467B807A887B681A6100BF7C
:101280000C37BD4680BC704780B483B000AF786037
:101290000B467B807A887B685A6100BF0C37BD465D
:1012A00080BC704780B582B000AF00F0DBF84FF42F
:1012B000803000F005F900F031F90346FB71FB794D
:1012C000012B23D1002000F0A9F9002000F0DEF965
:1012D0004FF4806000F0BEF94FF4E0114FF480301D
:1012E00000F044F9012000F05FF900BF392000F060
:1012F0000FFB0346002BF9D0022000F065F900BF78
:1013000000F07EF90346082BFAD100E0FEE708372B
:10131000BD4680BD80B500AFFFF7C4FF00F050FFB1
:101320004FF4E130FFF7EEF8FEF74EFF464B9B69B6
:10133000454A43F001039361444B4FF000725A60F9
:10134000FFF754F87820FEF767FF414B1B681946FA
:101350004048FFF737F9404B1B6819463D48FFF7F7
:1013600031F90620FFF798F93C4B9B79194639482B
:10137000FFF728F90720FFF78FF9384BDB7919467B
:101380003448FFF71FF90520FEF746FF0020FFF75E
:1013900083F9324B1B7819462E48FFF713F90120C9
:1013A000FFF77AF92D4B5B7819462A48FFF70AF9BF
:1013B0000520FEF731FF0420FFF76EF9274B1B795C
:1013C00019462448FFF7FEF80520FFF765F9234B7F
:1013D0005B7919461F48FFF7F5F80520FEF71CFF5B
:1013E0000220FFF759F91D4B9B7819461948FFF762
:1013F000E9F80320FFF750F9184BDB781946154838
:10140000FFF7E0F80520FEF707FF002000F0E0FE00
:10141000134B1B7819460F48FFF7D4F8062000F04D
:10142000D7FE0F4B9B7919460A48FFF7CBF80320EC
:1014300000F0CEFE0A4BDB7819460648FFF7C2F8EB
:101440000520FEF7E9FE80E70010024000000140A1
:101450001400002000380140180000204000002047
:10146000B000002080B400AF134B1B68124A43F059
:1014700001031360104B5A680F49104B13404B6027
:101480000D4B1B680C4A23F0847323F480331360E4
:10149000094B1B68084A23F480231360064B5B68E2
:1014A000054A23F4FE035360034B4FF41F029A6076
:1014B00000BFBD4680BC7047001002400000FFF82E
:1014C00080B483B000AF7860134B1B68124A23F4DA
:1014D00080331360104B1B680F4A23F48023136082
:1014E0007B68B3F5803F03D0B3F5802F07D00DE0C4
:1014F000094B1B68084A43F48033136006E0064B2F
:101500001B68054A43F4A023136000BF00BF0C37DB
:10151000BD4680BC704700BF0010024080B582B05D
:1015200000AF00233B600023FB710023BB7131201F
:1015300000F0EEF90346BB713B6801333B603B684A
:10154000B3F5A06F02D0BB79002BF0D0312000F0B2
:10155000DFF90346002B02D00123FB7101E00023D9
:10156000FB71FB7918460837BD4680BD80B485B055
:1015700000AF786039600023FB600A4B5B68FB605A
:10158000FB6823F47C13FB607A683B681343FA68BA
:101590001343FB60034AFB68536000BF1437BD462A
:1015A00080BC70470010024080B483B000AF034697
:1015B000FB71044AFB79136000BF0C37BD4680BC49
:1015C000704700BF6000424280B485B000AF7860D1
:1015D0000023FB60094B5B68FB60FB6823F003039F
:1015E000FB60FA687B681343FB60044AFB68536046
:1015F00000BF1437BD4680BC704700BF00100240DA
:1016000080B400AF044B5B68DBB203F00C03DBB2C9
:101610001846BD4680BC70470010024080B485B0BB
:1016200000AF78600023FB60094B5B68FB60FB68E0
:1016300023F0F003FB60FA687B681343FB60044A05
:10164000FB68536000BF1437BD4680BC704700BFC5
:101650000010024080B485B000AF78600023FB60CA
:10166000094B5B68FB60FB6823F4E063FB60FA688E
:101670007B681343FB60044AFB68536000BF143768
:10168000BD4680BC704700BF0010024080B485B0EA
:1016900000AF78600023FB60094B5B68FB60FB6870
:1016A00023F46053FB607B68DB00FA681343FB6044
:1016B000034AFB68536000BF1437BD4680BC7047C7
:1016C0000010024080B485B000AF78600023FB605A
:1016D000094B5B68FB60FB6823F44043FB60FA68DE
:1016E0007B681343FB60044AFB68536000BF1437F8
:1016F000BD4680BC704700BF0010024080B487B078
:1017000000AF786000237B6100233B610023FB6016
:101710000023BB604C4B5B6803F00C037B617B696F
:10172000042B07D0082B09D0002B33D17B68474A04
:101730001A6033E07B68454A1A602FE0424B5B68D1
:1017400003F470133B61404B5B6803F48033FB6030
:101750003B699B0C02333B61FB68002B06D13B6964
:101760003B4A02FB03F27B681A6017E0364B5B686A
:1017700003F40033002B06D03B69354A02FB03F229
:101780007B681A600AE03B69304A02FB03F27B681F
:101790001A6003E07B682D4A1A6000BF2A4B5B6821
:1017A00003F0F0037B617B691B097B61294A7B693C
:1017B00013441B78DBB2BB607B681A68BB68DA40F5
:1017C0007B685A60204B5B6803F4E0637B617B6954
:1017D0001B0A7B611F4A7B6913441B78DBB2BB6029
:1017E0007B685A68BB68DA407B689A60164B5B6816
:1017F00003F460537B617B69DB0A7B61154A7B697B
:1018000013441B78DBB2BB607B685A68BB68DA4064
:101810007B68DA600C4B5B6803F440437B617B6957
:101820009B0B7B610C4A7B6913441B78DBB2BB606A
:101830007B68DA68BB68B2FBF3F27B681A6100BFB1
:101840001C37BD4680BC70470010024000127A0071
:1018500000093D001C0000202C00002080B483B053
:1018600000AF78600B46FB70FB78002B06D0094B6D
:101870005A6908497B6813434B6106E0054B5A6976
:101880007B68DB43034913404B6100BF0C37BD4607
:1018900080BC70470010024080B483B000AF786015
:1018A0000B46FB70FB78002B06D0094B9A69084960
:1018B0007B6813438B6106E0054B9A697B68DB43C9
:1018C000034913408B6100BF0C37BD4680BC704795
:1018D0000010024080B483B000AF78600B46FB700C
:1018E000FB78002B06D0094BDA6908497B68134363
:1018F000CB6106E0054BDA697B68DB4303491340A3
:10190000CB6100BF0C37BD4680BC70470010024061
:1019100080B487B000AF0346FB710023FB60002357
:101920007B610023FB74FB795B09DBB2FB60FB6826
:10193000012B03D1124B1B687B6109E0FB68022B72
:1019400003D10F4B1B6A7B6102E00D4B5B6A7B612D
:10195000FB7903F01F03FB607A69FB6822FA03F34B
:1019600003F00103002B02D00123FB7401E00023EC
:10197000FB74FB7C18461C37BD4680BC704700BF1B
:101980000010024080B485B000AF78603960002359
:10199000FB600023FB727B685B68FB60FB6823F4E1
:1019A000702323F48073FB603B681A683B681B79E3
:1019B0001B021343FA681343FB607B68FA685A60A2
:1019C0007B689B68FB60FA68164B1340FB603B68C2
:1019D000DA683B689B681A433B685B795B0013439A
:1019E000FA681343FB607B68FA689A607B68DB6A7D
:1019F000FB60FB6823F47003FB603B681B7C013BCE
:101A0000DAB2FB7A1343FB72FB7A1B05FA681343C5
:101A1000FB607B68FA68DA6200BF1437BD4680BCA1
:101A2000704700BFFDF7F1FF80B483B000AF78606E
:101A30000B46FB70FB78002B06D07B689B6843F05D
:101A400001027B689A6005E07B689B6823F00102D5
:101A50007B689A6000BF0C37BD4680BC704780B47D
:101A600083B000AF78600B46FB70FB78002B06D08C
:101A70007B689B6843F480727B689A6005E07B68B2
:101A80009B6823F480727B689A6000BF0C37BD4668
:101A900080BC704780B483B000AF78607B689B687F
:101AA00043F008027B689A6000BF0C37BD4680BCDB
:101AB000704780B485B000AF78600023FB737B680B
:101AC0009B6803F00803002B02D00123FB7301E0A5
:101AD0000023FB73FB7B18461437BD4680BC704760
:101AE00080B483B000AF78607B689B6843F00402E9
:101AF0007B689A6000BF0C37BD4680BC704780B4DD
:101B000085B000AF78600023FB737B689B6803F0AF
:101B10000403002B02D00123FB7301E00023FB73BD
:101B2000FB7B18461437BD4680BC704780B483B039
:101B300000AF78600B46FB70FB78002B06D07B680B
:101B40009B6843F4A0027B689A6005E07B689B6811
:101B500023F4A0027B689A6000BF0C37BD4680BCAE
:101B6000704780B485B000AF7860084611461A46C9
:101B70000346FB700B46BB7013467B700023FB6073
:101B80000023BB60FB78092B23D97B68DB68FB60F3
:101B9000FB78A3F10A0213465B001344072202FA02
:101BA00003F3BB60BB68DB43FA681340FB607978E2
:101BB000FB78A3F10A0213465B00134401FA03F316
:101BC000BB60FA68BB681343FB607B68FA68DA6045
:101BD0001EE07B681B69FB60FA7813465B001344C8
:101BE000072202FA03F3BB60BB68DB43FA681340C9
:101BF000FB607978FA7813465B00134401FA03F32B
:101C0000BB60FA68BB681343FB607B68FA681A61C3
:101C1000BB78062B21D87B685B6BFB60BB785A1EB8
:101C200013469B0013441F2202FA03F3BB60BB68F8
:101C3000DB43FA681340FB60F978BB785A1E134601
:101C40009B00134401FA03F3BB60FA68BB681343BB
:101C5000FB607B68FA685A6347E0BB780C2B21D89D
:101C60007B681B6BFB60BB78DA1F13469B00134439
:101C70001F2202FA03F3BB60BB68DB43FA68134020
:101C8000FB60F978BB78DA1F13469B00134401FA16
:101C900003F3BB60FA68BB681343FB607B68FA68B8
:101CA0001A6322E07B68DB6AFB60BB78A3F10D025C
:101CB00013469B0013441F2202FA03F3BB60BB6868
:101CC000DB43FA681340FB60F978BB78A3F10D029F
:101CD00013469B00134401FA03F3BB60FA68BB6828
:101CE0001343FB607B68FA68DA6200BF1437BD46B5
:101CF00080BC704780B58CB000AF7860396000233D
:101D0000FB620023BB6200237B6200233B62002353
:101D1000FB617B68FB617B681B8A9BB2FB62FA6A92
:101D20004CF6FF731340FB623B68DB881A46FB6A84
:101D30001343FB62FB6A9AB27B681A827B689B89B9
:101D40009BB2FB62FA6A4EF6F3131340FB623B68E8
:101D50009A883B681B8913439AB23B685B8913439B
:101D60009BB21A46FB6A1343FB62FB6A9AB27B681A
:101D70009A817B689B8A9BB2FB62FA6A4FF6FF43AB
:101D80001340FB623B689B891A46FB6A1343FB6264
:101D9000FB6A9AB27B689A8207F108031846FFF73C
:101DA000ADFCFB692E4A934202D17B69BB6201E024
:101DB0003B69BB627B689B899BB21BB2002B0CDA30
:101DC000BA6A13469B0013449A001A443B681B6886
:101DD0005B00B2FBF3F37B620BE0BA6A13469B0035
:101DE00013449A001A443B681B689B00B2FBF3F350
:101DF0007B627B6A1B4AA2FB03235B091B01FB621C
:101E0000FB6A1B09642202FB03F37A6AD31A3B6262
:101E10007B689B899BB21BB2002B0CDA3B6ADB0010
:101E20003233104AA2FB03235B0903F00703FA6A6B
:101E30001343FB620BE03B6A1B013233094AA2FBEE
:101E400003235B0903F00F03FA6A1343FB62FB6A87
:101E50009AB27B681A8100BF3037BD4680BD00BF93
:101E6000003801401F85EB5180B483B000AF78602B
:101E70000B46FB70FB78002B08D07B689B899BB2DC
:101E800043F400539AB27B689A8107E07B689B8990
:101E90009BB223F400539AB27B689A8100BF0C373F
:101EA000BD4680BC704780B487B000AF78600B46F9
:101EB0007B8013467B7000233B610023FB60002383
:101EC000BB6000237B617B687B617B88DBB25B0945
:101ED000DBB23B617B8803F01F03FB600122FB68E0
:101EE00002FA03F3BB603B69012B03D17B690C331E
:101EF0007B6109E03B69022B03D17B6910337B6175
:101F000002E07B6914337B617B78002B06D07B6910
:101F100019687B69BA680A431A6006E07B69196828
:101F2000BB68DA437B690A401A6000BF1C37BD46B4
:101F300080BC704780B483B000AF78600B467B8074
:101F40007B88C3F308039AB27B689A8000BF0C3782
:101F5000BD4680BC704780B483B000AF78607B68BA
:101F60009B889BB2C3F308039BB218460C37BD464F
:101F700080BC704780B485B000AF78600B467B8032
:101F80000023FB737B681B889AB27B8813409BB24B
:101F9000002B02D00123FB7301E00023FB73FB7BCA
:101FA00018461437BD4680BC704780B487B000AF78
:101FB00078600B467B800023FB6000237B6100235D
:101FC000BB600023FB747B88DBB25B09DBB2BB60C8
:101FD0007B8803F01F037B6101227B6902FA03F314
:101FE0007B61BB68012B07D17B689B899BB21A463A
:101FF0007B6913407B6111E0BB68022B07D17B68D2
:102000001B8A9BB21A467B6913407B6106E07B68A2
:102010009B8A9BB21A467B6913407B617B881B0AB3
:102020009BB2FB600122FB6802FA03F3FB607B6852
:102030001B889BB21A46FB681340FB607B69002B30
:1020400005D0FB68002B02D00123FB7401E00023C4
:10205000FB74FB7C18461C37BD4680BC704780B4BF
:1020600085B000AF78600B467B800023FB810023A6
:10207000BB817B881B0AFB81FB89012202FA03F3E7
:10208000BB81BB89DB439AB27B681A8000BF1437DF
:10209000BD4680BC7047000080B592B000AF4FF4E1
:1020A0000040FFF70FFB012140F20D20FFF7F4FB8A
:1020B00001210120FFF7D2FB03233B610023FB60DA
:1020C0000023FB62394BBB604FF480633B6280238B
:1020D000BB6120237B62364B7B604FF48073FB61D6
:1020E00000237B614FF40053BB623B1D194631480E
:1020F00000F082FA01212F4800F0BCFAB023A7F8C3
:102100004430002387F8473007F1440319462A4832
:10211000FEF7D7FF012387F835300023FB634FF428
:102120006023BB6300233B63032387F84030012314
:1021300087F8343007F1300319462048FFF722FCB6
:102140000323012205211D48FFF70BFD0323022273
:1021500004211A48FFF705FD03230322072117482E
:10216000FFF7FFFC01211548FFF75EFC0121134832
:10217000FFF775FC1148FFF78DFC00BF0F48FFF714
:1021800098FC0346002BF9D10C48FFF7A9FC00BFCF
:102190000A48FFF7B4FC0346002BF9D10121074898
:1021A000FFF7C4FC00BF4837BD4680BD30000020AB
:1021B0004C24014008000240000801400024014076
:1021C00080B500AFFFF768FF00BF80BD00000000D2
:1021D00090B595B000AF78607B68062B00F2DD818A
:1021E00001A252F823F000BF052200084D24000888
:1021F0009B2500082923000809250008BB230008A7
:1022000097220008BC4B1B889BB2BB81BB89184638
:1022100000F0A2FF0346FB644FF08B41F86C01F025
:10222000A7F80346B549184600F0EEFF0346BB6425
:10223000B86C00F001FCAAA3D3E9002300F054FC21
:1022400003460C4618462146A7A3D3E9002300F015
:1022500093FA03460C461A4623464FF00000A8495D
:1022600000F06CFD03460C4618462146A0A3D3E9B6
:10227000002300F081FA03460C461846214600F080
:1022800065FE0346FB64F86C01F00EF90346DAB212
:102290009C4B1A7081E1984B5B889BB2FB81FB8958
:1022A000184600F059FF0346FB644FF08B41F86C71
:1022B00001F05EF803469149184600F0A5FF034679
:1022C000BB64B86C00F0B8FB85A3D3E9002300F031
:1022D0000BFC03460C461846214683A3D3E9002392
:1022E00000F04AFA03460C461A4623464FF0000017
:1022F000834900F023FD03460C46184621467CA383
:10230000D3E9002300F038FA03460C46184621466C
:1023100000F01CFE0346FB64F86C01F0C5F80346B0
:10232000DAB2784B9A7138E1734B9B889BB23B824F
:102330003B8A184600F010FF0346FB644FF08B41C8
:10234000F86C01F015F803466C49184600F05CFF84
:102350000346BB64B86C00F06FFB61A3D3E90023B4
:1023600000F0C2FB03460C46184621465EA3D3E9A3
:10237000002300F001FA03460C461A4623464FF0AC
:1023800000005F4900F0DAFC03460C46184621467F
:1023900057A3D3E9002300F0EFF903460C46184693
:1023A000214600F0D3FD0346FB64F86C01F07CF895
:1023B0000346DAB2534BDA70EFE04F4B1B899BB206
:1023C000BB82BB8A184600F0C7FE0346FB644FF091
:1023D0008B41F86C00F0CCFF03464849184600F0EA
:1023E00013FF0346BB64B86C00F026FB3CA3D3E9A3
:1023F000002300F079FB03460C46184621463AA319
:10240000D3E9002300F0B8F903460C461A462346E8
:102410004FF000003A4900F091FC03460C46184684
:10242000214633A3D3E9002300F0A6F903460C4666
:102430001846214600F08AFD0346FB64F86C01F063
:1024400033F80346DAB22F4B5A71A6E02A4B5B8968
:102450009BB2FB82FB8A184600F07EFE0346FB64BB
:102460004FF08B41F86C00F083FF03462349184678
:1024700000F0CAFE0346BB64B86C00F0DDFA18A396
:10248000D3E9002300F030FB03460C4618462146F2
:1024900015A3D3E9002300F06FF903460C461A4652
:1024A00023464FF00000164900F048FC03460C4656
:1024B000184621460EA3D3E9002300F05DF9034638
:1024C0000C461846214600F041FD0346FB64F86CBB
:1024D00000F0EAFF0346DAB20A4B1A705DE000BF73
:1024E000304CA60A4625A53F158C4AEA0434713FB4
:1024F000E17A14AE47E1DA3F300000200000A0404E
:102500000000F03FB0000020374BDB889BB27B839C
:102510007B8B184600F020FE0346FB644FF08B4196
:10252000F86C00F025FF03463049184600F06CFEB9
:102530000346BB64B86C00F07FFA25A3D3E90023FF
:1025400000F0D2FA03460C461846214622A3D3E9EE
:10255000002300F011F903460C461A4623464FF0BB
:102560000000234900F0EAFB03460C4618462146CA
:102570001BA3D3E9002300F0FFF803460C461846DE
:10258000214600F0E3FC0346FB64F86C00F08CFF8E
:102590000346DAB2174B1A7100BF164A7B68134420
:1025A0001B784A2B04D9134A7B6813444B221A70B8
:1025B000104A7B6813441B78002B04D10D4A7B68BA
:1025C00013444B221A7000BF5437BD4690BD00BF64
:1025D000304CA60A4625A53F158C4AEA0434713FC3
:1025E000E17A14AE47E1DA3F300000200000A0405D
:1025F0000000F03FB000002080B485B000AF7860EC
:1026000039600023FB607B681B68FB60FB6823F478
:10261000FF4323F07003FB603B689A683B681B6ACA
:102620001A433B681B691A433B685B691A433B6862
:102630009B691A433B68DB691A433B685B6A1A4330
:102640003B689B6A1343FA681343FB607B68FA6834
:102650001A603B68DA687B685A603B681A687B6876
:102660009A603B685A687B68DA6000BF1437BD46E1
:1026700080BC704780B483B000AF78600B46FB70BD
:10268000FB78002B06D07B681B6843F001027B6857
:102690001A6006E07B681A684FF6FE7313407A688A
:1026A000136000BF0C37BD4680BC704780B487B054
:1026B00000AF786000237B6100233B610F23FB6048
:1026C0007B68DB78002B3AD0274BDB68DB431B0AA7
:1026D00003F007037B617B69C3F104033B61FA6884
:1026E0007B6922FA03F3FB607B685B781A463B69DF
:1026F00002FA03F37B617B689B781A46FB68134000
:102700007A6913437B617B691B017B61174A7B6894
:102710001B787969C9B213440A4683F800237B68A1
:102720001B7803F01F0311497A6812785209D2B25C
:102730001046012202FA03F341F820300FE07B68D3
:102740001B7803F01F0309497A6812785209D2B244
:10275000104601229A4000F1200341F8232000BFD7
:102760001C37BD4680BC704700ED00E000E100E092
:1027700081F0004102E000BF83F0004330B54FEA32
:1027800041044FEA430594EA050F08BF90EA020F9F
:102790001FBF54EA000C55EA020C7FEA645C7FEA32
:1027A000655C00F0E2804FEA5454D4EB5555B8BF55
:1027B0006D420CDD2C4480EA020281EA030382EAC6
:1027C000000083EA010180EA020281EA0303362D58
:1027D00088BF30BD11F0004F4FEA01314FF4801C2B
:1027E0004CEA113102D0404261EB410113F0004F3D
:1027F0004FEA03334CEA133302D0524263EB4303F4
:1028000094EA050F00F0A780A4F10104D5F1200E91
:102810000DDB02FA0EFC22FA05F2801841F10001EC
:1028200003FA0EF2801843FA05F359410EE0A5F1C0
:1028300020050EF1200E012A03FA0EFC28BF4CF0F1
:10284000020C43FA05F3C01851EBE37101F00045A7
:1028500007D54FF0000EDCF1000C7EEB00006EEBB4
:102860000101B1F5801F1BD3B1F5001F0CD349083E
:102870005FEA30004FEA3C0C04F101044FEA445295
:1028800012F5800F80F09A80BCF1004F08BF5FEA1C
:10289000500C50F1000041EB045141EA050130BDFC
:1028A0005FEA4C0C404141EB010111F4801FA4F19F
:1028B0000104E9D191F0000F04BF01460020B1FAF4
:1028C00081F308BF2033A3F10B03B3F120020CDA2C
:1028D0000C3208DD02F1140CC2F10C0201FA0CF00A
:1028E00021FA02F10CE002F11402D8BFC2F1200C6F
:1028F00001FA02F120FA0CFCDCBF41EA0C01904025
:10290000E41AA2BF01EB0451294330BD6FEA04046D
:102910001F3C1CDA0C340EDC04F11404C4F1200258
:1029200020FA04F001FA02F340EA030021FA04F36A
:1029300045EA030130BDC4F10C04C4F1200220FAC1
:1029400002F001FA04F340EA0300294630BD21FAFF
:1029500004F0294630BD94F0000F83F4801306BFC5
:1029600081F480110134013D4EE77FEA645C18BFB9
:102970007FEA655C29D094EA050F08BF90EA020F50
:1029800005D054EA000C04BF1946104630BD91EA48
:10299000030F1EBF0021002030BD5FEA545C05D14B
:1029A0004000494128BF41F0004130BD14F580048A
:1029B0003CBF01F5801130BD01F0004545F0FE41FE
:1029C00041F470014FF0000030BD7FEA645C1ABF33
:1029D000194610467FEA655C1CBF0B46024650EA6A
:1029E000013406BF52EA033591EA030F41F4002196
:1029F00030BD00BF90F0000F04BF0021704730B51C
:102A00004FF4806404F132044FF000054FF00001F0
:102A100050E700BF90F0000F04BF0021704730B5B1
:102A20004FF4806404F1320410F0004548BF404286
:102A30004FF000013EE700BF42004FEAE2014FEADB
:102A400031014FEA02701FBF12F07F4393F07F4FB6
:102A500081F06051704732F07F4208BF704793F0B9
:102A60007F4F04BF41F40021704730B54FF46074CC
:102A700001F0004521F000411CE700BF50EA0102CF
:102A800008BF704730B54FF000050AE050EA010278
:102A900008BF704730B511F0004502D5404261EBE8
:102AA00041014FF4806404F132045FEA915C3FF429
:102AB000D8AE4FF003025FEADC0C18BF03325FEAC6
:102AC000DC0C18BF033202EBDC02C2F1200300FA77
:102AD00003FC20FA02F001FA03FE40EA0E0021FA9C
:102AE00002F11444BDE600BF70B54FF0FF0C4CF48A
:102AF000E06C1CEA11541DBF1CEA135594EA0C0F3C
:102B000095EA0C0F00F0DEF82C4481EA030621EA76
:102B10004C5123EA4C5350EA013518BF52EA0335B1
:102B200041F4801143F4801338D0A0FB02CE4FF063
:102B30000005E1FB02E506F00042E0FB03E54FF093
:102B40000006E1FB03569CF0000F18BF4EF0010E8B
:102B5000A4F1FF04B6F5007F64F5407404D25FEA87
:102B60004E0E6D4146EB060642EAC62141EA55513A
:102B70004FEAC52040EA5E504FEACE2EB4F1FD0C7C
:102B800088BFBCF5E06F1ED8BEF1004F08BF5FEAFA
:102B9000500E50F1000041EB045170BD06F00046AC
:102BA00046EA010140EA020081EA0301B4EB5C0459
:102BB000C2BFD4EB0C0541EA045170BD41F4801151
:102BC0004FF0000E013C00F3AB8014F1360FDEBF76
:102BD000002001F0004170BDC4F10004203C35DA52
:102BE0000C341BDC04F11404C4F1200500FA05F3D5
:102BF00020FA04F001FA05F240EA020001F0004276
:102C000021F0004110EBD37021FA04F642EB0601EB
:102C10005EEA430E08BF20EAD37070BDC4F10C0415
:102C2000C4F1200500FA04F320FA05F001FA04F2D9
:102C300040EA020001F0004110EBD37041F10001C5
:102C40005EEA430E08BF20EAD37070BDC4F12005D0
:102C500000FA05F24EEA020E20FA04F301FA05F238
:102C600043EA020321FA04F001F0004121FA04F2E0
:102C700020EA020000EBD3705EEA430E08BF20EAB0
:102C8000D37070BD94F0000F0FD101F000464000EA
:102C900041EB010111F4801F08BF013CF7D041EA6C
:102CA000060195F0000F18BF704703F00046520070
:102CB00043EB030313F4801F08BF013DF7D043EA41
:102CC0000603704794EA0C0F0CEA135518BF95EAF7
:102CD0000C0F0CD050EA410618BF52EA4306D1D17E
:102CE00081EA030101F000414FF0000070BD50EA9D
:102CF000410606BF1046194652EA430619D094EA27
:102D00000C0F02D150EA013613D195EA0C0F05D110
:102D100052EA03361CBF104619460AD181EA030164
:102D200001F0004141F0FE4141F470014FF000001C
:102D300070BD41F0FE4141F4780170BD70B54FF0B7
:102D4000FF0C4CF4E06C1CEA11541DBF1CEA135537
:102D500094EA0C0F95EA0C0F00F0A7F8A4EB050419
:102D600081EA030E52EA03354FEA013100F0888010
:102D70004FEA03334FF0805545EA131343EA1263D9
:102D80004FEA022245EA111545EA10654FEA00268E
:102D90000EF000419D4208BF964244F1FD0404F547
:102DA000407402D25B084FEA3202B61A65EB0305A3
:102DB0005B084FEA32024FF480104FF4002CB6EB60
:102DC000020E75EB030E22BFB61A754640EA0C00E0
:102DD0005B084FEA3202B6EB020E75EB030E22BF20
:102DE000B61A754640EA5C005B084FEA3202B6EB61
:102DF000020E75EB030E22BFB61A754640EA9C0020
:102E00005B084FEA3202B6EB020E75EB030E22BFEF
:102E1000B61A754640EADC0055EA060E18D04FEAAD
:102E2000051545EA16754FEA06164FEAC30343EA4D
:102E300052734FEAC2025FEA1C1CC0D111F4801F1A
:102E40000BD141EA00014FF000004FF0004CB6E713
:102E500011F4801F04BF01430020B4F1FD0C88BFB2
:102E6000BCF5E06F3FF6AFAEB5EB030C04BFB6EBBD
:102E7000020C5FEA500C50F1000041EB045170BDB0
:102E80000EF0004E4EEA113114EB5C04C2BFD4EBDD
:102E90000C0541EA045170BD41F480114FF0000E61
:102EA000013C90E645EA060E8DE60CEA135594EADD
:102EB0000C0F08BF95EA0C0F3FF43BAF94EA0C0FE0
:102EC0000AD150EA01347FF434AF95EA0C0F7FF455
:102ED00025AF104619462CE795EA0C0F06D152EAA9
:102EE00003353FF4FDAE1046194622E750EA41068D
:102EF00018BF52EA43067FF4C5AE50EA41047FF49E
:102F00000DAF52EA43057FF4EBAE12E74A0011D24F
:102F100012F5001211D20DD56FF47873B3EB625233
:102F20000ED44FEAC12343F0004343EA505323FA3F
:102F300002F070474FF00000704750EA013002D1B4
:102F40004FF0FF3070474FF0000070474FEA4102EA
:102F5000B2F1E04324BFB3F5001CDCF1FE5C0DD9F7
:102F600001F0004C4FEAC0024CEA5070B2F1004F41
:102F700040EB830008BF20F00100704711F0804F44
:102F800021D113F13872BCBF01F00040704741F409
:102F900080114FEA5252C2F11802C2F1200C10FA0D
:102FA0000CF320FA02F018BF40F001004FEAC123F1
:102FB0004FEAD32303FA0CFC40EA0C0023FA02F395
:102FC0004FEA4303CCE77FEA625307D150EA01336B
:102FD0001EBF4FF0FE4040F44000704701F000403B
:102FE00040F0FE4040F40000704700BF80F0004019
:102FF00002E000BF81F0004142001FBF5FEA4103D1
:1030000092EA030F7FEA226C7FEA236C6AD04FEAD0
:103010001262D2EB1363C1BFD21841404840414015
:10302000B8BF5B42192B88BF704710F0004F40F4C7
:10303000000020F07F4018BF404211F0004F41F4E3
:10304000000121F07F4118BF494292EA030F3FD0AF
:10305000A2F1010241FA03FC10EB0C00C3F12003C2
:1030600001FA03F100F0004302D5494260EB400051
:10307000B0F5000F13D3B0F1807F06D340084FEABC
:10308000310102F10102FE2A51D2B1F1004F40EBB1
:10309000C25008BF20F0010040EA03007047490019
:1030A00040EB000010F4000FA2F10102EDD1B0FAE4
:1030B00080FCACF1080CB2EB0C0200FA0CF0AABFD9
:1030C00000EBC25052421843BCBFD0401843704777
:1030D00092F0000F81F4000106BF80F4000001327D
:1030E000013BB5E74FEA41037FEA226C18BF7FEA54
:1030F000236C21D092EA030F04D092F0000F08BF96
:103100000846704790EA010F1CBF0020704712F07C
:103110007F4F04D1400028BF40F00040704712F1BB
:1031200000723CBF00F50000704700F0004343F020
:10313000FE4040F4000070477FEA226216BF084656
:103140007FEA23630146420206BF5FEA412390EA19
:10315000010F40F4800070474FF0000304E000BF0F
:1031600010F0004348BF40425FEA000C08BF7047C0
:1031700043F0964301464FF000001CE050EA010284
:1031800008BF70474FF000030AE000BF50EA010299
:1031900008BF704711F0004302D5404261EB410186
:1031A0005FEA010C02BF84460146002043F0B643AB
:1031B00008BFA3F18053A3F50003BCFA8CF2083AD0
:1031C000A3EBC25310DB01FA02FC634400FA02FCD9
:1031D000C2F12002BCF1004F20FA02F243EB0200E0
:1031E00008BF20F00100704702F1200201FA02FC42
:1031F000C2F1200250EA4C0021FA02F243EB020035
:1032000008BF20EADC7070474FF0FF0C1CEAD05278
:103210001EBF1CEAD15392EA0C0F93EA0C0F6FD039
:103220001A4480EA010C400218BF5FEA41211ED017
:103230004FF0006343EA501043EA5111A0FB013103
:103240000CF00040B1F5000F3EBF490041EAD371D8
:103250005B0040EA010062F17F02FD2A1DD8B3F154
:10326000004F40EBC25008BF20F00100704790F0C3
:10327000000F0CF0004C08BF49024CEA502040EA15
:1032800051207F3AC2BFD2F1FF0340EAC2507047DB
:1032900040F400004FF00003013A5DDC12F1190F19
:1032A000DCBF00F000407047C2F10002410021FA8B
:1032B00002F1C2F1200200FA02FC5FEA310040F1A3
:1032C000000053EA4C0308BF20EADC70704792F01C
:1032D000000F00F0004C02BF400010F4000F013A54
:1032E000F9D040EA0C0093F0000F01F0004C02BF4F
:1032F000490011F4000F013BF9D041EA0C018FE7BE
:103300000CEAD15392EA0C0F18BF93EA0C0F0AD0C3
:1033100030F0004C18BF31F0004CD8D180EA0100E9
:1033200000F00040704790F0000F17BF90F0004F82
:10333000084691F0000F91F0004F14D092EA0C0F64
:1033400001D142020FD193EA0C0F03D14B0218BFF7
:10335000084608D180EA010000F0004040F0FE403D
:1033600040F40000704740F0FE4040F440007047D9
:103370004FF0FF0C1CEAD0521EBF1CEAD15392EA58
:103380000C0F93EA0C0F69D0A2EB030280EA010C48
:1033900049024FEA402037D04FF0805343EA1111E1
:1033A00043EA10130CF000408B4238BF5B0042F13F
:1033B0007D024FF4000C8B4224BF5B1A40EA0C00E4
:1033C000B3EB510F24BFA3EB510340EA5C00B3EB16
:1033D000910F24BFA3EB910340EA9C00B3EBD10F04
:1033E00024BFA3EBD10340EADC001B0118BF5FEA56
:1033F0001C1CE0D1FD2A3FF650AF8B4240EBC2507F
:1034000008BF20F0010070470CF0004C4CEA50203F
:103410007F32C2BFD2F1FF0340EAC250704740F48E
:1034200000004FF00003013A37E792F0000F00F080
:10343000004C02BF400010F4000F013AF9D040EAFE
:103440000C0093F0000F01F0004C02BF490011F492
:10345000000F013BF9D041EA0C0195E70CEAD1538A
:1034600092EA0C0F08D142027FF47DAF93EA0C0F71
:103470007FF470AF084676E793EA0C0F04D14B0255
:103480003FF44CAF08466EE730F0004C18BF31F007
:10349000004CCAD130F000427FF45CAF31F0004301
:1034A0007FF43CAF5FE700BF42000ED2B2F1FE4FA7
:1034B0000BD34FF09E03B3EB126209D44FEA002303
:1034C00043F0004323FA02F070474FF000007047CA
:1034D00012F1610F01D1420202D14FF0FF3070476B
:0834E0004FF00000704700BF2F
:1034E80000A24A04000000000000000001020304DA
:1034F800060708093C0000003E000000000000002C
:10350800010203040102030406070809020406086D
:0C351800AAAAAAAAAAAAAAAAAAAAAAAAAF
:0400000508000000EF
:00000001FF
